{
  "url": "https://api.github.com/repos/hyperledger/besu/issues/1272",
  "repository_url": "https://api.github.com/repos/hyperledger/besu",
  "labels_url": "https://api.github.com/repos/hyperledger/besu/issues/1272/labels{/name}",
  "comments_url": "https://api.github.com/repos/hyperledger/besu/issues/1272/comments",
  "events_url": "https://api.github.com/repos/hyperledger/besu/issues/1272/events",
  "html_url": "https://github.com/hyperledger/besu/issues/1272",
  "id": 670567921,
  "node_id": "MDU6SXNzdWU2NzA1Njc5MjE=",
  "number": 1272,
  "title": "GraphQL failure for the miner field in a block",
  "user": {
    "login": "roderik",
    "id": 16780,
    "node_id": "MDQ6VXNlcjE2Nzgw",
    "avatar_url": "https://avatars.githubusercontent.com/u/16780?v=4",
    "gravatar_id": "",
    "url": "https://api.github.com/users/roderik",
    "html_url": "https://github.com/roderik",
    "followers_url": "https://api.github.com/users/roderik/followers",
    "following_url": "https://api.github.com/users/roderik/following{/other_user}",
    "gists_url": "https://api.github.com/users/roderik/gists{/gist_id}",
    "starred_url": "https://api.github.com/users/roderik/starred{/owner}{/repo}",
    "subscriptions_url": "https://api.github.com/users/roderik/subscriptions",
    "organizations_url": "https://api.github.com/users/roderik/orgs",
    "repos_url": "https://api.github.com/users/roderik/repos",
    "events_url": "https://api.github.com/users/roderik/events{/privacy}",
    "received_events_url": "https://api.github.com/users/roderik/received_events",
    "type": "User",
    "site_admin": false
  },
  "labels": [
    {
      "id": 1537362490,
      "node_id": "MDU6TGFiZWwxNTM3MzYyNDkw",
      "url": "https://api.github.com/repos/hyperledger/besu/labels/bug",
      "name": "bug",
      "color": "d73a4a",
      "default": true,
      "description": "Something isn't working"
    },
    {
      "id": 2051683573,
      "node_id": "MDU6TGFiZWwyMDUxNjgzNTcz",
      "url": "https://api.github.com/repos/hyperledger/besu/labels/P3",
      "name": "P3",
      "color": "ffff00",
      "default": false,
      "description": "Medium (ex: JSON-RPC request not working with a specific client library due to loose spec assumtion)"
    }
  ],
  "state": "closed",
  "locked": false,
  "assignee": {
    "login": "shemnon",
    "id": 38109,
    "node_id": "MDQ6VXNlcjM4MTA5",
    "avatar_url": "https://avatars.githubusercontent.com/u/38109?v=4",
    "gravatar_id": "",
    "url": "https://api.github.com/users/shemnon",
    "html_url": "https://github.com/shemnon",
    "followers_url": "https://api.github.com/users/shemnon/followers",
    "following_url": "https://api.github.com/users/shemnon/following{/other_user}",
    "gists_url": "https://api.github.com/users/shemnon/gists{/gist_id}",
    "starred_url": "https://api.github.com/users/shemnon/starred{/owner}{/repo}",
    "subscriptions_url": "https://api.github.com/users/shemnon/subscriptions",
    "organizations_url": "https://api.github.com/users/shemnon/orgs",
    "repos_url": "https://api.github.com/users/shemnon/repos",
    "events_url": "https://api.github.com/users/shemnon/events{/privacy}",
    "received_events_url": "https://api.github.com/users/shemnon/received_events",
    "type": "User",
    "site_admin": false
  },
  "assignees": [
    {
      "login": "shemnon",
      "id": 38109,
      "node_id": "MDQ6VXNlcjM4MTA5",
      "avatar_url": "https://avatars.githubusercontent.com/u/38109?v=4",
      "gravatar_id": "",
      "url": "https://api.github.com/users/shemnon",
      "html_url": "https://github.com/shemnon",
      "followers_url": "https://api.github.com/users/shemnon/followers",
      "following_url": "https://api.github.com/users/shemnon/following{/other_user}",
      "gists_url": "https://api.github.com/users/shemnon/gists{/gist_id}",
      "starred_url": "https://api.github.com/users/shemnon/starred{/owner}{/repo}",
      "subscriptions_url": "https://api.github.com/users/shemnon/subscriptions",
      "organizations_url": "https://api.github.com/users/shemnon/orgs",
      "repos_url": "https://api.github.com/users/shemnon/repos",
      "events_url": "https://api.github.com/users/shemnon/events{/privacy}",
      "received_events_url": "https://api.github.com/users/shemnon/received_events",
      "type": "User",
      "site_admin": false
    }
  ],
  "milestone": null,
  "comments": 0,
  "created_at": "2020-08-01T06:04:58Z",
  "updated_at": "2020-08-12T03:50:10Z",
  "closed_at": "2020-08-12T03:50:10Z",
  "author_association": "CONTRIBUTOR",
  "active_lock_reason": null,
  "body": "### Description\r\n\r\nAn IBFTv2 network:\r\n\r\n```\r\ncurl -X POST --data '{\"jsonrpc\":\"2.0\",\"method\":\"eth_getBlockByNumber\",\"params\":[\"1699055\", true],\"id\":1}' https://xxx\r\n{\r\n  \"jsonrpc\" : \"2.0\",\r\n  \"id\" : 1,\r\n  \"result\" : {\r\n    \"number\" : \"0x19ecef\",\r\n    \"hash\" : \"0x265504d25ba18eb1d12508db876432267774089419ab3caab2bcd352641260bd\",\r\n    \"parentHash\" : \"0x2af32151398458420d8245f2ba97026e53515c5965bbcce4d2a14d6e7713cdda\",\r\n    \"nonce\" : \"0x0000000000000000\",\r\n    \"sha3Uncles\" : \"0x1dcc4de8dec75d7aab85b567b6ccd41ad312451b948a7413f0a142fd40d49347\",\r\n    \"logsBloom\" : \"0x00000000000000000000000000000000000000000000000000000000000000000000000000000000000000000000000000000000000000000000000000000000000000000000000000000000000000000000000000000000000000000000000000000000000000000000000000000000000000000000000000000000000000000000000000000000000000000000000000000000000000000000000000000000000000000000000000000000000000000000000000000000000000000000000000000000000000000000000000000000000000000000000000000000000000000000000000000000000000000000000000000000000000000000000000000000\",\r\n    \"transactionsRoot\" : \"0x56e81f171bcc55a6ff8345e692c0f86e5b48e01b996cadc001622fb5e363b421\",\r\n    \"stateRoot\" : \"0xd72609c05d014eeab7914d30ed74d80424a94833c91f0fbc1b39d59db11ab0eb\",\r\n    \"receiptsRoot\" : \"0x56e81f171bcc55a6ff8345e692c0f86e5b48e01b996cadc001622fb5e363b421\",\r\n    \"miner\" : \"0xe8e710e5447d07271546d190baba1ff29fd98e45\",\r\n    \"difficulty\" : \"0x1\",\r\n    \"totalDifficulty\" : \"0x19ecf0\",\r\n    \"extraData\" : \"0xf8daa0444f4e27542050414e4943202120484f444c2c20484f444c2c20484f444c2021ea94c450fc44aa2284ed4477bdbbd7536932458a1efd94e8e710e5447d07271546d190baba1ff29fd98e45808400000000f886b8415c2a31964b83aa885791cca9538d46fff948387a47f3f808ee1b519e77d835937a87dec9179c02fae1ca23fbb3aac5ea61ba2a1208b126c105eaa025a1b5278501b8419d8b3a1408fef35905d7c0ec160e1fc6d95906b685740337cffbb832217685ba4739c4113e38a0c3992114345415d04b6ea5a83b6ed8418e1d63129adac8c1ab01\",\r\n    \"size\" : \"0x2e0\",\r\n    \"gasLimit\" : \"0x1fffffffffffff\",\r\n    \"gasUsed\" : \"0x0\",\r\n    \"timestamp\" : \"0x5f2502f0\",\r\n    \"uncles\" : [ ],\r\n    \"transactions\" : [ ]\r\n  }\r\n}\r\n```\r\n\r\nThe equivalent GraphQL query\r\n\r\n```\r\nquery getBlock($blockNumber: Long!) {\r\n  block(number: $blockNumber) {\r\n    number\r\n    hash\r\n    parent {\r\n      hash\r\n    }\r\n    nonce\r\n    ommerHash\r\n    logsBloom\r\n    transactionsRoot\r\n    stateRoot\r\n    receiptsRoot\r\n    miner {\r\n      address\r\n    }\r\n    difficulty\r\n    totalDifficulty\r\n    extraData\r\n    gasLimit\r\n    gasUsed\r\n    timestamp\r\n    ommers {\r\n      hash\r\n    }\r\n    transactions {\r\n      hash\r\n    }\r\n  }\r\n}\r\n```\r\n\r\nReturns the following error:\r\n\r\n```\r\n{\r\n  \"errors\" : [ {\r\n    \"message\" : \"Exception while fetching data (/block/miner/address) : java.lang.reflect.InvocationTargetException\",\r\n    \"locations\" : [ {\r\n      \"line\" : 15,\r\n      \"column\" : 7\r\n    } ],\r\n    \"path\" : [ \"block\", \"miner\", \"address\" ],\r\n    \"extensions\" : {\r\n      \"classification\" : \"DataFetchingException\"\r\n    }\r\n  } ],\r\n  \"data\" : null\r\n}\r\n```\r\n\r\nRemoving the miner gives me the data:\r\n\r\n```\r\n{\r\n  \"data\": {\r\n    \"block\": {\r\n      \"number\": 1699055,\r\n      \"hash\": \"0x265504d25ba18eb1d12508db876432267774089419ab3caab2bcd352641260bd\",\r\n      \"parent\": {\r\n        \"hash\": \"0x2af32151398458420d8245f2ba97026e53515c5965bbcce4d2a14d6e7713cdda\"\r\n      },\r\n      \"nonce\": \"0x0000000000000000\",\r\n      \"ommerHash\": \"0x1dcc4de8dec75d7aab85b567b6ccd41ad312451b948a7413f0a142fd40d49347\",\r\n      \"logsBloom\": \"0x00000000000000000000000000000000000000000000000000000000000000000000000000000000000000000000000000000000000000000000000000000000000000000000000000000000000000000000000000000000000000000000000000000000000000000000000000000000000000000000000000000000000000000000000000000000000000000000000000000000000000000000000000000000000000000000000000000000000000000000000000000000000000000000000000000000000000000000000000000000000000000000000000000000000000000000000000000000000000000000000000000000000000000000000000000000\",\r\n      \"transactionsRoot\": \"0x56e81f171bcc55a6ff8345e692c0f86e5b48e01b996cadc001622fb5e363b421\",\r\n      \"stateRoot\": \"0xd72609c05d014eeab7914d30ed74d80424a94833c91f0fbc1b39d59db11ab0eb\",\r\n      \"receiptsRoot\": \"0x56e81f171bcc55a6ff8345e692c0f86e5b48e01b996cadc001622fb5e363b421\",\r\n      \"difficulty\": \"0x1\",\r\n      \"totalDifficulty\": \"0x19ecf0\",\r\n      \"extraData\": \"0xf8daa0444f4e27542050414e4943202120484f444c2c20484f444c2c20484f444c2021ea94c450fc44aa2284ed4477bdbbd7536932458a1efd94e8e710e5447d07271546d190baba1ff29fd98e45808400000000f886b8415c2a31964b83aa885791cca9538d46fff948387a47f3f808ee1b519e77d835937a87dec9179c02fae1ca23fbb3aac5ea61ba2a1208b126c105eaa025a1b5278501b8419d8b3a1408fef35905d7c0ec160e1fc6d95906b685740337cffbb832217685ba4739c4113e38a0c3992114345415d04b6ea5a83b6ed8418e1d63129adac8c1ab01\",\r\n      \"gasLimit\": 9007199254740991,\r\n      \"gasUsed\": 0,\r\n      \"timestamp\": \"0x5f2502f0\",\r\n      \"ommers\": [],\r\n      \"transactions\": []\r\n    }\r\n  }\r\n}\r\n```\r\n\r\nIn other spots, like in transactions or receipts, from { address } etc works like expected\r\n\r\n### Versions (Add all that apply)\r\n* Software version: [`besu --version`] 1.4.6 on k8s \r\n",
  "closed_by": {
    "login": "shemnon",
    "id": 38109,
    "node_id": "MDQ6VXNlcjM4MTA5",
    "avatar_url": "https://avatars.githubusercontent.com/u/38109?v=4",
    "gravatar_id": "",
    "url": "https://api.github.com/users/shemnon",
    "html_url": "https://github.com/shemnon",
    "followers_url": "https://api.github.com/users/shemnon/followers",
    "following_url": "https://api.github.com/users/shemnon/following{/other_user}",
    "gists_url": "https://api.github.com/users/shemnon/gists{/gist_id}",
    "starred_url": "https://api.github.com/users/shemnon/starred{/owner}{/repo}",
    "subscriptions_url": "https://api.github.com/users/shemnon/subscriptions",
    "organizations_url": "https://api.github.com/users/shemnon/orgs",
    "repos_url": "https://api.github.com/users/shemnon/repos",
    "events_url": "https://api.github.com/users/shemnon/events{/privacy}",
    "received_events_url": "https://api.github.com/users/shemnon/received_events",
    "type": "User",
    "site_admin": false
  },
  "reactions": {
    "url": "https://api.github.com/repos/hyperledger/besu/issues/1272/reactions",
    "total_count": 0,
    "+1": 0,
    "-1": 0,
    "laugh": 0,
    "hooray": 0,
    "confused": 0,
    "heart": 0,
    "rocket": 0,
    "eyes": 0
  },
  "timeline_url": "https://api.github.com/repos/hyperledger/besu/issues/1272/timeline",
  "performed_via_github_app": null,
  "state_reason": "completed"
}
[

]
