{
  "url": "https://api.github.com/repos/hyperledger/besu/issues/1802",
  "repository_url": "https://api.github.com/repos/hyperledger/besu",
  "labels_url": "https://api.github.com/repos/hyperledger/besu/issues/1802/labels{/name}",
  "comments_url": "https://api.github.com/repos/hyperledger/besu/issues/1802/comments",
  "events_url": "https://api.github.com/repos/hyperledger/besu/issues/1802/events",
  "html_url": "https://github.com/hyperledger/besu/issues/1802",
  "id": 786099841,
  "node_id": "MDU6SXNzdWU3ODYwOTk4NDE=",
  "number": 1802,
  "title": "Retrieving a transaction's publicKey",
  "user": {
    "login": "kss-espeo",
    "id": 50660061,
    "node_id": "MDQ6VXNlcjUwNjYwMDYx",
    "avatar_url": "https://avatars.githubusercontent.com/u/50660061?v=4",
    "gravatar_id": "",
    "url": "https://api.github.com/users/kss-espeo",
    "html_url": "https://github.com/kss-espeo",
    "followers_url": "https://api.github.com/users/kss-espeo/followers",
    "following_url": "https://api.github.com/users/kss-espeo/following{/other_user}",
    "gists_url": "https://api.github.com/users/kss-espeo/gists{/gist_id}",
    "starred_url": "https://api.github.com/users/kss-espeo/starred{/owner}{/repo}",
    "subscriptions_url": "https://api.github.com/users/kss-espeo/subscriptions",
    "organizations_url": "https://api.github.com/users/kss-espeo/orgs",
    "repos_url": "https://api.github.com/users/kss-espeo/repos",
    "events_url": "https://api.github.com/users/kss-espeo/events{/privacy}",
    "received_events_url": "https://api.github.com/users/kss-espeo/received_events",
    "type": "User",
    "site_admin": false
  },
  "labels": [

  ],
  "state": "closed",
  "locked": false,
  "assignee": null,
  "assignees": [

  ],
  "milestone": null,
  "comments": 8,
  "created_at": "2021-01-14T15:49:14Z",
  "updated_at": "2021-01-28T08:58:25Z",
  "closed_at": "2021-01-28T08:58:25Z",
  "author_association": "NONE",
  "active_lock_reason": null,
  "body": "Hi!\r\n\r\nI am developing an application that used Parity node as its integration point with Ethereum Classic. However, after Thanos hardfork it has become deprecated, so now I'm considering to use HL Besu node. For context - my application pulls data from the blockchain in order to do anti-money-laundering analysis on it.\r\n\r\nI need to be able to retrieve a `publicKey` of a transaction. In Parity, `publicKey` was a part of response of `eth_getTransactionByHash` . In HL Besu it is not. \r\n\r\nIn theory, I should be able to extract `publicKey` from the transaction signature, but in order to do that I would need to first construct  an `unsigned raw transaction` . It would be possible to do this if `eth_getTransactionByHash` returned transactions `raw` data, but it does not. An alternative way to do that would be just recreating a raw transaction from scratch - however `eth_getTransactionByHash` result is missing one field necessary to do that, namely transaction's `gasLimit` .\r\n\r\nMy question is:\r\n\r\nIs there another way to retrieve a public key of a transaction using HL Besu interface?\r\nIf not - is there a way to retrieve transaction's `raw` or `gasLimit` so that I can construct an unsigned raw transaction myself?\r\nIf an answer to both questions is \"no\" - would it be possible to implement that?",
  "closed_by": {
    "login": "kss-espeo",
    "id": 50660061,
    "node_id": "MDQ6VXNlcjUwNjYwMDYx",
    "avatar_url": "https://avatars.githubusercontent.com/u/50660061?v=4",
    "gravatar_id": "",
    "url": "https://api.github.com/users/kss-espeo",
    "html_url": "https://github.com/kss-espeo",
    "followers_url": "https://api.github.com/users/kss-espeo/followers",
    "following_url": "https://api.github.com/users/kss-espeo/following{/other_user}",
    "gists_url": "https://api.github.com/users/kss-espeo/gists{/gist_id}",
    "starred_url": "https://api.github.com/users/kss-espeo/starred{/owner}{/repo}",
    "subscriptions_url": "https://api.github.com/users/kss-espeo/subscriptions",
    "organizations_url": "https://api.github.com/users/kss-espeo/orgs",
    "repos_url": "https://api.github.com/users/kss-espeo/repos",
    "events_url": "https://api.github.com/users/kss-espeo/events{/privacy}",
    "received_events_url": "https://api.github.com/users/kss-espeo/received_events",
    "type": "User",
    "site_admin": false
  },
  "reactions": {
    "url": "https://api.github.com/repos/hyperledger/besu/issues/1802/reactions",
    "total_count": 0,
    "+1": 0,
    "-1": 0,
    "laugh": 0,
    "hooray": 0,
    "confused": 0,
    "heart": 0,
    "rocket": 0,
    "eyes": 0
  },
  "timeline_url": "https://api.github.com/repos/hyperledger/besu/issues/1802/timeline",
  "performed_via_github_app": null,
  "state_reason": "completed"
}
[
  {
    "url": "https://api.github.com/repos/hyperledger/besu/issues/comments/767344218",
    "html_url": "https://github.com/hyperledger/besu/issues/1802#issuecomment-767344218",
    "issue_url": "https://api.github.com/repos/hyperledger/besu/issues/1802",
    "id": 767344218,
    "node_id": "MDEyOklzc3VlQ29tbWVudDc2NzM0NDIxOA==",
    "user": {
      "login": "MadelineMurray",
      "id": 43356962,
      "node_id": "MDQ6VXNlcjQzMzU2OTYy",
      "avatar_url": "https://avatars.githubusercontent.com/u/43356962?v=4",
      "gravatar_id": "",
      "url": "https://api.github.com/users/MadelineMurray",
      "html_url": "https://github.com/MadelineMurray",
      "followers_url": "https://api.github.com/users/MadelineMurray/followers",
      "following_url": "https://api.github.com/users/MadelineMurray/following{/other_user}",
      "gists_url": "https://api.github.com/users/MadelineMurray/gists{/gist_id}",
      "starred_url": "https://api.github.com/users/MadelineMurray/starred{/owner}{/repo}",
      "subscriptions_url": "https://api.github.com/users/MadelineMurray/subscriptions",
      "organizations_url": "https://api.github.com/users/MadelineMurray/orgs",
      "repos_url": "https://api.github.com/users/MadelineMurray/repos",
      "events_url": "https://api.github.com/users/MadelineMurray/events{/privacy}",
      "received_events_url": "https://api.github.com/users/MadelineMurray/received_events",
      "type": "User",
      "site_admin": false
    },
    "created_at": "2021-01-26T06:56:23Z",
    "updated_at": "2021-01-26T06:56:23Z",
    "author_association": "CONTRIBUTOR",
    "body": "hi @kss-espeo - following up on an answer to this. ",
    "reactions": {
      "url": "https://api.github.com/repos/hyperledger/besu/issues/comments/767344218/reactions",
      "total_count": 0,
      "+1": 0,
      "-1": 0,
      "laugh": 0,
      "hooray": 0,
      "confused": 0,
      "heart": 0,
      "rocket": 0,
      "eyes": 0
    },
    "performed_via_github_app": null
  },
  {
    "url": "https://api.github.com/repos/hyperledger/besu/issues/comments/767552626",
    "html_url": "https://github.com/hyperledger/besu/issues/1802#issuecomment-767552626",
    "issue_url": "https://api.github.com/repos/hyperledger/besu/issues/1802",
    "id": 767552626,
    "node_id": "MDEyOklzc3VlQ29tbWVudDc2NzU1MjYyNg==",
    "user": {
      "login": "shemnon",
      "id": 38109,
      "node_id": "MDQ6VXNlcjM4MTA5",
      "avatar_url": "https://avatars.githubusercontent.com/u/38109?v=4",
      "gravatar_id": "",
      "url": "https://api.github.com/users/shemnon",
      "html_url": "https://github.com/shemnon",
      "followers_url": "https://api.github.com/users/shemnon/followers",
      "following_url": "https://api.github.com/users/shemnon/following{/other_user}",
      "gists_url": "https://api.github.com/users/shemnon/gists{/gist_id}",
      "starred_url": "https://api.github.com/users/shemnon/starred{/owner}{/repo}",
      "subscriptions_url": "https://api.github.com/users/shemnon/subscriptions",
      "organizations_url": "https://api.github.com/users/shemnon/orgs",
      "repos_url": "https://api.github.com/users/shemnon/repos",
      "events_url": "https://api.github.com/users/shemnon/events{/privacy}",
      "received_events_url": "https://api.github.com/users/shemnon/received_events",
      "type": "User",
      "site_admin": false
    },
    "created_at": "2021-01-26T13:49:24Z",
    "updated_at": "2021-01-26T13:49:24Z",
    "author_association": "MEMBER",
    "body": "(a) The gasLimit is the `gas` field in the transaction result.  So all the fields are present.\r\n(b) the GraphQL endpoint has the sender and receiver address.\r\n\r\nAlso, san you post a sample parity request/response?  If we add it I want to make sure we get all additional fields parity does.",
    "reactions": {
      "url": "https://api.github.com/repos/hyperledger/besu/issues/comments/767552626/reactions",
      "total_count": 0,
      "+1": 0,
      "-1": 0,
      "laugh": 0,
      "hooray": 0,
      "confused": 0,
      "heart": 0,
      "rocket": 0,
      "eyes": 0
    },
    "performed_via_github_app": null
  },
  {
    "url": "https://api.github.com/repos/hyperledger/besu/issues/comments/767569733",
    "html_url": "https://github.com/hyperledger/besu/issues/1802#issuecomment-767569733",
    "issue_url": "https://api.github.com/repos/hyperledger/besu/issues/1802",
    "id": 767569733,
    "node_id": "MDEyOklzc3VlQ29tbWVudDc2NzU2OTczMw==",
    "user": {
      "login": "shemnon",
      "id": 38109,
      "node_id": "MDQ6VXNlcjM4MTA5",
      "avatar_url": "https://avatars.githubusercontent.com/u/38109?v=4",
      "gravatar_id": "",
      "url": "https://api.github.com/users/shemnon",
      "html_url": "https://github.com/shemnon",
      "followers_url": "https://api.github.com/users/shemnon/followers",
      "following_url": "https://api.github.com/users/shemnon/following{/other_user}",
      "gists_url": "https://api.github.com/users/shemnon/gists{/gist_id}",
      "starred_url": "https://api.github.com/users/shemnon/starred{/owner}{/repo}",
      "subscriptions_url": "https://api.github.com/users/shemnon/subscriptions",
      "organizations_url": "https://api.github.com/users/shemnon/orgs",
      "repos_url": "https://api.github.com/users/shemnon/repos",
      "events_url": "https://api.github.com/users/shemnon/events{/privacy}",
      "received_events_url": "https://api.github.com/users/shemnon/received_events",
      "type": "User",
      "site_admin": false
    },
    "created_at": "2021-01-26T14:16:37Z",
    "updated_at": "2021-01-26T14:16:37Z",
    "author_association": "MEMBER",
    "body": "Other than `publicKey` and `raw`, which new fields add value?\r\n\r\nOne I see value in are `chainId`, even though it can be calculated from v. \r\n\r\nI don't think `condition`,`creates`, and `standardV` add much value.\r\n\r\n```\r\n{\r\n    \"jsonrpc\": \"2.0\",\r\n    \"result\": {\r\n        \"blockHash\": \"0x937d8b7cbd5a59632819c9c1786add67fb99dd333b6109cebdde9035645bee73\",\r\n        \"blockNumber\": \"0x18ddcb\",\r\n        \"chainId\": \"0x5\",\r\n        \"condition\": null,\r\n        \"creates\": null,\r\n        \"from\": \"0x21d7acbcaea5dd43e28c41b37a1296d6aaa4d912\",\r\n        \"gas\": \"0x4c4b40\",\r\n        \"gasPrice\": \"0x77359400\",\r\n        \"hash\": \"0xbe06ecee8be176ea39944b53d11298d20feb847528c79b99c9a96d10b3c15cd0\",\r\n        \"input\": \"0xf2f038770000000000000000000000000000000000000000000000000000000000009f255a5951b5b857fd5bfeb11ceaf62ae64785912532e725d7942418013c5a6e9633\",\r\n        \"nonce\": \"0x17bd\",\r\n        \"publicKey\": \"0x84432ffb6548942e646aebab21956e80758379a0a38a2996c28ac22683a97ca4a91aaed949b0ab661299a6e477e3c74c9cbd51d0e43532fe9917bb0a40f4df76\",\r\n        \"r\": \"0xf82f36b229c58f50133af4af83c2000159d1e04f805a35277365dac619e560d6\",\r\n        \"raw\": \"0xf8ab8217bd8477359400834c4b4094b0346ba3d87d6e2915bfb121eb4e5042953eae4080b844f2f038770000000000000000000000000000000000000000000000000000000000009f255a5951b5b857fd5bfeb11ceaf62ae64785912532e725d7942418013c5a6e96332ea0f82f36b229c58f50133af4af83c2000159d1e04f805a35277365dac619e560d6a034768159648d1efcff66fb39d8ba1b58e3cbd522a344cfb219fe2af007ae9218\",\r\n        \"s\": \"0x34768159648d1efcff66fb39d8ba1b58e3cbd522a344cfb219fe2af007ae9218\",\r\n        \"standardV\": \"0x1\",\r\n        \"to\": \"0xb0346ba3d87d6e2915bfb121eb4e5042953eae40\",\r\n        \"transactionIndex\": \"0x4\",\r\n        \"v\": \"0x2e\",\r\n        \"value\": \"0x0\"\r\n    },\r\n    \"id\": 1\r\n}\r\n```",
    "reactions": {
      "url": "https://api.github.com/repos/hyperledger/besu/issues/comments/767569733/reactions",
      "total_count": 0,
      "+1": 0,
      "-1": 0,
      "laugh": 0,
      "hooray": 0,
      "confused": 0,
      "heart": 0,
      "rocket": 0,
      "eyes": 0
    },
    "performed_via_github_app": null
  },
  {
    "url": "https://api.github.com/repos/hyperledger/besu/issues/comments/767579701",
    "html_url": "https://github.com/hyperledger/besu/issues/1802#issuecomment-767579701",
    "issue_url": "https://api.github.com/repos/hyperledger/besu/issues/1802",
    "id": 767579701,
    "node_id": "MDEyOklzc3VlQ29tbWVudDc2NzU3OTcwMQ==",
    "user": {
      "login": "kss-espeo",
      "id": 50660061,
      "node_id": "MDQ6VXNlcjUwNjYwMDYx",
      "avatar_url": "https://avatars.githubusercontent.com/u/50660061?v=4",
      "gravatar_id": "",
      "url": "https://api.github.com/users/kss-espeo",
      "html_url": "https://github.com/kss-espeo",
      "followers_url": "https://api.github.com/users/kss-espeo/followers",
      "following_url": "https://api.github.com/users/kss-espeo/following{/other_user}",
      "gists_url": "https://api.github.com/users/kss-espeo/gists{/gist_id}",
      "starred_url": "https://api.github.com/users/kss-espeo/starred{/owner}{/repo}",
      "subscriptions_url": "https://api.github.com/users/kss-espeo/subscriptions",
      "organizations_url": "https://api.github.com/users/kss-espeo/orgs",
      "repos_url": "https://api.github.com/users/kss-espeo/repos",
      "events_url": "https://api.github.com/users/kss-espeo/events{/privacy}",
      "received_events_url": "https://api.github.com/users/kss-espeo/received_events",
      "type": "User",
      "site_admin": false
    },
    "created_at": "2021-01-26T14:31:43Z",
    "updated_at": "2021-01-26T14:31:43Z",
    "author_association": "NONE",
    "body": "Cool, I thought `gas` is gas spent, and not the limit. It's a little misleading IMO, but it seems to be the same for other nodes so I guess that's the standard name. In such case I should have enough information to be able to derive `publicKey` from the signature data. Thanks!\r\n\r\nAs for usefulness of missing Parity params - I agree with @shemnon - mostly `raw` and `publicKey` are useful. `chainId` would be nice. `condition` and `creates` seem to be only useful in specific cases that I do not have experience with.",
    "reactions": {
      "url": "https://api.github.com/repos/hyperledger/besu/issues/comments/767579701/reactions",
      "total_count": 0,
      "+1": 0,
      "-1": 0,
      "laugh": 0,
      "hooray": 0,
      "confused": 0,
      "heart": 0,
      "rocket": 0,
      "eyes": 0
    },
    "performed_via_github_app": null
  },
  {
    "url": "https://api.github.com/repos/hyperledger/besu/issues/comments/767581048",
    "html_url": "https://github.com/hyperledger/besu/issues/1802#issuecomment-767581048",
    "issue_url": "https://api.github.com/repos/hyperledger/besu/issues/1802",
    "id": 767581048,
    "node_id": "MDEyOklzc3VlQ29tbWVudDc2NzU4MTA0OA==",
    "user": {
      "login": "kss-espeo",
      "id": 50660061,
      "node_id": "MDQ6VXNlcjUwNjYwMDYx",
      "avatar_url": "https://avatars.githubusercontent.com/u/50660061?v=4",
      "gravatar_id": "",
      "url": "https://api.github.com/users/kss-espeo",
      "html_url": "https://github.com/kss-espeo",
      "followers_url": "https://api.github.com/users/kss-espeo/followers",
      "following_url": "https://api.github.com/users/kss-espeo/following{/other_user}",
      "gists_url": "https://api.github.com/users/kss-espeo/gists{/gist_id}",
      "starred_url": "https://api.github.com/users/kss-espeo/starred{/owner}{/repo}",
      "subscriptions_url": "https://api.github.com/users/kss-espeo/subscriptions",
      "organizations_url": "https://api.github.com/users/kss-espeo/orgs",
      "repos_url": "https://api.github.com/users/kss-espeo/repos",
      "events_url": "https://api.github.com/users/kss-espeo/events{/privacy}",
      "received_events_url": "https://api.github.com/users/kss-espeo/received_events",
      "type": "User",
      "site_admin": false
    },
    "created_at": "2021-01-26T14:33:49Z",
    "updated_at": "2021-01-26T14:33:49Z",
    "author_association": "NONE",
    "body": "Request:\r\n```\r\n{\r\n    \"jsonrpc\": \"2.0\",\r\n    \"method\": \"eth_getTransactionByHash\",\r\n    \"params\": [\r\n        \"0xf69056cec90aaeb8e6dc0e5a39651bea913613631c94cefe78b1f66acb51eb73\"\r\n    ],\r\n    \"id\": 1\r\n}\r\n```\r\nHL Besu response:\r\n```\r\n{\r\n    \"jsonrpc\": \"2.0\",\r\n    \"id\": 1,\r\n    \"result\": {\r\n        \"blockHash\": \"0x9a1ac989ae7a94eeda90227e1455afe20d5b8be26ed527304bd2b241413e31ae\",\r\n        \"blockNumber\": \"0x87a23\",\r\n        \"from\": \"0x2a65aca4d5fc5b5c859090a6c34d164135398226\",\r\n        \"gas\": \"0x15f90\",\r\n        \"gasPrice\": \"0xba43b7400\",\r\n        \"hash\": \"0xf69056cec90aaeb8e6dc0e5a39651bea913613631c94cefe78b1f66acb51eb73\",\r\n        \"input\": \"0x\",\r\n        \"nonce\": \"0x7aef\",\r\n        \"to\": \"0xdca73e49c84ea80a22eae8925d4590bfadd1fc50\",\r\n        \"transactionIndex\": \"0x1\",\r\n        \"value\": \"0x12e34f6ededc5400\",\r\n        \"v\": \"0x1c\",\r\n        \"r\": \"0x748997c0d3f360ebbe04e5e9c895ad8f72ebdb4ecbf75a40a7e1b99c66a9b290\",\r\n        \"s\": \"0x2a3baccc365f3800c10070992fbd0eb351a3d23e2ef3a6bd0780ee0607b1eb18\"\r\n    }\r\n}\r\n```\r\nParity response:\r\n```\r\n{\r\n    \"jsonrpc\": \"2.0\",\r\n    \"result\": {\r\n        \"blockHash\": \"0x9a1ac989ae7a94eeda90227e1455afe20d5b8be26ed527304bd2b241413e31ae\",\r\n        \"blockNumber\": \"0x87a23\",\r\n        \"chainId\": null,\r\n        \"condition\": null,\r\n        \"creates\": null,\r\n        \"from\": \"0x2a65aca4d5fc5b5c859090a6c34d164135398226\",\r\n        \"gas\": \"0x15f90\",\r\n        \"gasPrice\": \"0xba43b7400\",\r\n        \"hash\": \"0xf69056cec90aaeb8e6dc0e5a39651bea913613631c94cefe78b1f66acb51eb73\",\r\n        \"input\": \"0x\",\r\n        \"nonce\": \"0x7aef\",\r\n        \"publicKey\": \"0x4c3eb5e19c71d8245eaaaba21ef8f94a70e9250848d10ade086f893a7a33a06d7063590e9e6ca88f918d7704840d903298fe802b6047fa7f6d09603eba690c39\",\r\n        \"r\": \"0x748997c0d3f360ebbe04e5e9c895ad8f72ebdb4ecbf75a40a7e1b99c66a9b290\",\r\n        \"raw\": \"0xf86f827aef850ba43b740083015f9094dca73e49c84ea80a22eae8925d4590bfadd1fc508812e34f6ededc5400801ca0748997c0d3f360ebbe04e5e9c895ad8f72ebdb4ecbf75a40a7e1b99c66a9b290a02a3baccc365f3800c10070992fbd0eb351a3d23e2ef3a6bd0780ee0607b1eb18\",\r\n        \"s\": \"0x2a3baccc365f3800c10070992fbd0eb351a3d23e2ef3a6bd0780ee0607b1eb18\",\r\n        \"standardV\": \"0x1\",\r\n        \"to\": \"0xdca73e49c84ea80a22eae8925d4590bfadd1fc50\",\r\n        \"transactionIndex\": \"0x1\",\r\n        \"v\": \"0x1c\",\r\n        \"value\": \"0x12e34f6ededc5400\"\r\n    },\r\n    \"id\": 1\r\n}\r\n```",
    "reactions": {
      "url": "https://api.github.com/repos/hyperledger/besu/issues/comments/767581048/reactions",
      "total_count": 0,
      "+1": 0,
      "-1": 0,
      "laugh": 0,
      "hooray": 0,
      "confused": 0,
      "heart": 0,
      "rocket": 0,
      "eyes": 0
    },
    "performed_via_github_app": null
  },
  {
    "url": "https://api.github.com/repos/hyperledger/besu/issues/comments/767598539",
    "html_url": "https://github.com/hyperledger/besu/issues/1802#issuecomment-767598539",
    "issue_url": "https://api.github.com/repos/hyperledger/besu/issues/1802",
    "id": 767598539,
    "node_id": "MDEyOklzc3VlQ29tbWVudDc2NzU5ODUzOQ==",
    "user": {
      "login": "shemnon",
      "id": 38109,
      "node_id": "MDQ6VXNlcjM4MTA5",
      "avatar_url": "https://avatars.githubusercontent.com/u/38109?v=4",
      "gravatar_id": "",
      "url": "https://api.github.com/users/shemnon",
      "html_url": "https://github.com/shemnon",
      "followers_url": "https://api.github.com/users/shemnon/followers",
      "following_url": "https://api.github.com/users/shemnon/following{/other_user}",
      "gists_url": "https://api.github.com/users/shemnon/gists{/gist_id}",
      "starred_url": "https://api.github.com/users/shemnon/starred{/owner}{/repo}",
      "subscriptions_url": "https://api.github.com/users/shemnon/subscriptions",
      "organizations_url": "https://api.github.com/users/shemnon/orgs",
      "repos_url": "https://api.github.com/users/shemnon/repos",
      "events_url": "https://api.github.com/users/shemnon/events{/privacy}",
      "received_events_url": "https://api.github.com/users/shemnon/received_events",
      "type": "User",
      "site_admin": false
    },
    "created_at": "2021-01-26T14:56:11Z",
    "updated_at": "2021-01-26T14:56:11Z",
    "author_association": "MEMBER",
    "body": "gas spent is always on the receipt, as it is a function of the transaction and the world state, hence the block.\r\n\r\nI'll add `chainId`, `publicKey`, and `raw`.  We will get these int he whole `eth_getTransaction*` series.",
    "reactions": {
      "url": "https://api.github.com/repos/hyperledger/besu/issues/comments/767598539/reactions",
      "total_count": 2,
      "+1": 0,
      "-1": 0,
      "laugh": 0,
      "hooray": 0,
      "confused": 0,
      "heart": 0,
      "rocket": 2,
      "eyes": 0
    },
    "performed_via_github_app": null
  },
  {
    "url": "https://api.github.com/repos/hyperledger/besu/issues/comments/768115790",
    "html_url": "https://github.com/hyperledger/besu/issues/1802#issuecomment-768115790",
    "issue_url": "https://api.github.com/repos/hyperledger/besu/issues/1802",
    "id": 768115790,
    "node_id": "MDEyOklzc3VlQ29tbWVudDc2ODExNTc5MA==",
    "user": {
      "login": "kss-espeo",
      "id": 50660061,
      "node_id": "MDQ6VXNlcjUwNjYwMDYx",
      "avatar_url": "https://avatars.githubusercontent.com/u/50660061?v=4",
      "gravatar_id": "",
      "url": "https://api.github.com/users/kss-espeo",
      "html_url": "https://github.com/kss-espeo",
      "followers_url": "https://api.github.com/users/kss-espeo/followers",
      "following_url": "https://api.github.com/users/kss-espeo/following{/other_user}",
      "gists_url": "https://api.github.com/users/kss-espeo/gists{/gist_id}",
      "starred_url": "https://api.github.com/users/kss-espeo/starred{/owner}{/repo}",
      "subscriptions_url": "https://api.github.com/users/kss-espeo/subscriptions",
      "organizations_url": "https://api.github.com/users/kss-espeo/orgs",
      "repos_url": "https://api.github.com/users/kss-espeo/repos",
      "events_url": "https://api.github.com/users/kss-espeo/events{/privacy}",
      "received_events_url": "https://api.github.com/users/kss-espeo/received_events",
      "type": "User",
      "site_admin": false
    },
    "created_at": "2021-01-27T08:17:03Z",
    "updated_at": "2021-01-27T08:39:50Z",
    "author_association": "NONE",
    "body": "Thanks @shemnon . Is it too early to ask for a rough timeline on this?\r\n\r\nEdit: I can see this is already in master. You guys are moving fast ;) . When this is going to be released?",
    "reactions": {
      "url": "https://api.github.com/repos/hyperledger/besu/issues/comments/768115790/reactions",
      "total_count": 0,
      "+1": 0,
      "-1": 0,
      "laugh": 0,
      "hooray": 0,
      "confused": 0,
      "heart": 0,
      "rocket": 0,
      "eyes": 0
    },
    "performed_via_github_app": null
  },
  {
    "url": "https://api.github.com/repos/hyperledger/besu/issues/comments/768903504",
    "html_url": "https://github.com/hyperledger/besu/issues/1802#issuecomment-768903504",
    "issue_url": "https://api.github.com/repos/hyperledger/besu/issues/1802",
    "id": 768903504,
    "node_id": "MDEyOklzc3VlQ29tbWVudDc2ODkwMzUwNA==",
    "user": {
      "login": "kss-espeo",
      "id": 50660061,
      "node_id": "MDQ6VXNlcjUwNjYwMDYx",
      "avatar_url": "https://avatars.githubusercontent.com/u/50660061?v=4",
      "gravatar_id": "",
      "url": "https://api.github.com/users/kss-espeo",
      "html_url": "https://github.com/kss-espeo",
      "followers_url": "https://api.github.com/users/kss-espeo/followers",
      "following_url": "https://api.github.com/users/kss-espeo/following{/other_user}",
      "gists_url": "https://api.github.com/users/kss-espeo/gists{/gist_id}",
      "starred_url": "https://api.github.com/users/kss-espeo/starred{/owner}{/repo}",
      "subscriptions_url": "https://api.github.com/users/kss-espeo/subscriptions",
      "organizations_url": "https://api.github.com/users/kss-espeo/orgs",
      "repos_url": "https://api.github.com/users/kss-espeo/repos",
      "events_url": "https://api.github.com/users/kss-espeo/events{/privacy}",
      "received_events_url": "https://api.github.com/users/kss-espeo/received_events",
      "type": "User",
      "site_admin": false
    },
    "created_at": "2021-01-28T08:58:25Z",
    "updated_at": "2021-01-28T08:58:25Z",
    "author_association": "NONE",
    "body": "Ok, I think this is in `21.1.0-RC1` . Closing.\r\n\r\nThanks!",
    "reactions": {
      "url": "https://api.github.com/repos/hyperledger/besu/issues/comments/768903504/reactions",
      "total_count": 0,
      "+1": 0,
      "-1": 0,
      "laugh": 0,
      "hooray": 0,
      "confused": 0,
      "heart": 0,
      "rocket": 0,
      "eyes": 0
    },
    "performed_via_github_app": null
  }
]
