{
  "url": "https://api.github.com/repos/hyperledger/besu/issues/2777",
  "repository_url": "https://api.github.com/repos/hyperledger/besu",
  "labels_url": "https://api.github.com/repos/hyperledger/besu/issues/2777/labels{/name}",
  "comments_url": "https://api.github.com/repos/hyperledger/besu/issues/2777/comments",
  "events_url": "https://api.github.com/repos/hyperledger/besu/issues/2777/events",
  "html_url": "https://github.com/hyperledger/besu/issues/2777",
  "id": 999196835,
  "node_id": "I_kwDODE2jmc47joij",
  "number": 2777,
  "title": "ibft: Invalid block header: timestamp 1619660141 is only 3 seconds newer than parent timestamp 1619660138. Minimum 4 seconds",
  "user": {
    "login": "helderjnpinto",
    "id": 12281088,
    "node_id": "MDQ6VXNlcjEyMjgxMDg4",
    "avatar_url": "https://avatars.githubusercontent.com/u/12281088?v=4",
    "gravatar_id": "",
    "url": "https://api.github.com/users/helderjnpinto",
    "html_url": "https://github.com/helderjnpinto",
    "followers_url": "https://api.github.com/users/helderjnpinto/followers",
    "following_url": "https://api.github.com/users/helderjnpinto/following{/other_user}",
    "gists_url": "https://api.github.com/users/helderjnpinto/gists{/gist_id}",
    "starred_url": "https://api.github.com/users/helderjnpinto/starred{/owner}{/repo}",
    "subscriptions_url": "https://api.github.com/users/helderjnpinto/subscriptions",
    "organizations_url": "https://api.github.com/users/helderjnpinto/orgs",
    "repos_url": "https://api.github.com/users/helderjnpinto/repos",
    "events_url": "https://api.github.com/users/helderjnpinto/events{/privacy}",
    "received_events_url": "https://api.github.com/users/helderjnpinto/received_events",
    "type": "User",
    "site_admin": false
  },
  "labels": [
    {
      "id": 1537362490,
      "node_id": "MDU6TGFiZWwxNTM3MzYyNDkw",
      "url": "https://api.github.com/repos/hyperledger/besu/labels/bug",
      "name": "bug",
      "color": "d73a4a",
      "default": true,
      "description": "Something isn't working"
    },
    {
      "id": 1921587647,
      "node_id": "MDU6TGFiZWwxOTIxNTg3NjQ3",
      "url": "https://api.github.com/repos/hyperledger/besu/labels/TeamGroot",
      "name": "TeamGroot",
      "color": "1d76db",
      "default": false,
      "description": "GH issues worked on by Groot Team"
    },
    {
      "id": 2051683248,
      "node_id": "MDU6TGFiZWwyMDUxNjgzMjQ4",
      "url": "https://api.github.com/repos/hyperledger/besu/labels/P2",
      "name": "P2",
      "color": "ff9900",
      "default": false,
      "description": "High (ex: Degrading performance issues, unexpected behavior of core features (DevP2P, syncing, etc))"
    },
    {
      "id": 3372112640,
      "node_id": "MDU6TGFiZWwzMzcyMTEyNjQw",
      "url": "https://api.github.com/repos/hyperledger/besu/labels/consensus",
      "name": "consensus",
      "color": "7A9730",
      "default": false,
      "description": ""
    }
  ],
  "state": "closed",
  "locked": false,
  "assignee": {
    "login": "jframe",
    "id": 909467,
    "node_id": "MDQ6VXNlcjkwOTQ2Nw==",
    "avatar_url": "https://avatars.githubusercontent.com/u/909467?v=4",
    "gravatar_id": "",
    "url": "https://api.github.com/users/jframe",
    "html_url": "https://github.com/jframe",
    "followers_url": "https://api.github.com/users/jframe/followers",
    "following_url": "https://api.github.com/users/jframe/following{/other_user}",
    "gists_url": "https://api.github.com/users/jframe/gists{/gist_id}",
    "starred_url": "https://api.github.com/users/jframe/starred{/owner}{/repo}",
    "subscriptions_url": "https://api.github.com/users/jframe/subscriptions",
    "organizations_url": "https://api.github.com/users/jframe/orgs",
    "repos_url": "https://api.github.com/users/jframe/repos",
    "events_url": "https://api.github.com/users/jframe/events{/privacy}",
    "received_events_url": "https://api.github.com/users/jframe/received_events",
    "type": "User",
    "site_admin": false
  },
  "assignees": [
    {
      "login": "jframe",
      "id": 909467,
      "node_id": "MDQ6VXNlcjkwOTQ2Nw==",
      "avatar_url": "https://avatars.githubusercontent.com/u/909467?v=4",
      "gravatar_id": "",
      "url": "https://api.github.com/users/jframe",
      "html_url": "https://github.com/jframe",
      "followers_url": "https://api.github.com/users/jframe/followers",
      "following_url": "https://api.github.com/users/jframe/following{/other_user}",
      "gists_url": "https://api.github.com/users/jframe/gists{/gist_id}",
      "starred_url": "https://api.github.com/users/jframe/starred{/owner}{/repo}",
      "subscriptions_url": "https://api.github.com/users/jframe/subscriptions",
      "organizations_url": "https://api.github.com/users/jframe/orgs",
      "repos_url": "https://api.github.com/users/jframe/repos",
      "events_url": "https://api.github.com/users/jframe/events{/privacy}",
      "received_events_url": "https://api.github.com/users/jframe/received_events",
      "type": "User",
      "site_admin": false
    }
  ],
  "milestone": null,
  "comments": 12,
  "created_at": "2021-09-17T10:25:37Z",
  "updated_at": "2021-11-01T07:58:49Z",
  "closed_at": "2021-11-01T07:58:49Z",
  "author_association": "CONTRIBUTOR",
  "active_lock_reason": null,
  "body": "<!-- Have you done the following? -->\r\nHi, i need some help to find a issue. so to summarize i had a client IBFT with custom hardfork the blockchain as been work with version 1.4 for quite some time and recently i upgraded to version 21.1.3 of besu. \r\nAll works fine but recently i started a new node and importing the current blockchain. By problem here is this:\r\n\r\n`11:35:41.821+00:00 | EthScheduler-Workers-3 | INFO | TimestampMoreRecentThanParent | Invalid block header: timestamp 1619660141 is only 3 seconds newer than parent timestamp 1619660138. Minimum 4 seconds\r\n2021-09-16 11:35:41.821+00:00 | EthScheduler-Workers-3 | DEBUG | GetBlockFromPeerTask | Downloading block 0xadbe5ff60e90a91ddb4d5e7d3864954eb7eb54b6a04fe0e5d93e2567dde0a6a6 from peer 0x5e4dcaa4d15b2b386b....\r\n2021-09-16 11:35:41.821+00:00 | EthScheduler-Workers-3 | DEBUG | GetHeadersFromPeerByHashTask | Requesting 1 headers from peer 0x5e4dcaa4d15b2b386b....`\r\n\r\nThe network mined a block in 3 seconds now i cannot sync from 0 block.\r\n\"Invalid block header: timestamp 1619660141 is only 3 seconds newer than parent timestamp 1619660138. Minimum 4 seconds\"\r\n\r\nIn debug mode the validation is hit here: \r\n![image](https://user-images.githubusercontent.com/12281088/133765393-269ce0c0-531f-4fb3-b29d-20b3920fb737.png)\r\n\r\n### Description\r\nAs a developer i need to know how i can solve this, what any tools we have to fix this issue.\r\n\r\n### Acceptance Criteria\r\nBlocks need to be mined with 4s and not 3s\r\n\r\n### Versions (Add all that apply)\r\n* Software version: [`besu --version`]\r\n21.1.3\r\n* Java version: [`java -version`] \r\nopenjdk version \"13.0.2\" 2020-01-14\r\nOpenJDK Runtime Environment AdoptOpenJDK (build 13.0.2+8)\r\nEclipse OpenJ9 VM AdoptOpenJDK (build openj9-0.18.0, JRE 13 Linux amd64-64-Bit Compressed References 20200117_151 (JIT enabled, AOT enabled)\r\nOpenJ9   - 6968c18d7\r\nOMR      - 7a1b0239a\r\nJCL      - 9c5a41bd5f based on jdk-13.0.2+8)\r\n\r\n* OS Name & Version: [`cat /etc/*release`]\r\nDISTRIB_ID=Ubuntu\r\nDISTRIB_RELEASE=20.04\r\nDISTRIB_CODENAME=focal\r\nDISTRIB_DESCRIPTION=\"Ubuntu 20.04.3 LTS\"\r\nNAME=\"Ubuntu\"\r\nVERSION=\"20.04.3 LTS (Focal Fossa)\"\r\nID=ubuntu\r\nID_LIKE=debian\r\nPRETTY_NAME=\"Ubuntu 20.04.3 LTS\"\r\nVERSION_ID=\"20.04\"\r\nHOME_URL=\"https://www.ubuntu.com/\"\r\nSUPPORT_URL=\"https://help.ubuntu.com/\"\r\nBUG_REPORT_URL=\"https://bugs.launchpad.net/ubuntu/\"\r\nPRIVACY_POLICY_URL=\"https://www.ubuntu.com/legal/terms-and-policies/privacy-policy\"\r\nVERSION_CODENAME=focal\r\nUBUNTU_CODENAME=focal\r\n\r\n\r\n### Additional Information\r\n\r\n\r\n\r\nblock: 1419661\r\n\r\nhash: 0xadbe5ff60e90a91ddb4d5e7d3864954eb7eb54b6a04fe0e5d93e2567dde0a6a6\r\n\r\ntimestamp: 1619660141\r\n\r\n{\r\n\r\n\"jsonrpc\": \"2.0\",\r\n\r\n\"id\": 1,\r\n\r\n\"result\": {\r\n\r\n\"number\": \"0x15a98d\",\r\n\r\n\"hash\": \"0xadbe5ff60e90a91ddb4d5e7d3864954eb7eb54b6a04fe0e5d93e2567dde0a6a6\",\r\n\r\n\"mixHash\": \"0x63746963616c2062797a616e74696e65206661756c7420746f6c6572616e6365\",\r\n\r\n\"parentHash\": \"0xd5a4f1a6953283b9c8dd1f4e1f6eca7109b5a1b64332af6213feebc9b5b45c4b\",\r\n\r\n\"nonce\": \"0x0000000000000000\",\r\n\r\n\"sha3Uncles\": \"0x1dcc4de8dec75d7aab85b567b6ccd41ad312451b948a7413f0a142fd40d49347\",\r\n\r\n\"logsBloom\": \"0x00000000000000000000000000000000000000000000000000000000000000000000000000000000000000000000000000000000000000000000000000000000000000000000000000000000000000000000000000000000000000000000000000000000000000000000000000000000000000000000000000000000000000000000000000000000000000000000000000000000000000000000000000000000000000000000000000000000000000000000000000000000000000000000000000000000000000000000000000000000000000000000000000000000000000000000000000000000000000000000000000000000000000000000000000000000\",\r\n\r\n\"transactionsRoot\": \"0x56e81f171bcc55a6ff8345e692c0f86e5b48e01b996cadc001622fb5e363b421\",\r\n\r\n\"stateRoot\": \"0xb721553f8f0bd31881a223405ff24037bbbf851dd6362fbc37ef96a40f8a51ea\",\r\n\r\n\"receiptsRoot\": \"0x56e81f171bcc55a6ff8345e692c0f86e5b48e01b996cadc001622fb5e363b421\",\r\n\r\n\"miner\": \"0x3a6c955f61a3b44306591c64cd222d227af0d8d2\",\r\n\r\n\"difficulty\": \"0x1\",\r\n\r\n\"totalDifficulty\": \"0x15a98e\",\r\n\r\n\"extraData\": \"0xf90148a00000000000000000000000000000000000000000000000000000000000000000f854943a6c955f61a3b44306591c64cd222d227af0d8d294b27882d2f4f881863af1e747a240fec26a7bda7c94e2e3868c7232446eca668d9249c90f4e4135234c94f2084fcf38580f43433f15189095f6957ebd5d51808400000000f8c9b8418995e7dd96d1080428970257c412ba26b30ae5faf9a059a9482b2f538c346d4e2cb10b9ba02605f9990da2409db5e28ae508d7318d023bdd90bc21deace5f81500b8412d44479745b11b19fa5c54bdc678586e24f40304cb6df69ca843532fa282f4fd39781d5a3546f19173fee2bee674f6c5bc861ff66f8368b3dc9ffde6558ada2d00b8413b03c1a2adf94515ba2d5aff53ec41c752e7505f507ff797ddcfb8e3d6e5edb5768d2b2c4eadfe75595deff8df31f78e2f41bdf3dc0c62bdc193fac22294d0a101\",\r\n\r\n\"size\": \"0x34c\",\r\n\r\n\"gasLimit\": \"0x989680\",\r\n\r\n\"gasUsed\": \"0x0\",\r\n\r\n\"timestamp\": \"0x608a0d6d\",\r\n\r\n\"uncles\": \\[\\],\r\n\r\n\"transactions\": \\[\\]\r\n\r\n}\r\n\r\n}\r\n\r\nparent block: 1419660\r\n\r\nhash: 0xd5a4f1a6953283b9c8dd1f4e1f6eca7109b5a1b64332af6213feebc9b5b45c4b\r\n\r\ntimestamp: 1619660138\r\n\r\n{\r\n\r\n\"jsonrpc\": \"2.0\",\r\n\r\n\"id\": 1,\r\n\r\n\"result\": {\r\n\r\n\"number\": \"0x15a98c\",\r\n\r\n\"hash\": \"0xd5a4f1a6953283b9c8dd1f4e1f6eca7109b5a1b64332af6213feebc9b5b45c4b\",\r\n\r\n\"mixHash\": \"0x63746963616c2062797a616e74696e65206661756c7420746f6c6572616e6365\",\r\n\r\n\"parentHash\": \"0x5f6b3cc63fb43b29f77b5af462e605b1a399ea91a90222122eff6df52b9d0774\",\r\n\r\n\"nonce\": \"0x0000000000000000\",\r\n\r\n\"sha3Uncles\": \"0x1dcc4de8dec75d7aab85b567b6ccd41ad312451b948a7413f0a142fd40d49347\",\r\n\r\n\"logsBloom\": \"0x00000000000000000000000000000000000000000000000000000000000000000000000000000000000000000000000000000000000000000000000000000000000000000000000000000000000000000000000000000000000000000000000000000000000000000000000000000000000000000000000000000000000000000000000000000000000000000000000000000000000000000000000000000000000000000000000000000000000000000000000000000000000000000000000000000000000000000000000000000000000000000000000000000000000000000000000000000000000000000000000000000000000000000000000000000000\",\r\n\r\n\"transactionsRoot\": \"0x56e81f171bcc55a6ff8345e692c0f86e5b48e01b996cadc001622fb5e363b421\",\r\n\r\n\"stateRoot\": \"0xb721553f8f0bd31881a223405ff24037bbbf851dd6362fbc37ef96a40f8a51ea\",\r\n\r\n\"receiptsRoot\": \"0x56e81f171bcc55a6ff8345e692c0f86e5b48e01b996cadc001622fb5e363b421\",\r\n\r\n\"miner\": \"0xf2084fcf38580f43433f15189095f6957ebd5d51\",\r\n\r\n\"difficulty\": \"0x1\",\r\n\r\n\"totalDifficulty\": \"0x15a98d\",\r\n\r\n\"extraData\": \"0xf90148a00000000000000000000000000000000000000000000000000000000000000000f854943a6c955f61a3b44306591c64cd222d227af0d8d294b27882d2f4f881863af1e747a240fec26a7bda7c94e2e3868c7232446eca668d9249c90f4e4135234c94f2084fcf38580f43433f15189095f6957ebd5d51808400000001f8c9b8414ca41882a32213b7ccf62a6a5d95ef048e21a799e3278bddae7688ac3728762d6dd374377e27164dbe9fd41e4edab7aef5b8980f4903f82634c8bd57235dfdb700b8410a3bd5ce69aad22b6f70aae33fa97e4c6015a1717672fe50fcecef8d8f02e14d29e49910133bf48d2ae5ee4bf74db182004e1d0f71628ddf91b5fae7da21097000b841fc0c35a43f649e364f1c3ae8ac9825e54128f38c8464c7052b3ff8e18f18db815a9ab965cbd087b34eebbe20c8355a1a2720b2f086381933e9a3f8daf487347b01\",\r\n\r\n\"size\": \"0x34c\",\r\n\r\n\"gasLimit\": \"0x989680\",\r\n\r\n\"gasUsed\": \"0x0\",\r\n\r\n\"timestamp\": \"0x608a0d6a\",\r\n\r\n\"uncles\": \\[\\],\r\n\r\n\"transactions\": \\[\\]\r\n\r\n}\r\n\r\n}\r\n",
  "closed_by": {
    "login": "jframe",
    "id": 909467,
    "node_id": "MDQ6VXNlcjkwOTQ2Nw==",
    "avatar_url": "https://avatars.githubusercontent.com/u/909467?v=4",
    "gravatar_id": "",
    "url": "https://api.github.com/users/jframe",
    "html_url": "https://github.com/jframe",
    "followers_url": "https://api.github.com/users/jframe/followers",
    "following_url": "https://api.github.com/users/jframe/following{/other_user}",
    "gists_url": "https://api.github.com/users/jframe/gists{/gist_id}",
    "starred_url": "https://api.github.com/users/jframe/starred{/owner}{/repo}",
    "subscriptions_url": "https://api.github.com/users/jframe/subscriptions",
    "organizations_url": "https://api.github.com/users/jframe/orgs",
    "repos_url": "https://api.github.com/users/jframe/repos",
    "events_url": "https://api.github.com/users/jframe/events{/privacy}",
    "received_events_url": "https://api.github.com/users/jframe/received_events",
    "type": "User",
    "site_admin": false
  },
  "reactions": {
    "url": "https://api.github.com/repos/hyperledger/besu/issues/2777/reactions",
    "total_count": 0,
    "+1": 0,
    "-1": 0,
    "laugh": 0,
    "hooray": 0,
    "confused": 0,
    "heart": 0,
    "rocket": 0,
    "eyes": 0
  },
  "timeline_url": "https://api.github.com/repos/hyperledger/besu/issues/2777/timeline",
  "performed_via_github_app": null,
  "state_reason": "completed"
}
[
  {
    "url": "https://api.github.com/repos/hyperledger/besu/issues/comments/922581991",
    "html_url": "https://github.com/hyperledger/besu/issues/2777#issuecomment-922581991",
    "issue_url": "https://api.github.com/repos/hyperledger/besu/issues/2777",
    "id": 922581991,
    "node_id": "IC_kwDODE2jmc42_Xvn",
    "user": {
      "login": "macfarla",
      "id": 2627919,
      "node_id": "MDQ6VXNlcjI2Mjc5MTk=",
      "avatar_url": "https://avatars.githubusercontent.com/u/2627919?v=4",
      "gravatar_id": "",
      "url": "https://api.github.com/users/macfarla",
      "html_url": "https://github.com/macfarla",
      "followers_url": "https://api.github.com/users/macfarla/followers",
      "following_url": "https://api.github.com/users/macfarla/following{/other_user}",
      "gists_url": "https://api.github.com/users/macfarla/gists{/gist_id}",
      "starred_url": "https://api.github.com/users/macfarla/starred{/owner}{/repo}",
      "subscriptions_url": "https://api.github.com/users/macfarla/subscriptions",
      "organizations_url": "https://api.github.com/users/macfarla/orgs",
      "repos_url": "https://api.github.com/users/macfarla/repos",
      "events_url": "https://api.github.com/users/macfarla/events{/privacy}",
      "received_events_url": "https://api.github.com/users/macfarla/received_events",
      "type": "User",
      "site_admin": false
    },
    "created_at": "2021-09-20T01:15:46Z",
    "updated_at": "2021-09-20T01:15:46Z",
    "author_association": "CONTRIBUTOR",
    "body": "The `Minimum 4 seconds` value comes from the blockperiodseconds value in the genesis. Recommend modifying this value to suit your environment.  https://besu.hyperledger.org/en/stable/HowTo/Configure/Consensus-Protocols/Clique/#genesis-file",
    "reactions": {
      "url": "https://api.github.com/repos/hyperledger/besu/issues/comments/922581991/reactions",
      "total_count": 0,
      "+1": 0,
      "-1": 0,
      "laugh": 0,
      "hooray": 0,
      "confused": 0,
      "heart": 0,
      "rocket": 0,
      "eyes": 0
    },
    "performed_via_github_app": null
  },
  {
    "url": "https://api.github.com/repos/hyperledger/besu/issues/comments/922758489",
    "html_url": "https://github.com/hyperledger/besu/issues/2777#issuecomment-922758489",
    "issue_url": "https://api.github.com/repos/hyperledger/besu/issues/2777",
    "id": 922758489,
    "node_id": "IC_kwDODE2jmc43AC1Z",
    "user": {
      "login": "helderjnpinto",
      "id": 12281088,
      "node_id": "MDQ6VXNlcjEyMjgxMDg4",
      "avatar_url": "https://avatars.githubusercontent.com/u/12281088?v=4",
      "gravatar_id": "",
      "url": "https://api.github.com/users/helderjnpinto",
      "html_url": "https://github.com/helderjnpinto",
      "followers_url": "https://api.github.com/users/helderjnpinto/followers",
      "following_url": "https://api.github.com/users/helderjnpinto/following{/other_user}",
      "gists_url": "https://api.github.com/users/helderjnpinto/gists{/gist_id}",
      "starred_url": "https://api.github.com/users/helderjnpinto/starred{/owner}{/repo}",
      "subscriptions_url": "https://api.github.com/users/helderjnpinto/subscriptions",
      "organizations_url": "https://api.github.com/users/helderjnpinto/orgs",
      "repos_url": "https://api.github.com/users/helderjnpinto/repos",
      "events_url": "https://api.github.com/users/helderjnpinto/events{/privacy}",
      "received_events_url": "https://api.github.com/users/helderjnpinto/received_events",
      "type": "User",
      "site_admin": false
    },
    "created_at": "2021-09-20T09:18:23Z",
    "updated_at": "2021-09-20T09:18:23Z",
    "author_association": "CONTRIBUTOR",
    "body": "> The `Minimum 4 seconds` value comes from the blockperiodseconds value in the genesis. Recommend modifying this value to suit your environment. https://besu.hyperledger.org/en/stable/HowTo/Configure/Consensus-Protocols/Clique/#genesis-file\r\n\r\n@macfarla @bgravenorst The suggestion is to put genesis with 3 seconds ??? i don't want that",
    "reactions": {
      "url": "https://api.github.com/repos/hyperledger/besu/issues/comments/922758489/reactions",
      "total_count": 0,
      "+1": 0,
      "-1": 0,
      "laugh": 0,
      "hooray": 0,
      "confused": 0,
      "heart": 0,
      "rocket": 0,
      "eyes": 0
    },
    "performed_via_github_app": null
  },
  {
    "url": "https://api.github.com/repos/hyperledger/besu/issues/comments/922803059",
    "html_url": "https://github.com/hyperledger/besu/issues/2777#issuecomment-922803059",
    "issue_url": "https://api.github.com/repos/hyperledger/besu/issues/2777",
    "id": 922803059,
    "node_id": "IC_kwDODE2jmc43ANtz",
    "user": {
      "login": "vmichalik",
      "id": 12459761,
      "node_id": "MDQ6VXNlcjEyNDU5NzYx",
      "avatar_url": "https://avatars.githubusercontent.com/u/12459761?v=4",
      "gravatar_id": "",
      "url": "https://api.github.com/users/vmichalik",
      "html_url": "https://github.com/vmichalik",
      "followers_url": "https://api.github.com/users/vmichalik/followers",
      "following_url": "https://api.github.com/users/vmichalik/following{/other_user}",
      "gists_url": "https://api.github.com/users/vmichalik/gists{/gist_id}",
      "starred_url": "https://api.github.com/users/vmichalik/starred{/owner}{/repo}",
      "subscriptions_url": "https://api.github.com/users/vmichalik/subscriptions",
      "organizations_url": "https://api.github.com/users/vmichalik/orgs",
      "repos_url": "https://api.github.com/users/vmichalik/repos",
      "events_url": "https://api.github.com/users/vmichalik/events{/privacy}",
      "received_events_url": "https://api.github.com/users/vmichalik/received_events",
      "type": "User",
      "site_admin": false
    },
    "created_at": "2021-09-20T10:29:31Z",
    "updated_at": "2021-09-20T10:29:31Z",
    "author_association": "NONE",
    "body": "Hi Helder, The issue arises because your genesis file includes a rule for validating blocks - that they must have a blocktime of minimum 4 seconds, but the chain you are importing has blocks with only 3 seconds between them. \r\nYou can't increase blocktime, since this renders previous blocks invalid. Let us know if this is unclear to you from the documentation or if you expect a different result! If not, I'll go ahead and close this ticket.\r\n",
    "reactions": {
      "url": "https://api.github.com/repos/hyperledger/besu/issues/comments/922803059/reactions",
      "total_count": 0,
      "+1": 0,
      "-1": 0,
      "laugh": 0,
      "hooray": 0,
      "confused": 0,
      "heart": 0,
      "rocket": 0,
      "eyes": 0
    },
    "performed_via_github_app": null
  },
  {
    "url": "https://api.github.com/repos/hyperledger/besu/issues/comments/922829890",
    "html_url": "https://github.com/hyperledger/besu/issues/2777#issuecomment-922829890",
    "issue_url": "https://api.github.com/repos/hyperledger/besu/issues/2777",
    "id": 922829890,
    "node_id": "IC_kwDODE2jmc43AURC",
    "user": {
      "login": "helderjnpinto",
      "id": 12281088,
      "node_id": "MDQ6VXNlcjEyMjgxMDg4",
      "avatar_url": "https://avatars.githubusercontent.com/u/12281088?v=4",
      "gravatar_id": "",
      "url": "https://api.github.com/users/helderjnpinto",
      "html_url": "https://github.com/helderjnpinto",
      "followers_url": "https://api.github.com/users/helderjnpinto/followers",
      "following_url": "https://api.github.com/users/helderjnpinto/following{/other_user}",
      "gists_url": "https://api.github.com/users/helderjnpinto/gists{/gist_id}",
      "starred_url": "https://api.github.com/users/helderjnpinto/starred{/owner}{/repo}",
      "subscriptions_url": "https://api.github.com/users/helderjnpinto/subscriptions",
      "organizations_url": "https://api.github.com/users/helderjnpinto/orgs",
      "repos_url": "https://api.github.com/users/helderjnpinto/repos",
      "events_url": "https://api.github.com/users/helderjnpinto/events{/privacy}",
      "received_events_url": "https://api.github.com/users/helderjnpinto/received_events",
      "type": "User",
      "site_admin": false
    },
    "created_at": "2021-09-20T11:07:23Z",
    "updated_at": "2021-09-20T11:07:23Z",
    "author_association": "CONTRIBUTOR",
    "body": "> Hi Helder, The issue arises because your genesis file includes a rule for validating blocks - that they must have a blocktime of minimum 4 seconds, but the chain you are importing has blocks with only 3 seconds between them.\r\n> You can't increase blocktime, since this renders previous blocks invalid. Let us know if this is unclear to you from the documentation or if you expect a different result! If not, I'll go ahead and close this ticket.\r\n\r\n@vmichalik I know that i can't change the genesis but how i fix this issue?\r\nAnd i notice the old client don't have this rules for header validation. \r\n(old client)\r\n![image](https://user-images.githubusercontent.com/12281088/133992469-29f8d71c-2110-4d9b-bc22-996b31da14f2.png)\r\n\r\n\r\nSo my genesis file is the same as other older blocks nothing change only my upgrade of besu from 1.40 to 21.1.3. With the older version i can import the blockchain but with the new i can't. \r\n\r\nWhy is the reason for create one block in less than 3 seconds and other validators accepted?? exist any issue with difference in timestamps ?\r\n\r\nAnd how i resolve this problem?",
    "reactions": {
      "url": "https://api.github.com/repos/hyperledger/besu/issues/comments/922829890/reactions",
      "total_count": 0,
      "+1": 0,
      "-1": 0,
      "laugh": 0,
      "hooray": 0,
      "confused": 0,
      "heart": 0,
      "rocket": 0,
      "eyes": 0
    },
    "performed_via_github_app": null
  },
  {
    "url": "https://api.github.com/repos/hyperledger/besu/issues/comments/923637351",
    "html_url": "https://github.com/hyperledger/besu/issues/2777#issuecomment-923637351",
    "issue_url": "https://api.github.com/repos/hyperledger/besu/issues/2777",
    "id": 923637351,
    "node_id": "IC_kwDODE2jmc43DZZn",
    "user": {
      "login": "jframe",
      "id": 909467,
      "node_id": "MDQ6VXNlcjkwOTQ2Nw==",
      "avatar_url": "https://avatars.githubusercontent.com/u/909467?v=4",
      "gravatar_id": "",
      "url": "https://api.github.com/users/jframe",
      "html_url": "https://github.com/jframe",
      "followers_url": "https://api.github.com/users/jframe/followers",
      "following_url": "https://api.github.com/users/jframe/following{/other_user}",
      "gists_url": "https://api.github.com/users/jframe/gists{/gist_id}",
      "starred_url": "https://api.github.com/users/jframe/starred{/owner}{/repo}",
      "subscriptions_url": "https://api.github.com/users/jframe/subscriptions",
      "organizations_url": "https://api.github.com/users/jframe/orgs",
      "repos_url": "https://api.github.com/users/jframe/repos",
      "events_url": "https://api.github.com/users/jframe/events{/privacy}",
      "received_events_url": "https://api.github.com/users/jframe/received_events",
      "type": "User",
      "site_admin": false
    },
    "created_at": "2021-09-21T05:24:35Z",
    "updated_at": "2021-09-21T05:24:35Z",
    "author_association": "CONTRIBUTOR",
    "body": "Hi @helderjnpinto, \r\nI've been able to reproduce the issue locally and am working on a fix for it.\r\n\r\nWe have always had this header validation in IBFT. What's interesting is that even though blocks are created with a time difference of less than the block period they aren't rejected as being invalid at the time they are created.",
    "reactions": {
      "url": "https://api.github.com/repos/hyperledger/besu/issues/comments/923637351/reactions",
      "total_count": 0,
      "+1": 0,
      "-1": 0,
      "laugh": 0,
      "hooray": 0,
      "confused": 0,
      "heart": 0,
      "rocket": 0,
      "eyes": 0
    },
    "performed_via_github_app": null
  },
  {
    "url": "https://api.github.com/repos/hyperledger/besu/issues/comments/923892089",
    "html_url": "https://github.com/hyperledger/besu/issues/2777#issuecomment-923892089",
    "issue_url": "https://api.github.com/repos/hyperledger/besu/issues/2777",
    "id": 923892089,
    "node_id": "IC_kwDODE2jmc43EXl5",
    "user": {
      "login": "helderjnpinto",
      "id": 12281088,
      "node_id": "MDQ6VXNlcjEyMjgxMDg4",
      "avatar_url": "https://avatars.githubusercontent.com/u/12281088?v=4",
      "gravatar_id": "",
      "url": "https://api.github.com/users/helderjnpinto",
      "html_url": "https://github.com/helderjnpinto",
      "followers_url": "https://api.github.com/users/helderjnpinto/followers",
      "following_url": "https://api.github.com/users/helderjnpinto/following{/other_user}",
      "gists_url": "https://api.github.com/users/helderjnpinto/gists{/gist_id}",
      "starred_url": "https://api.github.com/users/helderjnpinto/starred{/owner}{/repo}",
      "subscriptions_url": "https://api.github.com/users/helderjnpinto/subscriptions",
      "organizations_url": "https://api.github.com/users/helderjnpinto/orgs",
      "repos_url": "https://api.github.com/users/helderjnpinto/repos",
      "events_url": "https://api.github.com/users/helderjnpinto/events{/privacy}",
      "received_events_url": "https://api.github.com/users/helderjnpinto/received_events",
      "type": "User",
      "site_admin": false
    },
    "created_at": "2021-09-21T11:30:21Z",
    "updated_at": "2021-09-21T11:30:21Z",
    "author_association": "CONTRIBUTOR",
    "body": "Ok cool @jframe. I will wait for news thanks.",
    "reactions": {
      "url": "https://api.github.com/repos/hyperledger/besu/issues/comments/923892089/reactions",
      "total_count": 0,
      "+1": 0,
      "-1": 0,
      "laugh": 0,
      "hooray": 0,
      "confused": 0,
      "heart": 0,
      "rocket": 0,
      "eyes": 0
    },
    "performed_via_github_app": null
  },
  {
    "url": "https://api.github.com/repos/hyperledger/besu/issues/comments/927616242",
    "html_url": "https://github.com/hyperledger/besu/issues/2777#issuecomment-927616242",
    "issue_url": "https://api.github.com/repos/hyperledger/besu/issues/2777",
    "id": 927616242,
    "node_id": "IC_kwDODE2jmc43Skzy",
    "user": {
      "login": "vmichalik",
      "id": 12459761,
      "node_id": "MDQ6VXNlcjEyNDU5NzYx",
      "avatar_url": "https://avatars.githubusercontent.com/u/12459761?v=4",
      "gravatar_id": "",
      "url": "https://api.github.com/users/vmichalik",
      "html_url": "https://github.com/vmichalik",
      "followers_url": "https://api.github.com/users/vmichalik/followers",
      "following_url": "https://api.github.com/users/vmichalik/following{/other_user}",
      "gists_url": "https://api.github.com/users/vmichalik/gists{/gist_id}",
      "starred_url": "https://api.github.com/users/vmichalik/starred{/owner}{/repo}",
      "subscriptions_url": "https://api.github.com/users/vmichalik/subscriptions",
      "organizations_url": "https://api.github.com/users/vmichalik/orgs",
      "repos_url": "https://api.github.com/users/vmichalik/repos",
      "events_url": "https://api.github.com/users/vmichalik/events{/privacy}",
      "received_events_url": "https://api.github.com/users/vmichalik/received_events",
      "type": "User",
      "site_admin": false
    },
    "created_at": "2021-09-27T07:46:37Z",
    "updated_at": "2021-09-27T07:46:37Z",
    "author_association": "NONE",
    "body": "Hey @helderjnpinto, we have a potential solution we are testing and hope to push for your review in the latter half of next week",
    "reactions": {
      "url": "https://api.github.com/repos/hyperledger/besu/issues/comments/927616242/reactions",
      "total_count": 0,
      "+1": 0,
      "-1": 0,
      "laugh": 0,
      "hooray": 0,
      "confused": 0,
      "heart": 0,
      "rocket": 0,
      "eyes": 0
    },
    "performed_via_github_app": null
  },
  {
    "url": "https://api.github.com/repos/hyperledger/besu/issues/comments/931081481",
    "html_url": "https://github.com/hyperledger/besu/issues/2777#issuecomment-931081481",
    "issue_url": "https://api.github.com/repos/hyperledger/besu/issues/2777",
    "id": 931081481,
    "node_id": "IC_kwDODE2jmc43fy0J",
    "user": {
      "login": "helderjnpinto",
      "id": 12281088,
      "node_id": "MDQ6VXNlcjEyMjgxMDg4",
      "avatar_url": "https://avatars.githubusercontent.com/u/12281088?v=4",
      "gravatar_id": "",
      "url": "https://api.github.com/users/helderjnpinto",
      "html_url": "https://github.com/helderjnpinto",
      "followers_url": "https://api.github.com/users/helderjnpinto/followers",
      "following_url": "https://api.github.com/users/helderjnpinto/following{/other_user}",
      "gists_url": "https://api.github.com/users/helderjnpinto/gists{/gist_id}",
      "starred_url": "https://api.github.com/users/helderjnpinto/starred{/owner}{/repo}",
      "subscriptions_url": "https://api.github.com/users/helderjnpinto/subscriptions",
      "organizations_url": "https://api.github.com/users/helderjnpinto/orgs",
      "repos_url": "https://api.github.com/users/helderjnpinto/repos",
      "events_url": "https://api.github.com/users/helderjnpinto/events{/privacy}",
      "received_events_url": "https://api.github.com/users/helderjnpinto/received_events",
      "type": "User",
      "site_admin": false
    },
    "created_at": "2021-09-30T08:58:07Z",
    "updated_at": "2021-09-30T08:58:07Z",
    "author_association": "CONTRIBUTOR",
    "body": "> Hey @helderjnpinto, we have a potential solution we are testing and hope to push for your review in the latter half of next week\r\n\r\nSure i will test when it's here. Thanks!",
    "reactions": {
      "url": "https://api.github.com/repos/hyperledger/besu/issues/comments/931081481/reactions",
      "total_count": 0,
      "+1": 0,
      "-1": 0,
      "laugh": 0,
      "hooray": 0,
      "confused": 0,
      "heart": 0,
      "rocket": 0,
      "eyes": 0
    },
    "performed_via_github_app": null
  },
  {
    "url": "https://api.github.com/repos/hyperledger/besu/issues/comments/937611296",
    "html_url": "https://github.com/hyperledger/besu/issues/2777#issuecomment-937611296",
    "issue_url": "https://api.github.com/repos/hyperledger/besu/issues/2777",
    "id": 937611296,
    "node_id": "IC_kwDODE2jmc434tAg",
    "user": {
      "login": "helderjnpinto",
      "id": 12281088,
      "node_id": "MDQ6VXNlcjEyMjgxMDg4",
      "avatar_url": "https://avatars.githubusercontent.com/u/12281088?v=4",
      "gravatar_id": "",
      "url": "https://api.github.com/users/helderjnpinto",
      "html_url": "https://github.com/helderjnpinto",
      "followers_url": "https://api.github.com/users/helderjnpinto/followers",
      "following_url": "https://api.github.com/users/helderjnpinto/following{/other_user}",
      "gists_url": "https://api.github.com/users/helderjnpinto/gists{/gist_id}",
      "starred_url": "https://api.github.com/users/helderjnpinto/starred{/owner}{/repo}",
      "subscriptions_url": "https://api.github.com/users/helderjnpinto/subscriptions",
      "organizations_url": "https://api.github.com/users/helderjnpinto/orgs",
      "repos_url": "https://api.github.com/users/helderjnpinto/repos",
      "events_url": "https://api.github.com/users/helderjnpinto/events{/privacy}",
      "received_events_url": "https://api.github.com/users/helderjnpinto/received_events",
      "type": "User",
      "site_admin": false
    },
    "created_at": "2021-10-07T09:21:05Z",
    "updated_at": "2021-10-07T09:21:05Z",
    "author_association": "CONTRIBUTOR",
    "body": "@jframe any news ?",
    "reactions": {
      "url": "https://api.github.com/repos/hyperledger/besu/issues/comments/937611296/reactions",
      "total_count": 0,
      "+1": 0,
      "-1": 0,
      "laugh": 0,
      "hooray": 0,
      "confused": 0,
      "heart": 0,
      "rocket": 0,
      "eyes": 0
    },
    "performed_via_github_app": null
  },
  {
    "url": "https://api.github.com/repos/hyperledger/besu/issues/comments/938422376",
    "html_url": "https://github.com/hyperledger/besu/issues/2777#issuecomment-938422376",
    "issue_url": "https://api.github.com/repos/hyperledger/besu/issues/2777",
    "id": 938422376,
    "node_id": "IC_kwDODE2jmc437zBo",
    "user": {
      "login": "jframe",
      "id": 909467,
      "node_id": "MDQ6VXNlcjkwOTQ2Nw==",
      "avatar_url": "https://avatars.githubusercontent.com/u/909467?v=4",
      "gravatar_id": "",
      "url": "https://api.github.com/users/jframe",
      "html_url": "https://github.com/jframe",
      "followers_url": "https://api.github.com/users/jframe/followers",
      "following_url": "https://api.github.com/users/jframe/following{/other_user}",
      "gists_url": "https://api.github.com/users/jframe/gists{/gist_id}",
      "starred_url": "https://api.github.com/users/jframe/starred{/owner}{/repo}",
      "subscriptions_url": "https://api.github.com/users/jframe/subscriptions",
      "organizations_url": "https://api.github.com/users/jframe/orgs",
      "repos_url": "https://api.github.com/users/jframe/repos",
      "events_url": "https://api.github.com/users/jframe/events{/privacy}",
      "received_events_url": "https://api.github.com/users/jframe/received_events",
      "type": "User",
      "site_admin": false
    },
    "created_at": "2021-10-08T07:47:38Z",
    "updated_at": "2021-10-08T07:47:38Z",
    "author_association": "CONTRIBUTOR",
    "body": "hey @helderjnpinto,\r\n\r\nWe have worked out what the underlying issues were. Blocks can on occasion be created too early due to the timer returning too early in some cases. This is largely mitigated in the latest version of Besu by how we determine the block header timestamp.\r\n\r\nThere is also a bug in the version of Besu you are using which causes the IBFT2 header validation for the block period to not validate the block timestamp correctly which is why those blocks are being allowed to be added to the chain. This bug is not present in the latest version of Besu.\r\n\r\nThe solution to fix this and allow for upgrading to the new version with an IBFT2 chain that has incorrect block header timestamps is to\r\n- Decrease the existing block period in the IBFT2 config to a lower value that satisfies the block header validation. In your case that would be to reduce the block period to 3s.\r\n- Allow for changing the block period using a transition #2797 so the original block period can be used for new blocks.\r\n\r\nOnce #2797 is complete it will be possible for you to upgrade your IBFT2 chain to the latest version of Besu.\r\n",
    "reactions": {
      "url": "https://api.github.com/repos/hyperledger/besu/issues/comments/938422376/reactions",
      "total_count": 0,
      "+1": 0,
      "-1": 0,
      "laugh": 0,
      "hooray": 0,
      "confused": 0,
      "heart": 0,
      "rocket": 0,
      "eyes": 0
    },
    "performed_via_github_app": null
  },
  {
    "url": "https://api.github.com/repos/hyperledger/besu/issues/comments/946385568",
    "html_url": "https://github.com/hyperledger/besu/issues/2777#issuecomment-946385568",
    "issue_url": "https://api.github.com/repos/hyperledger/besu/issues/2777",
    "id": 946385568,
    "node_id": "IC_kwDODE2jmc44aLKg",
    "user": {
      "login": "jframe",
      "id": 909467,
      "node_id": "MDQ6VXNlcjkwOTQ2Nw==",
      "avatar_url": "https://avatars.githubusercontent.com/u/909467?v=4",
      "gravatar_id": "",
      "url": "https://api.github.com/users/jframe",
      "html_url": "https://github.com/jframe",
      "followers_url": "https://api.github.com/users/jframe/followers",
      "following_url": "https://api.github.com/users/jframe/following{/other_user}",
      "gists_url": "https://api.github.com/users/jframe/gists{/gist_id}",
      "starred_url": "https://api.github.com/users/jframe/starred{/owner}{/repo}",
      "subscriptions_url": "https://api.github.com/users/jframe/subscriptions",
      "organizations_url": "https://api.github.com/users/jframe/orgs",
      "repos_url": "https://api.github.com/users/jframe/repos",
      "events_url": "https://api.github.com/users/jframe/events{/privacy}",
      "received_events_url": "https://api.github.com/users/jframe/received_events",
      "type": "User",
      "site_admin": false
    },
    "created_at": "2021-10-19T05:46:01Z",
    "updated_at": "2021-10-19T05:46:01Z",
    "author_association": "CONTRIBUTOR",
    "body": "hi @helderjnpinto, The feature #2797 to allow changing the block period has been merged in the Besu main branch. If you comfortable testing the latest Besu build you try steps I mentioned above. Otherwise I can let you know when it has gone into a release.",
    "reactions": {
      "url": "https://api.github.com/repos/hyperledger/besu/issues/comments/946385568/reactions",
      "total_count": 0,
      "+1": 0,
      "-1": 0,
      "laugh": 0,
      "hooray": 0,
      "confused": 0,
      "heart": 0,
      "rocket": 0,
      "eyes": 0
    },
    "performed_via_github_app": null
  },
  {
    "url": "https://api.github.com/repos/hyperledger/besu/issues/comments/956011613",
    "html_url": "https://github.com/hyperledger/besu/issues/2777#issuecomment-956011613",
    "issue_url": "https://api.github.com/repos/hyperledger/besu/issues/2777",
    "id": 956011613,
    "node_id": "IC_kwDODE2jmc44-5Rd",
    "user": {
      "login": "jframe",
      "id": 909467,
      "node_id": "MDQ6VXNlcjkwOTQ2Nw==",
      "avatar_url": "https://avatars.githubusercontent.com/u/909467?v=4",
      "gravatar_id": "",
      "url": "https://api.github.com/users/jframe",
      "html_url": "https://github.com/jframe",
      "followers_url": "https://api.github.com/users/jframe/followers",
      "following_url": "https://api.github.com/users/jframe/following{/other_user}",
      "gists_url": "https://api.github.com/users/jframe/gists{/gist_id}",
      "starred_url": "https://api.github.com/users/jframe/starred{/owner}{/repo}",
      "subscriptions_url": "https://api.github.com/users/jframe/subscriptions",
      "organizations_url": "https://api.github.com/users/jframe/orgs",
      "repos_url": "https://api.github.com/users/jframe/repos",
      "events_url": "https://api.github.com/users/jframe/events{/privacy}",
      "received_events_url": "https://api.github.com/users/jframe/received_events",
      "type": "User",
      "site_admin": false
    },
    "created_at": "2021-11-01T07:58:49Z",
    "updated_at": "2021-11-01T07:58:49Z",
    "author_association": "CONTRIBUTOR",
    "body": "The feature for changing the block period will be included in the Besu 21.10.1 release.",
    "reactions": {
      "url": "https://api.github.com/repos/hyperledger/besu/issues/comments/956011613/reactions",
      "total_count": 0,
      "+1": 0,
      "-1": 0,
      "laugh": 0,
      "hooray": 0,
      "confused": 0,
      "heart": 0,
      "rocket": 0,
      "eyes": 0
    },
    "performed_via_github_app": null
  }
]
