{
  "url": "https://api.github.com/repos/hyperledger/besu/issues/4503",
  "repository_url": "https://api.github.com/repos/hyperledger/besu",
  "labels_url": "https://api.github.com/repos/hyperledger/besu/issues/4503/labels{/name}",
  "comments_url": "https://api.github.com/repos/hyperledger/besu/issues/4503/comments",
  "events_url": "https://api.github.com/repos/hyperledger/besu/issues/4503/events",
  "html_url": "https://github.com/hyperledger/besu/issues/4503",
  "id": 1402556669,
  "node_id": "I_kwDODE2jmc5TmVD9",
  "number": 4503,
  "title": "Should publicKey and raw fields be in eth_getBlockByNumber result",
  "user": {
    "login": "macfarla",
    "id": 2627919,
    "node_id": "MDQ6VXNlcjI2Mjc5MTk=",
    "avatar_url": "https://avatars.githubusercontent.com/u/2627919?v=4",
    "gravatar_id": "",
    "url": "https://api.github.com/users/macfarla",
    "html_url": "https://github.com/macfarla",
    "followers_url": "https://api.github.com/users/macfarla/followers",
    "following_url": "https://api.github.com/users/macfarla/following{/other_user}",
    "gists_url": "https://api.github.com/users/macfarla/gists{/gist_id}",
    "starred_url": "https://api.github.com/users/macfarla/starred{/owner}{/repo}",
    "subscriptions_url": "https://api.github.com/users/macfarla/subscriptions",
    "organizations_url": "https://api.github.com/users/macfarla/orgs",
    "repos_url": "https://api.github.com/users/macfarla/repos",
    "events_url": "https://api.github.com/users/macfarla/events{/privacy}",
    "received_events_url": "https://api.github.com/users/macfarla/received_events",
    "type": "User",
    "site_admin": false
  },
  "labels": [
    {
      "id": 2152224197,
      "node_id": "MDU6TGFiZWwyMTUyMjI0MTk3",
      "url": "https://api.github.com/repos/hyperledger/besu/labels/TeamRevenant",
      "name": "TeamRevenant",
      "color": "78e298",
      "default": false,
      "description": "GH issues worked on by Revenant Team"
    },
    {
      "id": 3013559202,
      "node_id": "MDU6TGFiZWwzMDEzNTU5MjAy",
      "url": "https://api.github.com/repos/hyperledger/besu/labels/mainnet",
      "name": "mainnet",
      "color": "9D578C",
      "default": false,
      "description": ""
    },
    {
      "id": 4609582991,
      "node_id": "LA_kwDODE2jmc8AAAABEsCnjw",
      "url": "https://api.github.com/repos/hyperledger/besu/labels/RPC",
      "name": "RPC",
      "color": "1d76db",
      "default": false,
      "description": ""
    }
  ],
  "state": "closed",
  "locked": false,
  "assignee": {
    "login": "mark-terry",
    "id": 36909937,
    "node_id": "MDQ6VXNlcjM2OTA5OTM3",
    "avatar_url": "https://avatars.githubusercontent.com/u/36909937?v=4",
    "gravatar_id": "",
    "url": "https://api.github.com/users/mark-terry",
    "html_url": "https://github.com/mark-terry",
    "followers_url": "https://api.github.com/users/mark-terry/followers",
    "following_url": "https://api.github.com/users/mark-terry/following{/other_user}",
    "gists_url": "https://api.github.com/users/mark-terry/gists{/gist_id}",
    "starred_url": "https://api.github.com/users/mark-terry/starred{/owner}{/repo}",
    "subscriptions_url": "https://api.github.com/users/mark-terry/subscriptions",
    "organizations_url": "https://api.github.com/users/mark-terry/orgs",
    "repos_url": "https://api.github.com/users/mark-terry/repos",
    "events_url": "https://api.github.com/users/mark-terry/events{/privacy}",
    "received_events_url": "https://api.github.com/users/mark-terry/received_events",
    "type": "User",
    "site_admin": false
  },
  "assignees": [
    {
      "login": "mark-terry",
      "id": 36909937,
      "node_id": "MDQ6VXNlcjM2OTA5OTM3",
      "avatar_url": "https://avatars.githubusercontent.com/u/36909937?v=4",
      "gravatar_id": "",
      "url": "https://api.github.com/users/mark-terry",
      "html_url": "https://github.com/mark-terry",
      "followers_url": "https://api.github.com/users/mark-terry/followers",
      "following_url": "https://api.github.com/users/mark-terry/following{/other_user}",
      "gists_url": "https://api.github.com/users/mark-terry/gists{/gist_id}",
      "starred_url": "https://api.github.com/users/mark-terry/starred{/owner}{/repo}",
      "subscriptions_url": "https://api.github.com/users/mark-terry/subscriptions",
      "organizations_url": "https://api.github.com/users/mark-terry/orgs",
      "repos_url": "https://api.github.com/users/mark-terry/repos",
      "events_url": "https://api.github.com/users/mark-terry/events{/privacy}",
      "received_events_url": "https://api.github.com/users/mark-terry/received_events",
      "type": "User",
      "site_admin": false
    }
  ],
  "milestone": null,
  "comments": 0,
  "created_at": "2022-10-10T03:55:56Z",
  "updated_at": "2022-11-07T11:52:33Z",
  "closed_at": "2022-11-07T11:52:33Z",
  "author_association": "CONTRIBUTOR",
  "active_lock_reason": null,
  "body": "See #4490 for more context\r\n\r\nGeth does not include these fields, however besu includes publicKey and raw fields in the \"transactions\" response for eth_getBlockByNumber/Hash\r\n* should they be included anyway - extra info\r\n* should any docs or spec need updating?\r\n* document why we include these extra fields\r\n```\r\n\t     \"transactions\": [\r\n       0: {\r\n         \"blockHash\": \"0x2ce0e9a8a0b33d45aeb70cf6878d2943deddcf6600e06b84546eaf0a0d2b9643\",\r\n         \"blockNumber\": \"0x1\",\r\n         \"chainId\": \"0x539\",\r\n         \"from\": \"0x658bdf435d810c91414ec09147daa6db62406379\",\r\n         \"gas\": \"0x5208\",\r\n         \"gasPrice\": \"0x342770c1\",\r\n         \"hash\": \"0x74e41d593675913d6d5521f46523f1bd396dff1891bdb35f59be47c7e5e0b34b\",\r\n         \"input\": \"0x\",\r\n         \"nonce\": \"0x0\",\r\n-        \"publicKey\": \"0xd9a872707aaec451b19445dd00c5ad619f36a0dcad5b035b03baf16849f719e806455742d05bf26ab4d0e715198709e0e7794c214ccde55731a9fbbd51edf2d8\",\r\n         \"r\": \"0xaf5fc351b9e457a31f37c84e5cd99dd3c5de60af3de33c6f4160177a2c786a60\",\r\n-        \"raw\": \"0xf8678084342770c182520894658bdf435d810c91414ec09147daa6db624063798203e880820a95a0af5fc351b9e457a31f37c84e5cd99dd3c5de60af3de33c6f4160177a2c786a60a0201da7a21046af55837330a2c52fc1543cd4d9ead00ddf178dd96935b607ff9b\",\r\n         \"s\": \"0x201da7a21046af55837330a2c52fc1543cd4d9ead00ddf178dd96935b607ff9b\",\r\n```",
  "closed_by": {
    "login": "mark-terry",
    "id": 36909937,
    "node_id": "MDQ6VXNlcjM2OTA5OTM3",
    "avatar_url": "https://avatars.githubusercontent.com/u/36909937?v=4",
    "gravatar_id": "",
    "url": "https://api.github.com/users/mark-terry",
    "html_url": "https://github.com/mark-terry",
    "followers_url": "https://api.github.com/users/mark-terry/followers",
    "following_url": "https://api.github.com/users/mark-terry/following{/other_user}",
    "gists_url": "https://api.github.com/users/mark-terry/gists{/gist_id}",
    "starred_url": "https://api.github.com/users/mark-terry/starred{/owner}{/repo}",
    "subscriptions_url": "https://api.github.com/users/mark-terry/subscriptions",
    "organizations_url": "https://api.github.com/users/mark-terry/orgs",
    "repos_url": "https://api.github.com/users/mark-terry/repos",
    "events_url": "https://api.github.com/users/mark-terry/events{/privacy}",
    "received_events_url": "https://api.github.com/users/mark-terry/received_events",
    "type": "User",
    "site_admin": false
  },
  "reactions": {
    "url": "https://api.github.com/repos/hyperledger/besu/issues/4503/reactions",
    "total_count": 0,
    "+1": 0,
    "-1": 0,
    "laugh": 0,
    "hooray": 0,
    "confused": 0,
    "heart": 0,
    "rocket": 0,
    "eyes": 0
  },
  "timeline_url": "https://api.github.com/repos/hyperledger/besu/issues/4503/timeline",
  "performed_via_github_app": null,
  "state_reason": "completed"
}
[

]
