{
  "url": "https://api.github.com/repos/hyperledger/besu/issues/5934",
  "repository_url": "https://api.github.com/repos/hyperledger/besu",
  "labels_url": "https://api.github.com/repos/hyperledger/besu/issues/5934/labels{/name}",
  "comments_url": "https://api.github.com/repos/hyperledger/besu/issues/5934/comments",
  "events_url": "https://api.github.com/repos/hyperledger/besu/issues/5934/events",
  "html_url": "https://github.com/hyperledger/besu/issues/5934",
  "id": 1911239415,
  "node_id": "I_kwDODE2jmc5x6zL3",
  "number": 5934,
  "title": "besu evmt8n daemon errors out on test data",
  "user": {
    "login": "winsvega",
    "id": 4492341,
    "node_id": "MDQ6VXNlcjQ0OTIzNDE=",
    "avatar_url": "https://avatars.githubusercontent.com/u/4492341?v=4",
    "gravatar_id": "",
    "url": "https://api.github.com/users/winsvega",
    "html_url": "https://github.com/winsvega",
    "followers_url": "https://api.github.com/users/winsvega/followers",
    "following_url": "https://api.github.com/users/winsvega/following{/other_user}",
    "gists_url": "https://api.github.com/users/winsvega/gists{/gist_id}",
    "starred_url": "https://api.github.com/users/winsvega/starred{/owner}{/repo}",
    "subscriptions_url": "https://api.github.com/users/winsvega/subscriptions",
    "organizations_url": "https://api.github.com/users/winsvega/orgs",
    "repos_url": "https://api.github.com/users/winsvega/repos",
    "events_url": "https://api.github.com/users/winsvega/events{/privacy}",
    "received_events_url": "https://api.github.com/users/winsvega/received_events",
    "type": "User",
    "site_admin": false
  },
  "labels": [
    {
      "id": 1810629110,
      "node_id": "MDU6TGFiZWwxODEwNjI5MTEw",
      "url": "https://api.github.com/repos/hyperledger/besu/labels/testing",
      "name": "testing",
      "color": "bfdadc",
      "default": false,
      "description": ""
    },
    {
      "id": 1921587647,
      "node_id": "MDU6TGFiZWwxOTIxNTg3NjQ3",
      "url": "https://api.github.com/repos/hyperledger/besu/labels/TeamGroot",
      "name": "TeamGroot",
      "color": "1d76db",
      "default": false,
      "description": "GH issues worked on by Groot Team"
    },
    {
      "id": 3013559202,
      "node_id": "MDU6TGFiZWwzMDEzNTU5MjAy",
      "url": "https://api.github.com/repos/hyperledger/besu/labels/mainnet",
      "name": "mainnet",
      "color": "9D578C",
      "default": false,
      "description": ""
    },
    {
      "id": 4328706977,
      "node_id": "LA_kwDODE2jmc8AAAABAgLToQ",
      "url": "https://api.github.com/repos/hyperledger/besu/labels/TeamChupa",
      "name": "TeamChupa",
      "color": "fbca04",
      "default": false,
      "description": "GH issues worked on by Chupacabara Team"
    },
    {
      "id": 5113384824,
      "node_id": "LA_kwDODE2jmc8AAAABMMgPeA",
      "url": "https://api.github.com/repos/hyperledger/besu/labels/bonsai",
      "name": "bonsai",
      "color": "0E8A16",
      "default": false,
      "description": ""
    }
  ],
  "state": "open",
  "locked": false,
  "assignee": {
    "login": "siladu",
    "id": 2893793,
    "node_id": "MDQ6VXNlcjI4OTM3OTM=",
    "avatar_url": "https://avatars.githubusercontent.com/u/2893793?v=4",
    "gravatar_id": "",
    "url": "https://api.github.com/users/siladu",
    "html_url": "https://github.com/siladu",
    "followers_url": "https://api.github.com/users/siladu/followers",
    "following_url": "https://api.github.com/users/siladu/following{/other_user}",
    "gists_url": "https://api.github.com/users/siladu/gists{/gist_id}",
    "starred_url": "https://api.github.com/users/siladu/starred{/owner}{/repo}",
    "subscriptions_url": "https://api.github.com/users/siladu/subscriptions",
    "organizations_url": "https://api.github.com/users/siladu/orgs",
    "repos_url": "https://api.github.com/users/siladu/repos",
    "events_url": "https://api.github.com/users/siladu/events{/privacy}",
    "received_events_url": "https://api.github.com/users/siladu/received_events",
    "type": "User",
    "site_admin": false
  },
  "assignees": [
    {
      "login": "siladu",
      "id": 2893793,
      "node_id": "MDQ6VXNlcjI4OTM3OTM=",
      "avatar_url": "https://avatars.githubusercontent.com/u/2893793?v=4",
      "gravatar_id": "",
      "url": "https://api.github.com/users/siladu",
      "html_url": "https://github.com/siladu",
      "followers_url": "https://api.github.com/users/siladu/followers",
      "following_url": "https://api.github.com/users/siladu/following{/other_user}",
      "gists_url": "https://api.github.com/users/siladu/gists{/gist_id}",
      "starred_url": "https://api.github.com/users/siladu/starred{/owner}{/repo}",
      "subscriptions_url": "https://api.github.com/users/siladu/subscriptions",
      "organizations_url": "https://api.github.com/users/siladu/orgs",
      "repos_url": "https://api.github.com/users/siladu/repos",
      "events_url": "https://api.github.com/users/siladu/events{/privacy}",
      "received_events_url": "https://api.github.com/users/siladu/received_events",
      "type": "User",
      "site_admin": false
    },
    {
      "login": "matkt",
      "id": 26581503,
      "node_id": "MDQ6VXNlcjI2NTgxNTAz",
      "avatar_url": "https://avatars.githubusercontent.com/u/26581503?v=4",
      "gravatar_id": "",
      "url": "https://api.github.com/users/matkt",
      "html_url": "https://github.com/matkt",
      "followers_url": "https://api.github.com/users/matkt/followers",
      "following_url": "https://api.github.com/users/matkt/following{/other_user}",
      "gists_url": "https://api.github.com/users/matkt/gists{/gist_id}",
      "starred_url": "https://api.github.com/users/matkt/starred{/owner}{/repo}",
      "subscriptions_url": "https://api.github.com/users/matkt/subscriptions",
      "organizations_url": "https://api.github.com/users/matkt/orgs",
      "repos_url": "https://api.github.com/users/matkt/repos",
      "events_url": "https://api.github.com/users/matkt/events{/privacy}",
      "received_events_url": "https://api.github.com/users/matkt/received_events",
      "type": "User",
      "site_admin": false
    }
  ],
  "milestone": null,
  "comments": 5,
  "created_at": "2023-09-25T11:06:56Z",
  "updated_at": "2023-09-26T08:12:09Z",
  "closed_at": null,
  "author_association": "NONE",
  "active_lock_reason": null,
  "body": "out=$(curl -s --data-raw $req 'http://localhost:3000')\r\n\r\n**req**\r\n```\r\n{\"state\":{\"fork\":\"Berlin\",\"reward\":\"0\",\"chainid\":\"1\"},\"input\":{\"env\":{\"currentCoinbase\":\"0x2adc25665018aa1fe0e6bc666dac8fc2697ff9ba\",\"currentNumber\":\"0x01\",\"currentTimestamp\":\"0x03e8\",\"currentGasLimit\":\"0xff112233445566\",\"previousHash\":\"0x7d46f90648e1c009b83cdec706549090f3676e92fb0ca3cb85de687b73148e13\",\"parentTimestamp\":\"0x00\",\"parentDifficulty\":\"0x020000\",\"parentUncleHash\":\"0x1dcc4de8dec75d7aab85b567b6ccd41ad312451b948a7413f0a142fd40d49347\",\"blockHashes\":{\"0\":\"0x7d46f90648e1c009b83cdec706549090f3676e92fb0ca3cb85de687b73148e13\"}},\"alloc\":{\"0x095e7baea6a6c7c4c2dfeb977efac326af552d87\":{\"balance\":\"0x0de0b6b3a7640000\",\"code\":\"0x600160010160005500\",\"nonce\":\"0x00\",\"storage\":{}},\"0x2adc25665018aa1fe0e6bc666dac8fc2697ff9ba\":{\"balance\":\"0x00\",\"code\":\"0x\",\"nonce\":\"0x01\",\"storage\":{}},\"0xa94f5374fce5edbc8e2a8697c15331677e6ebf0b\":{\"balance\":\"0x0de0b6b3a7640000\",\"code\":\"0x\",\"nonce\":\"0x00\",\"storage\":{}}},\"txs\":\"0xf865f863800a83061a8094095e7baea6a6c7c4c2dfeb977efac326af552d87830186a0801ba0ffb600e63115a7362e7811894a91d8ba4330e526f22121c994c4692035dfdfd5a06198379fcac8de3dbfac48b165df4bf88e2088f294b61efb9a65fe2281c76e16\"}}\r\n```\r\n.retesteth/besu/setup.sh Besu daemon is listening on port 3000\r\n\r\n**out**\r\n```\r\n{\"error\":\"World State Root does not match expected value, header 0xc5d2460186f7233c927e7db2dcc703c0e500b653ca82273b7bfad8045d85a470 calculated 0xcd39e0cdd18f8f811911222ae6779341663d0293e1a3d9501da7ac2f4da9b277\",\"stacktrace\":\"java.lang.RuntimeException: World State Root does not match expected value, header 0xc5d2460186f7233c927e7db2dcc703c0e500b653ca82273b7bfad8045d85a470 calculated 0xcd39e0cdd18f8f811911222ae6779341663d0293e1a3d9501da7ac2f4da9b277\r\n\tat org.hyperledger.besu.ethereum.bonsai.worldview.BonsaiWorldState.persist(BonsaiWorldState.java:398)\r\n\tat org.hyperledger.besu.evmtool.T8nExecutor.runTest(T8nExecutor.java:380)\r\n\tat org.hyperledger.besu.evmtool.T8nServerSubCommand.handleT8nRequest(T8nServerSubCommand.java:141)\r\n\tat org.hyperledger.besu.evmtool.T8nServerSubCommand.handle(T8nServerSubCommand.java:95)\r\n\tat org.hyperledger.besu.evmtool.T8nServerSubCommand.lambda$run$0(T8nServerSubCommand.java:78)\r\n\tat io.vertx.core.impl.future.FutureImpl$1.onSuccess(FutureImpl.java:91)\r\n\tat io.vertx.core.impl.future.FutureBase.lambda$emitSuccess$0(FutureBase.java:54)\r\n\tat io.vertx.core.impl.EventLoopContext.execute(EventLoopContext.java:86)\r\n\tat io.vertx.core.impl.DuplicatedContext.execute(DuplicatedContext.java:163)\r\n\tat io.vertx.core.impl.future.FutureBase.emitSuccess(FutureBase.java:51)\r\n\tat io.vertx.core.impl.future.FutureImpl.tryComplete(FutureImpl.java:211)\r\n\tat io.vertx.core.impl.future.PromiseImpl.tryComplete(PromiseImpl.java:23)\r\n\tat io.vertx.core.http.impl.HttpEventHandler.handleEnd(HttpEventHandler.java:79)\r\n\tat io.vertx.core.http.impl.Http1xServerRequest.onEnd(Http1xServerRequest.java:581)\r\n\tat io.vertx.core.http.impl.Http1xServerRequest.handleEnd(Http1xServerRequest.java:564)\r\n\tat io.vertx.core.impl.EventLoopContext.execute(EventLoopContext.java:76)\r\n\tat io.vertx.core.impl.DuplicatedContext.execute(DuplicatedContext.java:153)\r\n\tat io.vertx.core.http.impl.Http1xServerConnection.onEnd(Http1xServerConnection.java:191)\r\n\tat io.vertx.core.http.impl.Http1xServerConnection.onContent(Http1xServerConnection.java:181)\r\n\tat io.vertx.core.http.impl.Http1xServerConnection.handleOther(Http1xServerConnection.java:161)\r\n\tat io.vertx.core.http.impl.Http1xServerConnection.handleMessage(Http1xServerConnection.java:149)\r\n\tat io.vertx.core.net.impl.ConnectionBase.read(ConnectionBase.java:157)\r\n\tat io.vertx.core.net.impl.VertxHandler.channelRead(VertxHandler.java:153)\r\n\tat io.netty.channel.AbstractChannelHandlerContext.invokeChannelRead(AbstractChannelHandlerContext.java:442)\r\n\tat io.netty.channel.AbstractChannelHandlerContext.invokeChannelRead(AbstractChannelHandlerContext.java:420)\r\n\tat io.netty.channel.AbstractChannelHandlerContext.fireChannelRead(AbstractChannelHandlerContext.java:412)\r\n\tat io.netty.channel.ChannelInboundHandlerAdapter.channelRead(ChannelInboundHandlerAdapter.java:93)\r\n\tat io.netty.handler.codec.http.websocketx.extensions.WebSocketServerExtensionHandler.channelRead(WebSocketServerExtensionHandler.java:109)\r\n\tat io.netty.channel.AbstractChannelHandlerContext.invokeChannelRead(AbstractChannelHandlerContext.java:442)\r\n\tat io.netty.channel.AbstractChannelHandlerContext.invokeChannelRead(AbstractChannelHandlerContext.java:420)\r\n\tat io.netty.channel.AbstractChannelHandlerContext.fireChannelRead(AbstractChannelHandlerContext.java:412)\r\n\tat io.netty.handler.codec.MessageToMessageDecoder.channelRead(MessageToMessageDecoder.java:103)\r\n\tat io.netty.handler.codec.MessageToMessageCodec.channelRead(MessageToMessageCodec.java:111)\r\n\tat io.netty.channel.AbstractChannelHandlerContext.invokeChannelRead(AbstractChannelHandlerContext.java:442)\r\n\tat io.netty.channel.AbstractChannelHandlerContext.invokeChannelRead(AbstractChannelHandlerContext.java:420)\r\n\tat io.netty.channel.AbstractChannelHandlerContext.fireChannelRead(AbstractChannelHandlerContext.java:412)\r\n\tat io.netty.handler.codec.ByteToMessageDecoder.fireChannelRead(ByteToMessageDecoder.java:346)\r\n\tat io.netty.handler.codec.ByteToMessageDecoder.channelRead(ByteToMessageDecoder.java:318)\r\n\tat io.netty.channel.AbstractChannelHandlerContext.invokeChannelRead(AbstractChannelHandlerContext.java:444)\r\n\tat io.netty.channel.AbstractChannelHandlerContext.invokeChannelRead(AbstractChannelHandlerContext.java:420)\r\n\tat io.netty.channel.AbstractChannelHandlerContext.fireChannelRead(AbstractChannelHandlerContext.java:412)\r\n\tat io.netty.channel.DefaultChannelPipeline$HeadContext.channelRead(DefaultChannelPipeline.java:1410)\r\n\tat io.netty.channel.AbstractChannelHandlerContext.invokeChannelRead(AbstractChannelHandlerContext.java:440)\r\n\tat io.netty.channel.AbstractChannelHandlerContext.invokeChannelRead(AbstractChannelHandlerContext.java:420)\r\n\tat io.netty.channel.DefaultChannelPipeline.fireChannelRead(DefaultChannelPipeline.java:919)\r\n\tat io.netty.channel.nio.AbstractNioByteChannel$NioByteUnsafe.read(AbstractNioByteChannel.java:166)\r\n\tat io.netty.channel.nio.NioEventLoop.processSelectedKey(NioEventLoop.java:788)\r\n\tat io.netty.channel.nio.NioEventLoop.processSelectedKeysOptimized(NioEventLoop.java:724)\r\n\tat io.netty.channel.nio.NioEventLoop.processSelectedKeys(NioEventLoop.java:650)\r\n\tat io.netty.channel.nio.NioEventLoop.run(NioEventLoop.java:562)\r\n\tat io.netty.util.concurrent.SingleThreadEventExecutor$4.run(SingleThreadEventExecutor.java:997)\r\n\tat io.netty.util.internal.ThreadExecutorMap$2.run(ThreadExecutorMap.java:74)\r\n\tat io.netty.util.concurrent.FastThreadLocalRunnable.run(FastThreadLocalRunnable.java:30)\r\n\tat java.base/java.lang.Thread.run(Thread.java:833)\r\n\"}\r\nparse error: Invalid string: control characters from U+0000 through U+001F must be escaped at line 56, column 1\r\nparse error: Invalid string: control characters from U+0000 through U+001F must be escaped at line 56, column 1\r\n\r\n``",
  "closed_by": null,
  "reactions": {
    "url": "https://api.github.com/repos/hyperledger/besu/issues/5934/reactions",
    "total_count": 0,
    "+1": 0,
    "-1": 0,
    "laugh": 0,
    "hooray": 0,
    "confused": 0,
    "heart": 0,
    "rocket": 0,
    "eyes": 0
  },
  "timeline_url": "https://api.github.com/repos/hyperledger/besu/issues/5934/timeline",
  "performed_via_github_app": null,
  "state_reason": null
}
[
  {
    "url": "https://api.github.com/repos/hyperledger/besu/issues/comments/1734195100",
    "html_url": "https://github.com/hyperledger/besu/issues/5934#issuecomment-1734195100",
    "issue_url": "https://api.github.com/repos/hyperledger/besu/issues/5934",
    "id": 1734195100,
    "node_id": "IC_kwDODE2jmc5nXbec",
    "user": {
      "login": "shemnon",
      "id": 38109,
      "node_id": "MDQ6VXNlcjM4MTA5",
      "avatar_url": "https://avatars.githubusercontent.com/u/38109?v=4",
      "gravatar_id": "",
      "url": "https://api.github.com/users/shemnon",
      "html_url": "https://github.com/shemnon",
      "followers_url": "https://api.github.com/users/shemnon/followers",
      "following_url": "https://api.github.com/users/shemnon/following{/other_user}",
      "gists_url": "https://api.github.com/users/shemnon/gists{/gist_id}",
      "starred_url": "https://api.github.com/users/shemnon/starred{/owner}{/repo}",
      "subscriptions_url": "https://api.github.com/users/shemnon/subscriptions",
      "organizations_url": "https://api.github.com/users/shemnon/orgs",
      "repos_url": "https://api.github.com/users/shemnon/repos",
      "events_url": "https://api.github.com/users/shemnon/events{/privacy}",
      "received_events_url": "https://api.github.com/users/shemnon/received_events",
      "type": "User",
      "site_admin": false
    },
    "created_at": "2023-09-25T17:40:28Z",
    "updated_at": "2023-09-25T17:40:28Z",
    "author_association": "CONTRIBUTOR",
    "body": "This is a regression on the part of Bonasi Tries.  @matkt @garyschulte ",
    "reactions": {
      "url": "https://api.github.com/repos/hyperledger/besu/issues/comments/1734195100/reactions",
      "total_count": 0,
      "+1": 0,
      "-1": 0,
      "laugh": 0,
      "hooray": 0,
      "confused": 0,
      "heart": 0,
      "rocket": 0,
      "eyes": 0
    },
    "performed_via_github_app": null
  },
  {
    "url": "https://api.github.com/repos/hyperledger/besu/issues/comments/1734259683",
    "html_url": "https://github.com/hyperledger/besu/issues/5934#issuecomment-1734259683",
    "issue_url": "https://api.github.com/repos/hyperledger/besu/issues/5934",
    "id": 1734259683,
    "node_id": "IC_kwDODE2jmc5nXrPj",
    "user": {
      "login": "matkt",
      "id": 26581503,
      "node_id": "MDQ6VXNlcjI2NTgxNTAz",
      "avatar_url": "https://avatars.githubusercontent.com/u/26581503?v=4",
      "gravatar_id": "",
      "url": "https://api.github.com/users/matkt",
      "html_url": "https://github.com/matkt",
      "followers_url": "https://api.github.com/users/matkt/followers",
      "following_url": "https://api.github.com/users/matkt/following{/other_user}",
      "gists_url": "https://api.github.com/users/matkt/gists{/gist_id}",
      "starred_url": "https://api.github.com/users/matkt/starred{/owner}{/repo}",
      "subscriptions_url": "https://api.github.com/users/matkt/subscriptions",
      "organizations_url": "https://api.github.com/users/matkt/orgs",
      "repos_url": "https://api.github.com/users/matkt/repos",
      "events_url": "https://api.github.com/users/matkt/events{/privacy}",
      "received_events_url": "https://api.github.com/users/matkt/received_events",
      "type": "User",
      "site_admin": false
    },
    "created_at": "2023-09-25T18:28:03Z",
    "updated_at": "2023-09-25T18:28:03Z",
    "author_association": "CONTRIBUTOR",
    "body": "Maybe we should check the Reference test? @garyschulte ",
    "reactions": {
      "url": "https://api.github.com/repos/hyperledger/besu/issues/comments/1734259683/reactions",
      "total_count": 0,
      "+1": 0,
      "-1": 0,
      "laugh": 0,
      "hooray": 0,
      "confused": 0,
      "heart": 0,
      "rocket": 0,
      "eyes": 0
    },
    "performed_via_github_app": null
  },
  {
    "url": "https://api.github.com/repos/hyperledger/besu/issues/comments/1734272201",
    "html_url": "https://github.com/hyperledger/besu/issues/5934#issuecomment-1734272201",
    "issue_url": "https://api.github.com/repos/hyperledger/besu/issues/5934",
    "id": 1734272201,
    "node_id": "IC_kwDODE2jmc5nXuTJ",
    "user": {
      "login": "winsvega",
      "id": 4492341,
      "node_id": "MDQ6VXNlcjQ0OTIzNDE=",
      "avatar_url": "https://avatars.githubusercontent.com/u/4492341?v=4",
      "gravatar_id": "",
      "url": "https://api.github.com/users/winsvega",
      "html_url": "https://github.com/winsvega",
      "followers_url": "https://api.github.com/users/winsvega/followers",
      "following_url": "https://api.github.com/users/winsvega/following{/other_user}",
      "gists_url": "https://api.github.com/users/winsvega/gists{/gist_id}",
      "starred_url": "https://api.github.com/users/winsvega/starred{/owner}{/repo}",
      "subscriptions_url": "https://api.github.com/users/winsvega/subscriptions",
      "organizations_url": "https://api.github.com/users/winsvega/orgs",
      "repos_url": "https://api.github.com/users/winsvega/repos",
      "events_url": "https://api.github.com/users/winsvega/events{/privacy}",
      "received_events_url": "https://api.github.com/users/winsvega/received_events",
      "type": "User",
      "site_admin": false
    },
    "created_at": "2023-09-25T18:37:05Z",
    "updated_at": "2023-09-25T18:37:05Z",
    "author_association": "NONE",
    "body": "It was working before.\n\nIt potentially broke 07.19\nBut could be at later point. ",
    "reactions": {
      "url": "https://api.github.com/repos/hyperledger/besu/issues/comments/1734272201/reactions",
      "total_count": 0,
      "+1": 0,
      "-1": 0,
      "laugh": 0,
      "hooray": 0,
      "confused": 0,
      "heart": 0,
      "rocket": 0,
      "eyes": 0
    },
    "performed_via_github_app": null
  },
  {
    "url": "https://api.github.com/repos/hyperledger/besu/issues/comments/1734534773",
    "html_url": "https://github.com/hyperledger/besu/issues/5934#issuecomment-1734534773",
    "issue_url": "https://api.github.com/repos/hyperledger/besu/issues/5934",
    "id": 1734534773,
    "node_id": "IC_kwDODE2jmc5nYuZ1",
    "user": {
      "login": "garyschulte",
      "id": 1238512,
      "node_id": "MDQ6VXNlcjEyMzg1MTI=",
      "avatar_url": "https://avatars.githubusercontent.com/u/1238512?v=4",
      "gravatar_id": "",
      "url": "https://api.github.com/users/garyschulte",
      "html_url": "https://github.com/garyschulte",
      "followers_url": "https://api.github.com/users/garyschulte/followers",
      "following_url": "https://api.github.com/users/garyschulte/following{/other_user}",
      "gists_url": "https://api.github.com/users/garyschulte/gists{/gist_id}",
      "starred_url": "https://api.github.com/users/garyschulte/starred{/owner}{/repo}",
      "subscriptions_url": "https://api.github.com/users/garyschulte/subscriptions",
      "organizations_url": "https://api.github.com/users/garyschulte/orgs",
      "repos_url": "https://api.github.com/users/garyschulte/repos",
      "events_url": "https://api.github.com/users/garyschulte/events{/privacy}",
      "received_events_url": "https://api.github.com/users/garyschulte/received_events",
      "type": "User",
      "site_admin": false
    },
    "created_at": "2023-09-25T22:11:12Z",
    "updated_at": "2023-09-25T22:12:15Z",
    "author_association": "CONTRIBUTOR",
    "body": "Previously we were using forest for reference tests and t8n, it might be that we are now seeing it because we are using bonsai for these tests.  #5686 ",
    "reactions": {
      "url": "https://api.github.com/repos/hyperledger/besu/issues/comments/1734534773/reactions",
      "total_count": 0,
      "+1": 0,
      "-1": 0,
      "laugh": 0,
      "hooray": 0,
      "confused": 0,
      "heart": 0,
      "rocket": 0,
      "eyes": 0
    },
    "performed_via_github_app": null
  },
  {
    "url": "https://api.github.com/repos/hyperledger/besu/issues/comments/1735045289",
    "html_url": "https://github.com/hyperledger/besu/issues/5934#issuecomment-1735045289",
    "issue_url": "https://api.github.com/repos/hyperledger/besu/issues/5934",
    "id": 1735045289,
    "node_id": "IC_kwDODE2jmc5narCp",
    "user": {
      "login": "siladu",
      "id": 2893793,
      "node_id": "MDQ6VXNlcjI4OTM3OTM=",
      "avatar_url": "https://avatars.githubusercontent.com/u/2893793?v=4",
      "gravatar_id": "",
      "url": "https://api.github.com/users/siladu",
      "html_url": "https://github.com/siladu",
      "followers_url": "https://api.github.com/users/siladu/followers",
      "following_url": "https://api.github.com/users/siladu/following{/other_user}",
      "gists_url": "https://api.github.com/users/siladu/gists{/gist_id}",
      "starred_url": "https://api.github.com/users/siladu/starred{/owner}{/repo}",
      "subscriptions_url": "https://api.github.com/users/siladu/subscriptions",
      "organizations_url": "https://api.github.com/users/siladu/orgs",
      "repos_url": "https://api.github.com/users/siladu/repos",
      "events_url": "https://api.github.com/users/siladu/events{/privacy}",
      "received_events_url": "https://api.github.com/users/siladu/received_events",
      "type": "User",
      "site_admin": false
    },
    "created_at": "2023-09-26T08:12:08Z",
    "updated_at": "2023-09-26T08:12:08Z",
    "author_association": "CONTRIBUTOR",
    "body": "Recreatable with \r\n1. `besu/build/install/besu/bin/evmtool t8n-server`\r\n2. `curl -s http://localhost:3000 --data-raw '{\"state\":{\"fork\":\"Berlin\",\"reward\":\"0\",\"chainid\":\"1\"},\"input\":{\"env\":{\"currentCoinbase\":\"0x2adc25665018aa1fe0e6bc666dac8fc2697ff9ba\",\"currentNumber\":\"0x01\",\"currentTimestamp\":\"0x03e8\",\"currentGasLimit\":\"0xff112233445566\",\"previousHash\":\"0x7d46f90648e1c009b83cdec706549090f3676e92fb0ca3cb85de687b73148e13\",\"parentTimestamp\":\"0x00\",\"parentDifficulty\":\"0x020000\",\"parentUncleHash\":\"0x1dcc4de8dec75d7aab85b567b6ccd41ad312451b948a7413f0a142fd40d49347\",\"blockHashes\":{\"0\":\"0x7d46f90648e1c009b83cdec706549090f3676e92fb0ca3cb85de687b73148e13\"}},\"alloc\":{\"0x095e7baea6a6c7c4c2dfeb977efac326af552d87\":{\"balance\":\"0x0de0b6b3a7640000\",\"code\":\"0x600160010160005500\",\"nonce\":\"0x00\",\"storage\":{}},\"0x2adc25665018aa1fe0e6bc666dac8fc2697ff9ba\":{\"balance\":\"0x00\",\"code\":\"0x\",\"nonce\":\"0x01\",\"storage\":{}},\"0xa94f5374fce5edbc8e2a8697c15331677e6ebf0b\":{\"balance\":\"0x0de0b6b3a7640000\",\"code\":\"0x\",\"nonce\":\"0x00\",\"storage\":{}}},\"txs\":\"0xf865f863800a83061a8094095e7baea6a6c7c4c2dfeb977efac326af552d87830186a0801ba0ffb600e63115a7362e7811894a91d8ba4330e526f22121c994c4692035dfdfd5a06198379fcac8de3dbfac48b165df4bf88e2088f294b61efb9a65fe2281c76e16\"}}'`",
    "reactions": {
      "url": "https://api.github.com/repos/hyperledger/besu/issues/comments/1735045289/reactions",
      "total_count": 0,
      "+1": 0,
      "-1": 0,
      "laugh": 0,
      "hooray": 0,
      "confused": 0,
      "heart": 0,
      "rocket": 0,
      "eyes": 0
    },
    "performed_via_github_app": null
  }
]
