{
  "url": "https://api.github.com/repos/hyperledger/besu/issues/6032",
  "repository_url": "https://api.github.com/repos/hyperledger/besu",
  "labels_url": "https://api.github.com/repos/hyperledger/besu/issues/6032/labels{/name}",
  "comments_url": "https://api.github.com/repos/hyperledger/besu/issues/6032/comments",
  "events_url": "https://api.github.com/repos/hyperledger/besu/issues/6032/events",
  "html_url": "https://github.com/hyperledger/besu/issues/6032",
  "id": 1943824679,
  "node_id": "I_kwDODE2jmc5z3Gkn",
  "number": 6032,
  "title": "State rolling failed on BonsaiWorldStateKeyValueStorage because nonces differ",
  "user": {
    "login": "iampkuhz",
    "id": 4539861,
    "node_id": "MDQ6VXNlcjQ1Mzk4NjE=",
    "avatar_url": "https://avatars.githubusercontent.com/u/4539861?v=4",
    "gravatar_id": "",
    "url": "https://api.github.com/users/iampkuhz",
    "html_url": "https://github.com/iampkuhz",
    "followers_url": "https://api.github.com/users/iampkuhz/followers",
    "following_url": "https://api.github.com/users/iampkuhz/following{/other_user}",
    "gists_url": "https://api.github.com/users/iampkuhz/gists{/gist_id}",
    "starred_url": "https://api.github.com/users/iampkuhz/starred{/owner}{/repo}",
    "subscriptions_url": "https://api.github.com/users/iampkuhz/subscriptions",
    "organizations_url": "https://api.github.com/users/iampkuhz/orgs",
    "repos_url": "https://api.github.com/users/iampkuhz/repos",
    "events_url": "https://api.github.com/users/iampkuhz/events{/privacy}",
    "received_events_url": "https://api.github.com/users/iampkuhz/received_events",
    "type": "User",
    "site_admin": false
  },
  "labels": [
    {
      "id": 3932728358,
      "node_id": "LA_kwDODE2jmc7qaKwm",
      "url": "https://api.github.com/repos/hyperledger/besu/labels/syncing",
      "name": "syncing",
      "color": "ECC431",
      "default": false,
      "description": ""
    },
    {
      "id": 5113384824,
      "node_id": "LA_kwDODE2jmc8AAAABMMgPeA",
      "url": "https://api.github.com/repos/hyperledger/besu/labels/bonsai",
      "name": "bonsai",
      "color": "0E8A16",
      "default": false,
      "description": ""
    },
    {
      "id": 5290172097,
      "node_id": "LA_kwDODE2jmc8AAAABO1GewQ",
      "url": "https://api.github.com/repos/hyperledger/besu/labels/non%20mainnet%20(private%20networks)",
      "name": "non mainnet (private networks)",
      "color": "0052cc",
      "default": false,
      "description": "not related to mainnet features - covers privacy, permissioning, IBFT2, QBFT"
    }
  ],
  "state": "open",
  "locked": false,
  "assignee": null,
  "assignees": [

  ],
  "milestone": null,
  "comments": 2,
  "created_at": "2023-10-15T10:05:31Z",
  "updated_at": "2023-10-17T02:57:53Z",
  "closed_at": null,
  "author_association": "NONE",
  "active_lock_reason": null,
  "body": "<!-- Have you done the following? -->\r\n<!--   * read the Code of Conduct? By filing an Issue, you are expected to -->  \r\n<!--     comply with it, including treating everyone with respect: -->\r\n<!--     https://github.com/hyperledger/besu/blob/main/CODE_OF_CONDUCT.md -->\r\n<!--   * Reproduced the issue in the latest version of the software -->\r\n<!--   * Read the debugging docs: https://besu.hyperledger.org/en/stable/HowTo/Monitor/Logging/ -->\r\n<!--   * Duplicate Issue check:  https://github.com/search?q=+is%3Aissue+repo%3Ahyperledger/Besu -->\r\n<!-- Note:  Not all sections will apply to all issue types. -->\r\n\r\n### Description\r\nAs an [Actor], I want [feature] so that [why]. \r\n\r\n### Acceptance Criteria\r\n* [Criteria 1]\r\n\r\n### Steps to Reproduce (Bug)\r\n1. start the first 3 nodes.\r\n2. start the 4th nodes and it begin syncing\r\n\r\n\r\n**Expected behavior:** [What you expect to happen]\r\n\r\n**Actual behavior:** [What actually happens]\r\n\r\n**Frequency:** [What percentage of the time does it occur?]\r\nI've tried restart the node but it still stucked.\r\n\r\n### Logs (if a bug)\r\n```\r\n2023-10-15 18:00:39.863+08:00 | EthScheduler-Services-2 (importBlock) | INFO  | FullImportBlockStep | Import reached block 278438 (0x24410b77242b34625a176865f9e28e5a7a5c205156a279b0aa7275d0432a519c), - Mg/s, Peers: 1\r\n2023-10-15 18:00:39.863+08:00 | EthScheduler-Services-2 (importBlock) | INFO  | FullImportBlockStep | Import reached block 278439 (0xaa8561a36acd1565ed4b96a855c0105d09c4e332ad6bdd6e1b9f052fd780591e), - Mg/s, Peers: 1\r\n2023-10-15 18:00:39.864+08:00 | EthScheduler-Services-2 (importBlock) | DEBUG | BonsaiWorldStateProvider | Attempting Rollback of 0x533a4388377b211e995ad2f4a317cf1f446240496ceadc3446756fc2e0c25cdb\r\n2023-10-15 18:00:39.864+08:00 | EthScheduler-Services-2 (importBlock) | DEBUG | BonsaiWorldStateProvider | State rolling failed on BonsaiWorldStateKeyValueStorage for block hash 0xaa8561a36acd1565ed4b96a855c0105d09c4e332ad6bdd6e1b9f052fd780591e java.lang.IllegalStateException: Address=0x1a3a39ccbe340eaaa3cddece27fd4dc46f6cc8f7 Prior Value in Rolling Change: nonces differ\r\n        at org.hyperledger.besu.ethereum.bonsai.BonsaiAccount.assertCloseEnoughForDiffing(BonsaiAccount.java:313)\r\n        at org.hyperledger.besu.ethereum.bonsai.worldview.BonsaiWorldStateUpdateAccumulator.rollAccountChange(BonsaiWorldStateUpdateAccumulator.java:577)\r\n        at org.hyperledger.besu.ethereum.bonsai.worldview.BonsaiWorldStateUpdateAccumulator.lambda$rollBack$15(BonsaiWorldStateUpdateAccumulator.java:526)\r\n        at java.base/java.util.HashMap$EntrySpliterator.forEachRemaining(HashMap.java:1850)\r\n        at java.base/java.util.stream.ReferencePipeline$Head.forEach(ReferencePipeline.java:762)\r\n        at org.hyperledger.besu.ethereum.bonsai.worldview.BonsaiWorldStateUpdateAccumulator.rollBack(BonsaiWorldStateUpdateAccumulator.java:524)\r\n        at org.hyperledger.besu.ethereum.bonsai.BonsaiWorldStateProvider.rollMutableStateToBlockHash(BonsaiWorldStateProvider.java:242)\r\n        at org.hyperledger.besu.ethereum.bonsai.BonsaiWorldStateProvider.getMutable(BonsaiWorldStateProvider.java:184)\r\n        at org.hyperledger.besu.ethereum.bonsai.BonsaiWorldStateProvider.getMutable(BonsaiWorldStateProvider.java:160)\r\n        at org.hyperledger.besu.ethereum.MainnetBlockValidator.validateAndProcessBlock(MainnetBlockValidator.java:124)\r\n        at org.hyperledger.besu.ethereum.MainnetBlockValidator.validateAndProcessBlock(MainnetBlockValidator.java:72)\r\n        at org.hyperledger.besu.ethereum.mainnet.MainnetBlockImporter.importBlock(MainnetBlockImporter.java:45)\r\n        at org.hyperledger.besu.ethereum.core.BlockImporter.importBlock(BlockImporter.java:45)\r\n        at org.hyperledger.besu.ethereum.eth.sync.fullsync.FullImportBlockStep.accept(FullImportBlockStep.java:63)\r\n        at org.hyperledger.besu.ethereum.eth.sync.fullsync.FullImportBlockStep.accept(FullImportBlockStep.java:32)\r\n        at org.hyperledger.besu.services.pipeline.CompleterStage.run(CompleterStage.java:37)\r\n        at org.hyperledger.besu.services.pipeline.Pipeline.lambda$runWithErrorHandling$3(Pipeline.java:169)\r\n        at java.base/java.util.concurrent.Executors$RunnableAdapter.call(Executors.java:539)\r\n        at java.base/java.util.concurrent.FutureTask.run(FutureTask.java:264)\r\n        at java.base/java.util.concurrent.ThreadPoolExecutor.runWorker(ThreadPoolExecutor.java:1136)\r\n        at java.base/java.util.concurrent.ThreadPoolExecutor$Worker.run(ThreadPoolExecutor.java:635)\r\n        at java.base/java.lang.Thread.run(Thread.java:833)\r\n\r\n2023-10-15 18:00:39.864+08:00 | EthScheduler-Services-2 (importBlock) | INFO  | MainnetBlockValidator | Invalid block 278440 (0xdb4bc2f7edd10191f7efd102cd783ac9cc0c15f60bf28691115d50cb16ec0fcf): Optional[Unable to process block because parent world state 0x0bbc969cf30f94ebf0ff9a38fc0d8858a9553714308c79ed4278ca2fc00ede8b is not available]\r\n2023-10-15 18:00:39.864+08:00 | EthScheduler-Services-2 (importBlock) | INFO  | Pipeline | Unexpected exception in pipeline. Aborting. org.hyperledger.besu.ethereum.eth.sync.tasks.exceptions.InvalidBlockException: Failed to import block: Invalid block at #278440 (0xdb4bc2f7edd10191f7efd102cd783ac9cc0c15f60bf28691115d50cb16ec0fcf)\r\n        at org.hyperledger.besu.ethereum.eth.sync.fullsync.FullImportBlockStep.accept(FullImportBlockStep.java:65)\r\n        at org.hyperledger.besu.ethereum.eth.sync.fullsync.FullImportBlockStep.accept(FullImportBlockStep.java:32)\r\n        at org.hyperledger.besu.services.pipeline.CompleterStage.run(CompleterStage.java:37)\r\n        at org.hyperledger.besu.services.pipeline.Pipeline.lambda$runWithErrorHandling$3(Pipeline.java:169)\r\n        at java.base/java.util.concurrent.Executors$RunnableAdapter.call(Executors.java:539)\r\n        at java.base/java.util.concurrent.FutureTask.run(FutureTask.java:264)\r\n        at java.base/java.util.concurrent.ThreadPoolExecutor.runWorker(ThreadPoolExecutor.java:1136)\r\n        at java.base/java.util.concurrent.ThreadPoolExecutor$Worker.run(ThreadPoolExecutor.java:635)\r\n        at java.base/java.lang.Thread.run(Thread.java:833)\r\n```\r\n\r\n### Versions (Add all that apply)\r\n* Software version: 23.7.3\r\n* Java version:openjdk version \"17.0.8\" 2023-07-18 LTS\r\n* OS Name & Version: CentOS7.2\r\n* Kernel Version: Linux 4.9.151-015.ali3000.alios7.x86_64",
  "closed_by": null,
  "reactions": {
    "url": "https://api.github.com/repos/hyperledger/besu/issues/6032/reactions",
    "total_count": 0,
    "+1": 0,
    "-1": 0,
    "laugh": 0,
    "hooray": 0,
    "confused": 0,
    "heart": 0,
    "rocket": 0,
    "eyes": 0
  },
  "timeline_url": "https://api.github.com/repos/hyperledger/besu/issues/6032/timeline",
  "performed_via_github_app": null,
  "state_reason": null
}
[
  {
    "url": "https://api.github.com/repos/hyperledger/besu/issues/comments/1765368274",
    "html_url": "https://github.com/hyperledger/besu/issues/6032#issuecomment-1765368274",
    "issue_url": "https://api.github.com/repos/hyperledger/besu/issues/6032",
    "id": 1765368274,
    "node_id": "IC_kwDODE2jmc5pOWHS",
    "user": {
      "login": "non-fungible-nelson",
      "id": 85905982,
      "node_id": "MDQ6VXNlcjg1OTA1OTgy",
      "avatar_url": "https://avatars.githubusercontent.com/u/85905982?v=4",
      "gravatar_id": "",
      "url": "https://api.github.com/users/non-fungible-nelson",
      "html_url": "https://github.com/non-fungible-nelson",
      "followers_url": "https://api.github.com/users/non-fungible-nelson/followers",
      "following_url": "https://api.github.com/users/non-fungible-nelson/following{/other_user}",
      "gists_url": "https://api.github.com/users/non-fungible-nelson/gists{/gist_id}",
      "starred_url": "https://api.github.com/users/non-fungible-nelson/starred{/owner}{/repo}",
      "subscriptions_url": "https://api.github.com/users/non-fungible-nelson/subscriptions",
      "organizations_url": "https://api.github.com/users/non-fungible-nelson/orgs",
      "repos_url": "https://api.github.com/users/non-fungible-nelson/repos",
      "events_url": "https://api.github.com/users/non-fungible-nelson/events{/privacy}",
      "received_events_url": "https://api.github.com/users/non-fungible-nelson/received_events",
      "type": "User",
      "site_admin": false
    },
    "created_at": "2023-10-16T22:25:24Z",
    "updated_at": "2023-10-16T22:25:24Z",
    "author_association": "CONTRIBUTOR",
    "body": "Can you provide us with your configuration and genesis files? \r\n\r\nAny other details that may be relevant. ",
    "reactions": {
      "url": "https://api.github.com/repos/hyperledger/besu/issues/comments/1765368274/reactions",
      "total_count": 0,
      "+1": 0,
      "-1": 0,
      "laugh": 0,
      "hooray": 0,
      "confused": 0,
      "heart": 0,
      "rocket": 0,
      "eyes": 0
    },
    "performed_via_github_app": null
  },
  {
    "url": "https://api.github.com/repos/hyperledger/besu/issues/comments/1765583048",
    "html_url": "https://github.com/hyperledger/besu/issues/6032#issuecomment-1765583048",
    "issue_url": "https://api.github.com/repos/hyperledger/besu/issues/6032",
    "id": 1765583048,
    "node_id": "IC_kwDODE2jmc5pPKjI",
    "user": {
      "login": "iampkuhz",
      "id": 4539861,
      "node_id": "MDQ6VXNlcjQ1Mzk4NjE=",
      "avatar_url": "https://avatars.githubusercontent.com/u/4539861?v=4",
      "gravatar_id": "",
      "url": "https://api.github.com/users/iampkuhz",
      "html_url": "https://github.com/iampkuhz",
      "followers_url": "https://api.github.com/users/iampkuhz/followers",
      "following_url": "https://api.github.com/users/iampkuhz/following{/other_user}",
      "gists_url": "https://api.github.com/users/iampkuhz/gists{/gist_id}",
      "starred_url": "https://api.github.com/users/iampkuhz/starred{/owner}{/repo}",
      "subscriptions_url": "https://api.github.com/users/iampkuhz/subscriptions",
      "organizations_url": "https://api.github.com/users/iampkuhz/orgs",
      "repos_url": "https://api.github.com/users/iampkuhz/repos",
      "events_url": "https://api.github.com/users/iampkuhz/events{/privacy}",
      "received_events_url": "https://api.github.com/users/iampkuhz/received_events",
      "type": "User",
      "site_admin": false
    },
    "created_at": "2023-10-17T02:57:53Z",
    "updated_at": "2023-10-17T02:57:53Z",
    "author_association": "NONE",
    "body": "1. here is my config file. \r\n> BTW, if I change data-storage-format from BONSAI to FOREST and clean data to re-sync, the sync works quite normal\r\n```toml\r\ndata-path=\"/home/admin/node4/data\" # Path\r\n\r\nnode-private-key-file=\"/home/admin/node4/conf/key\"\r\n\r\n# Network\r\nbootnodes=[\"--(hidden)--\"]\r\n\r\n\r\n# 可以访问服务器的客户端IP白名单\r\nhost-allowlist=[\"*\"]\r\n# 如果客户端使用浏览器访问,可以\r\nrpc-http-cors-origins=[\"all\"]\r\n\r\np2p-host=\"--(hidden)--\"\r\np2p-port=30306\r\nmax-peers=42\r\n\r\n# HTTP JSON-RPC\r\nrpc-http-enabled=true\r\nrpc-http-host=\"0.0.0.0\"\r\nrpc-http-port=8548\r\nrpc-http-api=[\"ETH\",\"NET\",\"QBFT\", \"DEBUG\"]\r\n\r\npermissions-nodes-config-file-enabled=true\r\npermissions-nodes-config-file=\"/home/admin/node4/conf/permissions_config.toml\"\r\nstatic-nodes-file=\"/home/admin/node4/conf/static-nodes.json\"\r\n\r\n# WS JSON-RPC\r\nrpc-ws-host=\"0.0.0.0\"\r\nrpc-ws-port=8604\r\n\r\n# Chain\r\ngenesis-file=\"/home/admin/node4/conf/genesis.json\" # Path to the custom genesis file\r\n\r\n\r\n# 关闭发现模式\r\ndiscovery-enabled=true\r\nnat-method=\"NONE\"\r\n\r\n# data storage format\r\ndata-storage-format=\"BONSAI\"\r\n\r\nsync-mode=\"FULL\"\r\n#fast-sync-min-peers=3\r\n\r\ntx-pool-limit-by-account-percentage=1\r\n# 节点内存中缓存待出块的交易数量最大值\r\ntx-pool-max-size=\"2000\"\r\n\r\n# Mining\r\n#miner-enabled=true\r\n#miner-coinbase=\"0xfe3b557e8fb62b89f4916b721be55ceb828dbd73\"\r\n```\r\n\r\n2. here is my genesis file\r\n```json\r\n{\r\n  \"config\" : {\r\n    \"chainId\" : 20230824001,\r\n    \"berlinBlock\" : 0,\r\n    \"qbft\" : {\r\n      \"blockperiodseconds\" : 4,\r\n      \"epochlength\" : 30000,\r\n      \"requesttimeoutseconds\" : 8\r\n    }\r\n  },\r\n  \"nonce\" : \"0x0\",\r\n  \"timestamp\" : \"0x58ee40ba\",\r\n  \"gasLimit\" : \"0x1fffffffffffff\",\r\n  \"contractSizeLimit\": 2147483647,\r\n  \"difficulty\" : \"0x1\",\r\n  \"mixHash\" : \"0x63746963616c2062797a616e74696e65206661756c7420746f6c6572616e6365\",\r\n  \"coinbase\" : \"0x0000000000000000000000000000000000000000\",\r\n  \"alloc\" : {\r\n    \"3355ff1765cea77300d79b0821c10d69bbce4029\" : {\r\n      \"privateKey\" : \"--(hidden)--\",\r\n      \"comment\" : \"private key and this comment are ignored.  In a real chain, the private key should NOT be stored\",\r\n      \"balance\" : \"0xad78ebc5ac6200000\"\r\n    },\r\n    \"5ee46326f4ee40e388730e63b9aeecaddc573771\" : {\r\n      \"privateKey\" : \"--(hidden)--\",\r\n      \"comment\" : \"private key and this comment are ignored.  In a real chain, the private key should NOT be stored\",\r\n      \"balance\" : \"90000000000000000000000\"\r\n    },\r\n    \"fab25c4214ebab8f02563d1ab821f2fa337fcdb8\" : {\r\n      \"privateKey\" : \"--(hidden)--\",\r\n      \"comment\" : \"private key and this comment are ignored.  In a real chain, the private key should NOT be stored\",\r\n      \"balance\" : \"90000000000000000000000\"\r\n    },\r\n    \"e0dbb7c3f8b8f875f01e277a7364fee98e252625\" : {\r\n      \"privateKey\" : \"--(hidden)--\",\r\n      \"comment\" : \"private key and this comment are ignored.  In a real chain, the private key should NOT be stored\",\r\n      \"balance\" : \"90000000000000000000000\"\r\n    }\r\n  },\r\n  \"extraData\" : \"0xf87aa00000000000000000000000000000000000000000000000000000000000000000f854948ea92c56f8157187d8441babefa146701c414fe794d94f00cc3896283e21b7481759adcc57bf0d7205941a3a39ccbe340eaaa3cddece27fd4dc46f6cc8f7946ed28d2fd48ef53a7fe39f65c14a86ceccdfb457c080c0\"\r\n}\r\n```",
    "reactions": {
      "url": "https://api.github.com/repos/hyperledger/besu/issues/comments/1765583048/reactions",
      "total_count": 0,
      "+1": 0,
      "-1": 0,
      "laugh": 0,
      "hooray": 0,
      "confused": 0,
      "heart": 0,
      "rocket": 0,
      "eyes": 0
    },
    "performed_via_github_app": null
  }
]
