{
  "url": "https://api.github.com/repos/hyperledger/besu/issues/6092",
  "repository_url": "https://api.github.com/repos/hyperledger/besu",
  "labels_url": "https://api.github.com/repos/hyperledger/besu/issues/6092/labels{/name}",
  "comments_url": "https://api.github.com/repos/hyperledger/besu/issues/6092/comments",
  "events_url": "https://api.github.com/repos/hyperledger/besu/issues/6092/events",
  "html_url": "https://github.com/hyperledger/besu/issues/6092",
  "id": 1962999258,
  "node_id": "I_kwDODE2jmc51AP3a",
  "number": 6092,
  "title": "besu t8n fails on cancun",
  "user": {
    "login": "winsvega",
    "id": 4492341,
    "node_id": "MDQ6VXNlcjQ0OTIzNDE=",
    "avatar_url": "https://avatars.githubusercontent.com/u/4492341?v=4",
    "gravatar_id": "",
    "url": "https://api.github.com/users/winsvega",
    "html_url": "https://github.com/winsvega",
    "followers_url": "https://api.github.com/users/winsvega/followers",
    "following_url": "https://api.github.com/users/winsvega/following{/other_user}",
    "gists_url": "https://api.github.com/users/winsvega/gists{/gist_id}",
    "starred_url": "https://api.github.com/users/winsvega/starred{/owner}{/repo}",
    "subscriptions_url": "https://api.github.com/users/winsvega/subscriptions",
    "organizations_url": "https://api.github.com/users/winsvega/orgs",
    "repos_url": "https://api.github.com/users/winsvega/repos",
    "events_url": "https://api.github.com/users/winsvega/events{/privacy}",
    "received_events_url": "https://api.github.com/users/winsvega/received_events",
    "type": "User",
    "site_admin": false
  },
  "labels": [

  ],
  "state": "open",
  "locked": false,
  "assignee": {
    "login": "jflo",
    "id": 345937,
    "node_id": "MDQ6VXNlcjM0NTkzNw==",
    "avatar_url": "https://avatars.githubusercontent.com/u/345937?v=4",
    "gravatar_id": "",
    "url": "https://api.github.com/users/jflo",
    "html_url": "https://github.com/jflo",
    "followers_url": "https://api.github.com/users/jflo/followers",
    "following_url": "https://api.github.com/users/jflo/following{/other_user}",
    "gists_url": "https://api.github.com/users/jflo/gists{/gist_id}",
    "starred_url": "https://api.github.com/users/jflo/starred{/owner}{/repo}",
    "subscriptions_url": "https://api.github.com/users/jflo/subscriptions",
    "organizations_url": "https://api.github.com/users/jflo/orgs",
    "repos_url": "https://api.github.com/users/jflo/repos",
    "events_url": "https://api.github.com/users/jflo/events{/privacy}",
    "received_events_url": "https://api.github.com/users/jflo/received_events",
    "type": "User",
    "site_admin": false
  },
  "assignees": [
    {
      "login": "jflo",
      "id": 345937,
      "node_id": "MDQ6VXNlcjM0NTkzNw==",
      "avatar_url": "https://avatars.githubusercontent.com/u/345937?v=4",
      "gravatar_id": "",
      "url": "https://api.github.com/users/jflo",
      "html_url": "https://github.com/jflo",
      "followers_url": "https://api.github.com/users/jflo/followers",
      "following_url": "https://api.github.com/users/jflo/following{/other_user}",
      "gists_url": "https://api.github.com/users/jflo/gists{/gist_id}",
      "starred_url": "https://api.github.com/users/jflo/starred{/owner}{/repo}",
      "subscriptions_url": "https://api.github.com/users/jflo/subscriptions",
      "organizations_url": "https://api.github.com/users/jflo/orgs",
      "repos_url": "https://api.github.com/users/jflo/repos",
      "events_url": "https://api.github.com/users/jflo/events{/privacy}",
      "received_events_url": "https://api.github.com/users/jflo/received_events",
      "type": "User",
      "site_admin": false
    }
  ],
  "milestone": null,
  "comments": 1,
  "created_at": "2023-10-26T08:36:09Z",
  "updated_at": "2023-10-26T14:14:24Z",
  "closed_at": null,
  "author_association": "NONE",
  "active_lock_reason": null,
  "body": "```\r\nRequest: test_mineBlocks\r\nAlloc:\r\n{\r\n    \"0x095e7baea6a6c7c4c2dfeb977efac326af552d87\" : {\r\n        \"balance\" : \"0x0de0b6b3a7640000\",\r\n        \"code\" : \"0x600160010160005500\",\r\n        \"nonce\" : \"0x00\",\r\n        \"storage\" : {\r\n        }\r\n    },\r\n    \"0x2adc25665018aa1fe0e6bc666dac8fc2697ff9ba\" : {\r\n        \"balance\" : \"0x00\",\r\n        \"code\" : \"0x\",\r\n        \"nonce\" : \"0x01\",\r\n        \"storage\" : {\r\n        }\r\n    },\r\n    \"0xa94f5374fce5edbc8e2a8697c15331677e6ebf0b\" : {\r\n        \"balance\" : \"0x0de0b6b3a7640000\",\r\n        \"code\" : \"0x\",\r\n        \"nonce\" : \"0x00\",\r\n        \"storage\" : {\r\n        }\r\n    }\r\n}\r\nTxs:\r\n\"0xf865f863800a83061a8094095e7baea6a6c7c4c2dfeb977efac326af552d87830186a0801ba0ffb600e63115a7362e7811894a91d8ba4330e526f22121c994c4692035dfdfd5a06198379fcac8de3dbfac48b165df4bf88e2088f294b61efb9a65fe2281c76e16\"\r\n{\r\n    \"data\" : \"0x\",\r\n    \"gasLimit\" : \"0x061a80\",\r\n    \"gasPrice\" : \"0x0a\",\r\n    \"nonce\" : \"0x00\",\r\n    \"to\" : \"0x095e7baea6a6c7c4c2dfeb977efac326af552d87\",\r\n    \"value\" : \"0x0186a0\",\r\n    \"v\" : \"0x1b\",\r\n    \"r\" : \"0xffb600e63115a7362e7811894a91d8ba4330e526f22121c994c4692035dfdfd5\",\r\n    \"s\" : \"0x6198379fcac8de3dbfac48b165df4bf88e2088f294b61efb9a65fe2281c76e16\"\r\n}\r\nEnv:\r\n{\r\n    \"currentCoinbase\" : \"0x2adc25665018aa1fe0e6bc666dac8fc2697ff9ba\",\r\n    \"currentNumber\" : \"0x01\",\r\n    \"currentTimestamp\" : \"0x03e8\",\r\n    \"currentGasLimit\" : \"0xff112233445566\",\r\n    \"previousHash\" : \"0x533ceeb5465d31e67e95e07a1aee28f5631ac2f38aa4de1886046f9aa26f650a\",\r\n    \"currentBeaconRoot\" : \"0x0000000000000000000000000000000000000000000000000000000000000000\",\r\n    \"parentTimestamp\" : \"0x00\",\r\n    \"parentDifficulty\" : \"0x00\",\r\n    \"parentUncleHash\" : \"0x1dcc4de8dec75d7aab85b567b6ccd41ad312451b948a7413f0a142fd40d49347\",\r\n    \"currentRandom\" : \"0x0000000000000000000000000000000000000000000000000000000000020000\",\r\n    \"withdrawals\" : [\r\n    ],\r\n    \"parentBaseFee\" : \"0x0b\",\r\n    \"parentGasUsed\" : \"0x00\",\r\n    \"parentGasLimit\" : \"0xff112233445566\",\r\n    \"parentBeaconBlockRoot\" : \"0x0000000000000000000000000000000000000000000000000000000000000000\",\r\n    \"parentExcessBlobGas\" : \"0x00\",\r\n    \"parentBlobGasUsed\" : \"0x00\",\r\n    \"blockHashes\" : {\r\n        \"0\" : \"0x533ceeb5465d31e67e95e07a1aee28f5631ac2f38aa4de1886046f9aa26f650a\"\r\n    }\r\n}\r\n/home/ubuntu/.retesteth/besu/start.sh --state.fork Cancun --state.reward 0 --state.chainid 1 --input.alloc /dev/shm/02fe4af4-0fb4-44f7-92c4-8eb1cb7bbf37/alloc.json --input.txs /dev/shm/02fe4af4-0fb4-44f7-92c4-8eb1cb7bbf37/txs.rlp --input.env /dev/shm/02fe4af4-0fb4-44f7-92c4-8eb1cb7bbf37/env.json --output.basedir /dev/shm/02fe4af4-0fb4-44f7-92c4-8eb1cb7bbf37 --output.result out.json --output.alloc outAlloc.json --output.errorlog /dev/shm/02fe4af4-0fb4-44f7-92c4-8eb1cb7bbf37/error.json\r\n\r\nRes:\r\n\r\nRAlloc:\r\n\r\nTool log: \r\njava.lang.IllegalArgumentException: Cannot construct instance of `org.apache.tuweni.bytes.Bytes32` (no Creators, like default constructor, exist): abstract types either need to be mapped to concrete types, have custom deserializer, or contain additional type information\r\n at [Source: UNKNOWN; byte offset: #UNKNOWN] (through reference chain: org.hyperledger.besu.ethereum.referencetests.ReferenceTestEnv[\"parentBeaconBlockRoot\"])\r\n\tat com.fasterxml.jackson.databind.ObjectMapper._convert(ObjectMapper.java:4449)\r\n\tat com.fasterxml.jackson.databind.ObjectMapper.convertValue(ObjectMapper.java:4380)\r\n\tat org.hyperledger.besu.evmtool.T8nSubCommand.run(T8nSubCommand.java:208)\r\n\tat picocli.CommandLine.executeUserObject(CommandLine.java:2026)\r\n\tat picocli.CommandLine.access$1500(CommandLine.java:148)\r\n\tat picocli.CommandLine$RunLast.executeUserObjectOfLastSubcommandWithSameParent(CommandLine.java:2461)\r\n\tat picocli.CommandLine$RunLast.handle(CommandLine.java:2453)\r\n\tat picocli.CommandLine$RunLast.handle(CommandLine.java:2415)\r\n\tat picocli.CommandLine$AbstractParseResultHandler.execute(CommandLine.java:2273)\r\n\tat picocli.CommandLine$RunLast.execute(CommandLine.java:2417)\r\n\tat picocli.CommandLine.execute(CommandLine.java:2170)\r\n\tat org.hyperledger.besu.evmtool.EvmToolCommand.execute(EvmToolCommand.java:277)\r\n\tat org.hyperledger.besu.evmtool.EvmToolCommand.execute(EvmToolCommand.java:243)\r\n\tat org.hyperledger.besu.evmtool.EvmTool.main(EvmTool.java:23)\r\nCaused by: com.fasterxml.jackson.databind.exc.InvalidDefinitionException: Cannot construct instance of `org.apache.tuweni.bytes.Bytes32` (no Creators, like default constructor, exist): abstract types either need to be mapped to concrete types, have custom deserializer, or contain additional type information\r\n at [Source: UNKNOWN; byte offset: #UNKNOWN] (through reference chain: org.hyperledger.besu.ethereum.referencetests.ReferenceTestEnv[\"parentBeaconBlockRoot\"])\r\n\tat com.fasterxml.jackson.databind.exc.InvalidDefinitionException.from(InvalidDefinitionException.java:67)\r\n\tat com.fasterxml.jackson.databind.DeserializationContext.reportBadDefinition(DeserializationContext.java:1909)\r\n\tat com.fasterxml.jackson.databind.DatabindContext.reportBadDefinition(DatabindContext.java:408)\r\n\tat com.fasterxml.jackson.databind.DeserializationContext.handleMissingInstantiator(DeserializationContext.java:1354)\r\n\tat com.fasterxml.jackson.databind.deser.AbstractDeserializer.deserialize(AbstractDeserializer.java:274)\r\n\tat com.fasterxml.jackson.databind.deser.SettableBeanProperty.deserialize(SettableBeanProperty.java:542)\r\n\tat com.fasterxml.jackson.databind.deser.BeanDeserializer._deserializeWithErrorWrapping(BeanDeserializer.java:564)\r\n\tat com.fasterxml.jackson.databind.deser.BeanDeserializer._deserializeUsingPropertyBased(BeanDeserializer.java:471)\r\n\tat com.fasterxml.jackson.databind.deser.BeanDeserializerBase.deserializeFromObjectUsingNonDefault(BeanDeserializerBase.java:1405)\r\n\tat com.fasterxml.jackson.databind.deser.BeanDeserializer.deserializeFromObject(BeanDeserializer.java:352)\r\n\tat com.fasterxml.jackson.databind.deser.BeanDeserializer.deserialize(BeanDeserializer.java:185)\r\n\tat com.fasterxml.jackson.databind.ObjectMapper._convert(ObjectMapper.java:4444)\r\n\t... 13 more\r\n\r\n```",
  "closed_by": null,
  "reactions": {
    "url": "https://api.github.com/repos/hyperledger/besu/issues/6092/reactions",
    "total_count": 0,
    "+1": 0,
    "-1": 0,
    "laugh": 0,
    "hooray": 0,
    "confused": 0,
    "heart": 0,
    "rocket": 0,
    "eyes": 0
  },
  "timeline_url": "https://api.github.com/repos/hyperledger/besu/issues/6092/timeline",
  "performed_via_github_app": null,
  "state_reason": null
}
[
  {
    "url": "https://api.github.com/repos/hyperledger/besu/issues/comments/1781219246",
    "html_url": "https://github.com/hyperledger/besu/issues/6092#issuecomment-1781219246",
    "issue_url": "https://api.github.com/repos/hyperledger/besu/issues/6092",
    "id": 1781219246,
    "node_id": "IC_kwDODE2jmc5qKz-u",
    "user": {
      "login": "jflo",
      "id": 345937,
      "node_id": "MDQ6VXNlcjM0NTkzNw==",
      "avatar_url": "https://avatars.githubusercontent.com/u/345937?v=4",
      "gravatar_id": "",
      "url": "https://api.github.com/users/jflo",
      "html_url": "https://github.com/jflo",
      "followers_url": "https://api.github.com/users/jflo/followers",
      "following_url": "https://api.github.com/users/jflo/following{/other_user}",
      "gists_url": "https://api.github.com/users/jflo/gists{/gist_id}",
      "starred_url": "https://api.github.com/users/jflo/starred{/owner}{/repo}",
      "subscriptions_url": "https://api.github.com/users/jflo/subscriptions",
      "organizations_url": "https://api.github.com/users/jflo/orgs",
      "repos_url": "https://api.github.com/users/jflo/repos",
      "events_url": "https://api.github.com/users/jflo/events{/privacy}",
      "received_events_url": "https://api.github.com/users/jflo/received_events",
      "type": "User",
      "site_admin": false
    },
    "created_at": "2023-10-26T14:14:24Z",
    "updated_at": "2023-10-26T14:14:24Z",
    "author_association": "CONTRIBUTOR",
    "body": "easy fix, are we settled on renaming \"beaconRoot\" to \"parentBeaconBlockRoot\" in the env json?",
    "reactions": {
      "url": "https://api.github.com/repos/hyperledger/besu/issues/comments/1781219246/reactions",
      "total_count": 0,
      "+1": 0,
      "-1": 0,
      "laugh": 0,
      "hooray": 0,
      "confused": 0,
      "heart": 0,
      "rocket": 0,
      "eyes": 0
    },
    "performed_via_github_app": null
  }
]
