{
  "url": "https://api.github.com/repos/ledgerwatch/erigon/issues/5120",
  "repository_url": "https://api.github.com/repos/ledgerwatch/erigon",
  "labels_url": "https://api.github.com/repos/ledgerwatch/erigon/issues/5120/labels{/name}",
  "comments_url": "https://api.github.com/repos/ledgerwatch/erigon/issues/5120/comments",
  "events_url": "https://api.github.com/repos/ledgerwatch/erigon/issues/5120/events",
  "html_url": "https://github.com/ledgerwatch/erigon/issues/5120",
  "id": 1344086007,
  "node_id": "I_kwDOC0FsAM5QHR_3",
  "number": 5120,
  "title": "Block creation is not working",
  "user": {
    "login": "anastasiyaig",
    "id": 82375995,
    "node_id": "MDQ6VXNlcjgyMzc1OTk1",
    "avatar_url": "https://avatars.githubusercontent.com/u/82375995?v=4",
    "gravatar_id": "",
    "url": "https://api.github.com/users/anastasiyaig",
    "html_url": "https://github.com/anastasiyaig",
    "followers_url": "https://api.github.com/users/anastasiyaig/followers",
    "following_url": "https://api.github.com/users/anastasiyaig/following{/other_user}",
    "gists_url": "https://api.github.com/users/anastasiyaig/gists{/gist_id}",
    "starred_url": "https://api.github.com/users/anastasiyaig/starred{/owner}{/repo}",
    "subscriptions_url": "https://api.github.com/users/anastasiyaig/subscriptions",
    "organizations_url": "https://api.github.com/users/anastasiyaig/orgs",
    "repos_url": "https://api.github.com/users/anastasiyaig/repos",
    "events_url": "https://api.github.com/users/anastasiyaig/events{/privacy}",
    "received_events_url": "https://api.github.com/users/anastasiyaig/received_events",
    "type": "User",
    "site_admin": false
  },
  "labels": [
    {
      "id": 4566396003,
      "node_id": "LA_kwDOC0FsAM8AAAABEC2sYw",
      "url": "https://api.github.com/repos/ledgerwatch/erigon/labels/Stale",
      "name": "Stale",
      "color": "ededed",
      "default": false,
      "description": null
    }
  ],
  "state": "closed",
  "locked": false,
  "assignee": null,
  "assignees": [

  ],
  "milestone": null,
  "comments": 3,
  "created_at": "2022-08-19T07:55:58Z",
  "updated_at": "2022-10-07T03:31:11Z",
  "closed_at": "2022-10-07T03:31:11Z",
  "author_association": "NONE",
  "active_lock_reason": null,
  "body": "#### System information\r\n\r\nErigon version: `erigon version 2022.99.99-dev-c1214e4a`\r\n\r\nOS & Version: `MacOS Monterey Version 12.5`\r\n\r\nCommit hash : `c1214e4ac5c987461c84a7eae12e755922e5df3d`\r\n\r\n#### Expected behaviour\r\n\r\nWhen sending transactions, new blocks should be created, transactions should be mined\r\n\r\n#### Actual behaviour\r\n\r\nTransactions are stuck in `pending`\r\n\r\n#### Steps to reproduce the behaviour\r\n\r\n1. launch erigon locally `sudo ./erigon --datadir=dev --chain dev --private.api.addr=localhost:9090 --mine --http=false --http.port=8545`\r\n2. launch rpcdaemon locally `sudo ./rpcdaemon --datadir=dev --private.api.addr=localhost:9090 --http.api=eth,erigon,web3,net,debug,trace,txpool,parity --http.port 8545`\r\n3. in metamask , connect to localhost and send transaction\r\n\r\n#### Backtrace\r\n\r\n**Erigon** log:\r\n\r\n````\r\nINFO[08-19|10:38:55.813] Build info                               git_branch=devel git_tag=v2021.10.03-1710-gc1214e4ac git_commit=c1214e4ac5c987461c84a7eae12e755922e5df3d\r\nINFO[08-19|10:38:55.816] Starting Erigon in ephemeral dev mode... \r\nINFO[08-19|10:38:55.817] Maximum peer count                       ETH=100 total=100\r\nINFO[08-19|10:38:55.817] Development chain flags set              --nodiscover=true --v5disc=false --port=:0\r\nINFO[08-19|10:38:55.818] starting HTTP APIs                       APIs=eth,erigon,engine\r\nINFO[08-19|10:38:55.818] torrent verbosity                        level=WRN\r\nINFO[08-19|10:38:57.930] Set global gas cap                       cap=50000000\r\nINFO[08-19|10:38:57.930] Using developer account                  address=0x67b1d87101671b127f5f8714789C7192f7ad340e\r\nINFO[08-19|10:38:57.932] Using custom developer period            seconds=0\r\nINFO[08-19|10:38:57.935] Opening Database                         label=chaindata path=/Users/anastasiya/erigon/build/bin/dev/chaindata\r\nINFO[08-19|10:38:57.959] Re-Opening DB in exclusive mode to apply migrations \r\nINFO[08-19|10:38:58.435] Apply migration                          name=db_schema_version5\r\nINFO[08-19|10:38:58.437] Applied migration                        name=db_schema_version5\r\nINFO[08-19|10:38:58.437] Apply migration                          name=txs_begin_end\r\nINFO[08-19|10:38:58.439] Applied migration                        name=txs_begin_end\r\nINFO[08-19|10:38:58.439] Apply migration                          name=reset_blocks_3\r\nINFO[08-19|10:38:58.439] Applied migration                        name=reset_blocks_3\r\nINFO[08-19|10:38:58.439] Updated DB schema to                     version=6.0.0\r\nINFO[08-19|10:38:58.930] Writing custom genesis block             hash=0xc493151b4991dd1bf459952509bba9bc3fb2b706299e18e36e6b78781835065d\r\nINFO[08-19|10:38:58.931] Initialised chain configuration          config=\"{ChainID: 1337, Homestead: 0, DAO: <nil>, DAO Support: false, Tangerine Whistle: 0, Spurious Dragon: 0, Byzantium: 0, Constantinople: 0, Petersburg: 0, Istanbul: 0, Muir Glacier: 0, Berlin: 0, London: 0, Arrow Glacier: <nil>, Gray Glacier: <nil>, Terminal Total Difficulty: <nil>, Merge Netsplit: <nil>, Engine: clique}\" genesis=0xc493151b4991dd1bf459952509bba9bc3fb2b706299e18e36e6b78781835065d\r\nINFO[08-19|10:38:58.932] Effective                                prune_flags= snapshot_flags= history.v2=false\r\nINFO[08-19|10:38:58.933] Initialising Ethereum protocol           network=1337\r\nINFO[08-19|10:38:58.984] Starting private RPC server              on=localhost:9090\r\nINFO[08-19|10:38:58.984] new subscription to logs established \r\nINFO[08-19|10:38:58.991] rpc filters: subscribing to Erigon events \r\nINFO[08-19|10:38:58.992] new subscription to newHeaders established \r\nINFO[08-19|10:38:58.993] New txs subscriber joined \r\nINFO[08-19|10:38:58.997] Reading JWT secret                       path=/Users/anastasiya/erigon/build/bin/dev/jwt.hex\r\nINFO[08-19|10:38:58.997] Generated JWT secret                     path=/Users/anastasiya/erigon/build/bin/dev/jwt.hex\r\nINFO[08-19|10:38:58.998] HTTP endpoint opened for Engine API      url=localhost:8551 ws=true ws.compression=true\r\nINFO[08-19|10:38:59.000] [txpool] Started \r\nINFO[08-19|10:38:59.041] Started P2P networking                   version=66 self=\"enode://da7e8d964a008e6d9ded61d71466a825d859fc84502a4fa60072ad20422345bca17d8a75f2ed99c79540fd80159c7be01fdb90ce4e65a6b317f1b55cae080c85@127.0.0.1:53797?discport=0\" name=erigon/v2022.99.99-dev-c1214e4a/darwin-amd64/go1.18.5\r\nINFO[08-19|10:38:59.042] RPC Daemon notified of new headers       from=0 to=1 header sending=127.708µs log sending=123.875µs\r\nINFO[08-19|10:38:59.043] [1/16 Headers] Waiting for headers...    from=0\r\nINFO[08-19|10:39:02.000] [1/5 MiningCreateBlock] Start mine       block=1 baseFee=875000000 gasLimit=11511229\r\nINFO[08-19|10:39:02.014] [Clique] Stored checkpoint snapshot to disk number=0 hash=0xc493151b4991dd1bf459952509bba9bc3fb2b706299e18e36e6b78781835065d\r\nINFO[08-19|10:39:02.018] [4/5 IntermediateHashes] Regeneration trie hashes started \r\nINFO[08-19|10:39:02.019] [4/5 IntermediateHashes] Trie root       hash=0x6a0673c691edfa4c4528323986bb43c579316f436ff6f8b4ac70854bbd95340b\r\nINFO[08-19|10:39:02.019] [4/5 IntermediateHashes] Regeneration ended \r\nINFO[08-19|10:39:31.949] New txs subscriber joined \r\nINFO[08-19|10:39:31.950] new subscription to newHeaders established \r\nINFO[08-19|10:39:58.470] local tx propagated                      tx_hash=4f177a48592448f307ed4c74a8aa9cda1aef476500f05122ebe38c81a0bd9ef7 announced to peers=0 broadcast to peers=0 baseFee=875000000\r\nINFO[08-19|10:39:58.994] [txpool] stat                            block=0 pending=1 baseFee=0 queued=0 alloc=26.1MB sys=40.3MB\r\nINFO[08-19|10:40:39.045] Req/resp stats                           req=0 reqMin=0 reqMax=0 skel=0 skelMin=0 skelMax=0 resp=0 respMin=0 respMax=0 dups=0\r\nINFO[08-19|10:40:39.049] Queue sizes                              anchors=0 links=0 persisted=1\r\nINFO[08-19|10:40:58.637] local tx propagated                      tx_hash=4f177a48592448f307ed4c74a8aa9cda1aef476500f05122ebe38c81a0bd9ef7 announced to peers=0 broadcast to peers=0 baseFee=875000000\r\nINFO[08-19|10:40:58.934] [p2p] GoodPeers                          eth66=0\r\nINFO[08-19|10:40:58.993] [txpool] stat                            block=0 pending=1 baseFee=0 queued=0 alloc=30.6MB sys=49.0MB\r\nINFO[08-19|10:40:59.045] Req/resp stats                           req=0 reqMin=0 reqMax=0 skel=0 skelMin=0 skelMax=0 resp=0 respMin=0 respMax=0 dups=0\r\nINFO[08-19|10:40:59.045] Queue sizes                              anchors=0 links=0 persisted=1\r\nINFO[08-19|10:41:19.045] Req/resp stats                           req=0 reqMin=0 reqMax=0 skel=0 skelMin=0 skelMax=0 resp=0 respMin=0 respMax=0 dups=0\r\nINFO[08-19|10:41:19.046] Queue sizes                              anchors=0 links=0 persisted=1\r\nINFO[08-19|10:41:39.045] Req/resp stats                           req=0 reqMin=0 reqMax=0 skel=0 skelMin=0 skelMax=0 resp=0 respMin=0 respMax=0 dups=0\r\nINFO[08-19|10:41:39.046] Queue sizes                              anchors=0 links=0 persisted=1\r\nINFO[08-19|10:41:58.992] [txpool] stat                            block=0 pending=1 baseFee=0 queued=0 alloc=21.4MB sys=49.0MB\r\nINFO[08-19|10:41:59.045] Req/resp stats                           req=0 reqMin=0 reqMax=0 skel=0 skelMin=0 skelMax=0 resp=0 respMin=0 respMax=0 dups=0\r\nINFO[08-19|10:41:59.045] Queue sizes                              anchors=0 links=0 persisted=1\r\nINFO[08-19|10:42:19.046] Req/resp stats                           req=0 reqMin=0 reqMax=0 skel=0 skelMin=0 skelMax=0 resp=0 respMin=0 respMax=0 dups=0\r\nINFO[08-19|10:42:19.046] Queue sizes                              anchors=0 links=0 persisted=1\r\nINFO[08-19|10:42:39.046] Req/resp stats                           req=0 reqMin=0 reqMax=0 skel=0 skelMin=0 skelMax=0 resp=0 respMin=0 respMax=0 dups=0\r\nINFO[08-19|10:42:39.047] Queue sizes                              anchors=0 links=0 persisted=1\r\nINFO[08-19|10:42:58.936] [p2p] GoodPeers                          eth66=0\r\nINFO[08-19|10:42:58.993] [txpool] stat                            block=0 pending=1 baseFee=0 queued=0 alloc=26.6MB sys=49.0MB\r\nINFO[08-19|10:42:59.046] Req/resp stats                           req=0 reqMin=0 reqMax=0 skel=0 skelMin=0 skelMax=0 resp=0 respMin=0 respMax=0 dups=0\r\nINFO[08-19|10:42:59.046] Queue sizes                              anchors=0 links=0 persisted=1\r\nINFO[08-19|10:43:19.046] Req/resp stats                           req=0 reqMin=0 reqMax=0 skel=0 skelMin=0 skelMax=0 resp=0 respMin=0 respMax=0 dups=0\r\nINFO[08-19|10:43:19.047] Queue sizes                              anchors=0 links=0 persisted=1\r\n^CINFO[08-19|10:43:32.080] Got interrupt, shutting down... \r\n\r\n````\r\nDaemon log:\r\n\r\n```\r\nINFO[08-19|10:33:57.167] DB schemas compatible                    reader=6.0.0 database=6.0.0\r\nINFO[08-19|10:33:57.357] rpc filters: subscribing to Erigon events \r\nINFO[08-19|10:33:57.366] HTTP endpoint opened                     url=localhost:8545 ws=false ws.compression=false grpc=false\r\nWARN[08-19|10:33:57.390] [Snapshots] reopen                       err=\"rpc error: code = Internal desc = runtime error: invalid memory address or nil pointer dereference\"\r\nWARN[08-19|10:33:57.390] [Snapshots] reopen                       err=\"rpc error: code = Internal desc = runtime error: invalid memory address or nil pointer dereference\"\r\nINFO[08-19|10:33:57.391] interfaces compatible                    remote_db= client=6.0.0 server=6.0.0\r\nINFO[08-19|10:33:57.392] interfaces compatible                    remote_service=eth_backend client=3.1.0 server=3.1.0\r\nINFO[08-19|10:33:57.392] interfaces compatible                    remote_service=mining client=1.0.0 server=1.0.0\r\nINFO[08-19|10:33:57.392] interfaces compatible                    remote_service=tx_pool client=1.0.0 server=1.0.0\r\nINFO[08-19|10:34:21.945] Submitted transaction                    hash=0x0b6e15761be718a9885dd10b915152e1771ad27de1b45c5913aaccfa27da058d from=0x67b1d87101671b127f5f8714789C7192f7ad340e nonce=3 recipient=0xa94f5374Fce5edBC8E2a8697C15331677e6EbF0B value=0x470de4df820000\r\nINFO[08-19|10:34:22.030] Submitted transaction                    hash=0xada42c1abbe1691692e285acfade58749d78e6b04e27fdbce686f3df74fc609d from=0x67b1d87101671b127f5f8714789C7192f7ad340e nonce=4 recipient=0xa94f5374Fce5edBC8E2a8697C15331677e6EbF0B value=0x470de4df820000\r\n^CINFO[08-19|10:34:46.826] Got interrupt, shutting down... \r\nINFO[08-19|10:34:46.826] Got interrupt, shutting down...          sig=interrupt\r\nINFO[08-19|10:34:46.827] Exiting... \r\nINFO[08-19|10:34:46.828] RPC server shutting down \r\nWARN[08-19|10:34:46.829] Failed to serve http endpoint            err=\"http: Server closed\"\r\nINFO[08-19|10:34:46.830] HTTP endpoint closed                     url=localhost:8545\r\nanastasiya@MacBook-Pro-Anastasiya bin % sudo ./rpcdaemon --datadir=dev --private.api.addr=localhost:9090 --http.api=eth,erigon,web3,net,debug,trace,txpool,parity --http.port 8545\r\nINFO[08-19|10:35:37.293] DB schemas compatible                    reader=6.0.0 database=6.0.0\r\nINFO[08-19|10:35:37.486] rpc filters: subscribing to Erigon events \r\nINFO[08-19|10:35:37.494] HTTP endpoint opened                     url=localhost:8545 ws=false ws.compression=false grpc=false\r\nINFO[08-19|10:35:37.515] interfaces compatible                    remote_db= client=6.0.0 server=6.0.0\r\nWARN[08-19|10:35:37.516] [Snapshots] reopen                       err=\"rpc error: code = Internal desc = runtime error: invalid memory address or nil pointer dereference\"\r\nWARN[08-19|10:35:37.516] [Snapshots] reopen                       err=\"rpc error: code = Internal desc = runtime error: invalid memory address or nil pointer dereference\"\r\nINFO[08-19|10:35:37.516] interfaces compatible                    remote_service=eth_backend client=3.1.0 server=3.1.0\r\nINFO[08-19|10:35:37.516] interfaces compatible                    remote_service=mining client=1.0.0 server=1.0.0\r\nINFO[08-19|10:35:37.517] interfaces compatible                    remote_service=tx_pool client=1.0.0 server=1.0.0\r\nINFO[08-19|10:35:46.873] Submitted transaction                    hash=0x4f177a48592448f307ed4c74a8aa9cda1aef476500f05122ebe38c81a0bd9ef7 from=0x67b1d87101671b127f5f8714789C7192f7ad340e nonce=0 recipient=0xa94f5374Fce5edBC8E2a8697C15331677e6EbF0B value=0x470de4df820000\r\nINFO[08-19|10:35:46.957] Submitted transaction                    hash=0xf15fa5dec7921040d1447372a5456464f173370cf91e45c1cacd3b94590bd267 from=0x67b1d87101671b127f5f8714789C7192f7ad340e nonce=1 recipient=0xa94f5374Fce5edBC8E2a8697C15331677e6EbF0B value=0x470de4df820000\r\n^CINFO[08-19|10:35:57.113] Got interrupt, shutting down... \r\n```\r\n\r\n```\r\nresponse = {'error': {'code': -32000, 'message': 'INTERNAL_ERROR: could not replace existing tx'}, 'id': 4, 'jsonrpc': '2.0'}\r\nparams = ('0x02f86f8205398080843b9aca0082520894a94f5374fce5edbc8e2a8697c15331677e6ebf0b87470de4df82000080c080a091fd8876d967678714fc09b350c79f257349c7f6bdee7a3b193f7f6595e3510da07fd6f8af2df8e118633e4da006fe066e47dbdc1d813343c98d49cfba38901641',)\r\n```",
  "closed_by": {
    "login": "github-actions[bot]",
    "id": 41898282,
    "node_id": "MDM6Qm90NDE4OTgyODI=",
    "avatar_url": "https://avatars.githubusercontent.com/in/15368?v=4",
    "gravatar_id": "",
    "url": "https://api.github.com/users/github-actions%5Bbot%5D",
    "html_url": "https://github.com/apps/github-actions",
    "followers_url": "https://api.github.com/users/github-actions%5Bbot%5D/followers",
    "following_url": "https://api.github.com/users/github-actions%5Bbot%5D/following{/other_user}",
    "gists_url": "https://api.github.com/users/github-actions%5Bbot%5D/gists{/gist_id}",
    "starred_url": "https://api.github.com/users/github-actions%5Bbot%5D/starred{/owner}{/repo}",
    "subscriptions_url": "https://api.github.com/users/github-actions%5Bbot%5D/subscriptions",
    "organizations_url": "https://api.github.com/users/github-actions%5Bbot%5D/orgs",
    "repos_url": "https://api.github.com/users/github-actions%5Bbot%5D/repos",
    "events_url": "https://api.github.com/users/github-actions%5Bbot%5D/events{/privacy}",
    "received_events_url": "https://api.github.com/users/github-actions%5Bbot%5D/received_events",
    "type": "Bot",
    "site_admin": false
  },
  "reactions": {
    "url": "https://api.github.com/repos/ledgerwatch/erigon/issues/5120/reactions",
    "total_count": 0,
    "+1": 0,
    "-1": 0,
    "laugh": 0,
    "hooray": 0,
    "confused": 0,
    "heart": 0,
    "rocket": 0,
    "eyes": 0
  },
  "timeline_url": "https://api.github.com/repos/ledgerwatch/erigon/issues/5120/timeline",
  "performed_via_github_app": null,
  "state_reason": "not_planned"
}
[
  {
    "url": "https://api.github.com/repos/ledgerwatch/erigon/issues/comments/1220370176",
    "html_url": "https://github.com/ledgerwatch/erigon/issues/5120#issuecomment-1220370176",
    "issue_url": "https://api.github.com/repos/ledgerwatch/erigon/issues/5120",
    "id": 1220370176,
    "node_id": "IC_kwDOC0FsAM5IvV8A",
    "user": {
      "login": "anastasiyaig",
      "id": 82375995,
      "node_id": "MDQ6VXNlcjgyMzc1OTk1",
      "avatar_url": "https://avatars.githubusercontent.com/u/82375995?v=4",
      "gravatar_id": "",
      "url": "https://api.github.com/users/anastasiyaig",
      "html_url": "https://github.com/anastasiyaig",
      "followers_url": "https://api.github.com/users/anastasiyaig/followers",
      "following_url": "https://api.github.com/users/anastasiyaig/following{/other_user}",
      "gists_url": "https://api.github.com/users/anastasiyaig/gists{/gist_id}",
      "starred_url": "https://api.github.com/users/anastasiyaig/starred{/owner}{/repo}",
      "subscriptions_url": "https://api.github.com/users/anastasiyaig/subscriptions",
      "organizations_url": "https://api.github.com/users/anastasiyaig/orgs",
      "repos_url": "https://api.github.com/users/anastasiyaig/repos",
      "events_url": "https://api.github.com/users/anastasiyaig/events{/privacy}",
      "received_events_url": "https://api.github.com/users/anastasiyaig/received_events",
      "type": "User",
      "site_admin": false
    },
    "created_at": "2022-08-19T07:59:19Z",
    "updated_at": "2022-08-19T07:59:19Z",
    "author_association": "NONE",
    "body": "all good with commit `f868bf667815d0baadda9ab91a06295fc3d01bf4` but i did not bisect further ",
    "reactions": {
      "url": "https://api.github.com/repos/ledgerwatch/erigon/issues/comments/1220370176/reactions",
      "total_count": 0,
      "+1": 0,
      "-1": 0,
      "laugh": 0,
      "hooray": 0,
      "confused": 0,
      "heart": 0,
      "rocket": 0,
      "eyes": 0
    },
    "performed_via_github_app": null
  },
  {
    "url": "https://api.github.com/repos/ledgerwatch/erigon/issues/comments/1261727403",
    "html_url": "https://github.com/ledgerwatch/erigon/issues/5120#issuecomment-1261727403",
    "issue_url": "https://api.github.com/repos/ledgerwatch/erigon/issues/5120",
    "id": 1261727403,
    "node_id": "IC_kwDOC0FsAM5LNG6r",
    "user": {
      "login": "github-actions[bot]",
      "id": 41898282,
      "node_id": "MDM6Qm90NDE4OTgyODI=",
      "avatar_url": "https://avatars.githubusercontent.com/in/15368?v=4",
      "gravatar_id": "",
      "url": "https://api.github.com/users/github-actions%5Bbot%5D",
      "html_url": "https://github.com/apps/github-actions",
      "followers_url": "https://api.github.com/users/github-actions%5Bbot%5D/followers",
      "following_url": "https://api.github.com/users/github-actions%5Bbot%5D/following{/other_user}",
      "gists_url": "https://api.github.com/users/github-actions%5Bbot%5D/gists{/gist_id}",
      "starred_url": "https://api.github.com/users/github-actions%5Bbot%5D/starred{/owner}{/repo}",
      "subscriptions_url": "https://api.github.com/users/github-actions%5Bbot%5D/subscriptions",
      "organizations_url": "https://api.github.com/users/github-actions%5Bbot%5D/orgs",
      "repos_url": "https://api.github.com/users/github-actions%5Bbot%5D/repos",
      "events_url": "https://api.github.com/users/github-actions%5Bbot%5D/events{/privacy}",
      "received_events_url": "https://api.github.com/users/github-actions%5Bbot%5D/received_events",
      "type": "Bot",
      "site_admin": false
    },
    "created_at": "2022-09-29T04:06:19Z",
    "updated_at": "2022-09-29T04:06:19Z",
    "author_association": "NONE",
    "body": "This issue is stale because it has been open for 40 days with no activity. Remove stale label or comment, or this will be closed in 7 days.",
    "reactions": {
      "url": "https://api.github.com/repos/ledgerwatch/erigon/issues/comments/1261727403/reactions",
      "total_count": 0,
      "+1": 0,
      "-1": 0,
      "laugh": 0,
      "hooray": 0,
      "confused": 0,
      "heart": 0,
      "rocket": 0,
      "eyes": 0
    },
    "performed_via_github_app": null
  },
  {
    "url": "https://api.github.com/repos/ledgerwatch/erigon/issues/comments/1271071123",
    "html_url": "https://github.com/ledgerwatch/erigon/issues/5120#issuecomment-1271071123",
    "issue_url": "https://api.github.com/repos/ledgerwatch/erigon/issues/5120",
    "id": 1271071123,
    "node_id": "IC_kwDOC0FsAM5LwwGT",
    "user": {
      "login": "github-actions[bot]",
      "id": 41898282,
      "node_id": "MDM6Qm90NDE4OTgyODI=",
      "avatar_url": "https://avatars.githubusercontent.com/in/15368?v=4",
      "gravatar_id": "",
      "url": "https://api.github.com/users/github-actions%5Bbot%5D",
      "html_url": "https://github.com/apps/github-actions",
      "followers_url": "https://api.github.com/users/github-actions%5Bbot%5D/followers",
      "following_url": "https://api.github.com/users/github-actions%5Bbot%5D/following{/other_user}",
      "gists_url": "https://api.github.com/users/github-actions%5Bbot%5D/gists{/gist_id}",
      "starred_url": "https://api.github.com/users/github-actions%5Bbot%5D/starred{/owner}{/repo}",
      "subscriptions_url": "https://api.github.com/users/github-actions%5Bbot%5D/subscriptions",
      "organizations_url": "https://api.github.com/users/github-actions%5Bbot%5D/orgs",
      "repos_url": "https://api.github.com/users/github-actions%5Bbot%5D/repos",
      "events_url": "https://api.github.com/users/github-actions%5Bbot%5D/events{/privacy}",
      "received_events_url": "https://api.github.com/users/github-actions%5Bbot%5D/received_events",
      "type": "Bot",
      "site_admin": false
    },
    "created_at": "2022-10-07T03:31:10Z",
    "updated_at": "2022-10-07T03:31:10Z",
    "author_association": "NONE",
    "body": "This issue was closed because it has been stalled for 7 days with no activity.",
    "reactions": {
      "url": "https://api.github.com/repos/ledgerwatch/erigon/issues/comments/1271071123/reactions",
      "total_count": 0,
      "+1": 0,
      "-1": 0,
      "laugh": 0,
      "hooray": 0,
      "confused": 0,
      "heart": 0,
      "rocket": 0,
      "eyes": 0
    },
    "performed_via_github_app": null
  }
]
