{
  "url": "https://api.github.com/repos/ethereum/tests/issues/464",
  "repository_url": "https://api.github.com/repos/ethereum/tests",
  "labels_url": "https://api.github.com/repos/ethereum/tests/issues/464/labels{/name}",
  "comments_url": "https://api.github.com/repos/ethereum/tests/issues/464/comments",
  "events_url": "https://api.github.com/repos/ethereum/tests/issues/464/events",
  "html_url": "https://github.com/ethereum/tests/issues/464",
  "id": 327723996,
  "node_id": "MDU6SXNzdWUzMjc3MjM5OTY=",
  "number": 464,
  "title": "Blockchain Tests Format Changes",
  "user": {
    "login": "winsvega",
    "id": 4492341,
    "node_id": "MDQ6VXNlcjQ0OTIzNDE=",
    "avatar_url": "https://avatars.githubusercontent.com/u/4492341?v=4",
    "gravatar_id": "",
    "url": "https://api.github.com/users/winsvega",
    "html_url": "https://github.com/winsvega",
    "followers_url": "https://api.github.com/users/winsvega/followers",
    "following_url": "https://api.github.com/users/winsvega/following{/other_user}",
    "gists_url": "https://api.github.com/users/winsvega/gists{/gist_id}",
    "starred_url": "https://api.github.com/users/winsvega/starred{/owner}{/repo}",
    "subscriptions_url": "https://api.github.com/users/winsvega/subscriptions",
    "organizations_url": "https://api.github.com/users/winsvega/orgs",
    "repos_url": "https://api.github.com/users/winsvega/repos",
    "events_url": "https://api.github.com/users/winsvega/events{/privacy}",
    "received_events_url": "https://api.github.com/users/winsvega/received_events",
    "type": "User",
    "site_admin": false
  },
  "labels": [
    {
      "id": 1164804054,
      "node_id": "MDU6TGFiZWwxMTY0ODA0MDU0",
      "url": "https://api.github.com/repos/ethereum/tests/labels/breaking-change",
      "name": "breaking-change",
      "color": "ef988b",
      "default": false,
      "description": "Items with this tag should be called out in release notes"
    }
  ],
  "state": "closed",
  "locked": false,
  "assignee": null,
  "assignees": [

  ],
  "milestone": null,
  "comments": 2,
  "created_at": "2018-05-30T13:11:26Z",
  "updated_at": "2019-11-08T22:58:37Z",
  "closed_at": "2019-11-08T22:58:37Z",
  "author_association": "MEMBER",
  "active_lock_reason": null,
  "body": "A small change to the blockchain test format is needed. \r\nThis format is used by have and many clients so I want to keep the changes at minimum. \r\nHowever we do not have any agreed format scheme so far. I think some fields could be removed as it is obsolite. \r\n\r\nThe current blockchain format looks like this:\r\n```\r\n{\r\n    \"add11_d0g0v0_Byzantium\" : {\r\n        \"_info\" : {\r\n            \"comment\" : \"\",\r\n            \"filledwith\" : \"cpp-1.3.0+commit.8fb57c56.Linux.g++\",\r\n            \"lllcversion\" : \"Version: 0.4.20-develop.2018.1.8+commit.2548228b.Linux.g++\",\r\n            \"source\" : \"src/BlockchainTestsFiller/GeneralStateTests/stExample/add11_d0g0v0Filler.json\",\r\n            \"sourceHash\" : \"9808cacd8f347355858cefd1d92ef14147e16909768505207c42e0340d4fb1b6\"\r\n        },\r\n        \"blocks\" : [\r\n            {\r\n                \"blockHeader\" : {\r\n                    \"bloom\" : \"0x00000000000000000000000000000000000000000000000000000000000000000000000000000000000000000000000000000000000000000000000000000000000000000000000000000000000000000000000000000000000000000000000000000000000000000000000000000000000000000000000000000000000000000000000000000000000000000000000000000000000000000000000000000000000000000000000000000000000000000000000000000000000000000000000000000000000000000000000000000000000000000000000000000000000000000000000000000000000000000000000000000000000000000000000000000000\",\r\n                    \"coinbase\" : \"0x2adc25665018aa1fe0e6bc666dac8fc2697ff9ba\",\r\n                    \"difficulty\" : \"0x020000\",\r\n                    \"extraData\" : \"\",\r\n                    \"gasLimit\" : \"0x0f4240\",\r\n                    \"gasUsed\" : \"0xa034\",\r\n                    \"hash\" : \"0x758938e476972612fd1756c62b54ffb18f8c30b51c37d7ab25b94869e0f76e66\",\r\n                    \"mixHash\" : \"0x80fec5d1292bfe4fd831b54a7559389e5b98f13c2fce165cd3e246b228adc0c4\",\r\n                    \"nonce\" : \"0xf44b34eca2bf9916\",\r\n                    \"number\" : \"0x01\",\r\n                    \"parentHash\" : \"0x26f4cb1cb9685bad697c0c16ca0d27fe0a4b09364f83ed8418cef0d523783625\",\r\n                    \"receiptTrie\" : \"0x5a0b89fb1e5f44d02b5900c39683a1796c591b2c3b08e3b1bfc94f5aa4f3c44d\",\r\n                    \"stateRoot\" : \"0xb15e96a28489e2cf9e6458dd731ba124fe6f472c11417227e934a3f40af1bbfd\",\r\n                    \"timestamp\" : \"0x03e8\",\r\n                    \"transactionsTrie\" : \"0x93ca2a18d52e7c1846f7b104e2fc1e5fdc71ebe38187248f9437d39e74f43aab\",\r\n                    \"uncleHash\" : \"0x1dcc4de8dec75d7aab85b567b6ccd41ad312451b948a7413f0a142fd40d49347\"\r\n                },\r\n                \"rlp\" : \"0xf90262f901f7a026f4cb1cb9685bad697c0c16ca0d27fe0a4b09364f83ed8418cef0d523783625a01dcc4de8dec75d7aab85b567b6ccd41ad312451b948a7413f0a142fd40d49347942adc25665018aa1fe0e6bc666dac8fc2697ff9baa0b15e96a28489e2cf9e6458dd731ba124fe6f472c11417227e934a3f40af1bbfda093ca2a18d52e7c1846f7b104e2fc1e5fdc71ebe38187248f9437d39e74f43aaba05a0b89fb1e5f44d02b5900c39683a1796c591b2c3b08e3b1bfc94f5aa4f3c44db90100000000000000000000000000000000000000000000000000000000000000000000000000000000000000000000000000000000000000000000000000000000000000000000000000000000000000000000000000000000000000000000000000000000000000000000000000000000000000000000000000000000000000000000000000000000000000000000000000000000000000000000000000000000000000000000000000000000000000000000000000000000000000000000000000000000000000000000000000000000000000000000000000000000000000000000000000000000000000000000000000000000000000000000000000000000008302000001830f424082a0348203e880a080fec5d1292bfe4fd831b54a7559389e5b98f13c2fce165cd3e246b228adc0c488f44b34eca2bf9916f865f863800183061a8094095e7baea6a6c7c4c2dfeb977efac326af552d87830186a0801ca0e94818d1f3b0c69eb37720145a5ead7fbf6f8d80139dd53953b4a782301050a3a01fcf46908c01576715411be0857e30027d6be3250a3653f049b3ff8d74d2540cc0\",\r\n                \"transactions\" : [\r\n                    {\r\n                        \"data\" : \"0x\",\r\n                        \"gasLimit\" : \"0x061a80\",\r\n                        \"gasPrice\" : \"0x01\",\r\n                        \"nonce\" : \"0x00\",\r\n                        \"r\" : \"0xe94818d1f3b0c69eb37720145a5ead7fbf6f8d80139dd53953b4a782301050a3\",\r\n                        \"s\" : \"0x1fcf46908c01576715411be0857e30027d6be3250a3653f049b3ff8d74d2540c\",\r\n                        \"to\" : \"0x095e7baea6a6c7c4c2dfeb977efac326af552d87\",\r\n                        \"v\" : \"0x1c\",\r\n                        \"value\" : \"0x0186a0\"\r\n                    }\r\n                ],\r\n                \"uncleHeaders\" : [\r\n                ]\r\n            }\r\n        ],\r\n        \"genesisBlockHeader\" : {\r\n            \"bloom\" : \"0x00000000000000000000000000000000000000000000000000000000000000000000000000000000000000000000000000000000000000000000000000000000000000000000000000000000000000000000000000000000000000000000000000000000000000000000000000000000000000000000000000000000000000000000000000000000000000000000000000000000000000000000000000000000000000000000000000000000000000000000000000000000000000000000000000000000000000000000000000000000000000000000000000000000000000000000000000000000000000000000000000000000000000000000000000000000\",\r\n            \"coinbase\" : \"0x2adc25665018aa1fe0e6bc666dac8fc2697ff9ba\",\r\n            \"difficulty\" : \"0x020000\",\r\n            \"extraData\" : \"0x42\",\r\n            \"gasLimit\" : \"0x0f4240\",\r\n            \"gasUsed\" : \"0x00\",\r\n            \"hash\" : \"0x26f4cb1cb9685bad697c0c16ca0d27fe0a4b09364f83ed8418cef0d523783625\",\r\n            \"mixHash\" : \"0x56e81f171bcc55a6ff8345e692c0f86e5b48e01b996cadc001622fb5e363b421\",\r\n            \"nonce\" : \"0x0102030405060708\",\r\n            \"number\" : \"0x00\",\r\n            \"parentHash\" : \"0x0000000000000000000000000000000000000000000000000000000000000000\",\r\n            \"receiptTrie\" : \"0x56e81f171bcc55a6ff8345e692c0f86e5b48e01b996cadc001622fb5e363b421\",\r\n            \"stateRoot\" : \"0x4b4b7a0d58a2388c0e6b3b048c3c27edd6febc6f04171167ed15a77ab2e60b16\",\r\n            \"timestamp\" : \"0x03b6\",\r\n            \"transactionsTrie\" : \"0x56e81f171bcc55a6ff8345e692c0f86e5b48e01b996cadc001622fb5e363b421\",\r\n            \"uncleHash\" : \"0x1dcc4de8dec75d7aab85b567b6ccd41ad312451b948a7413f0a142fd40d49347\"\r\n        },\r\n        \"genesisRLP\" : \"0xf901faf901f5a00000000000000000000000000000000000000000000000000000000000000000a01dcc4de8dec75d7aab85b567b6ccd41ad312451b948a7413f0a142fd40d49347942adc25665018aa1fe0e6bc666dac8fc2697ff9baa04b4b7a0d58a2388c0e6b3b048c3c27edd6febc6f04171167ed15a77ab2e60b16a056e81f171bcc55a6ff8345e692c0f86e5b48e01b996cadc001622fb5e363b421a056e81f171bcc55a6ff8345e692c0f86e5b48e01b996cadc001622fb5e363b421b90100000000000000000000000000000000000000000000000000000000000000000000000000000000000000000000000000000000000000000000000000000000000000000000000000000000000000000000000000000000000000000000000000000000000000000000000000000000000000000000000000000000000000000000000000000000000000000000000000000000000000000000000000000000000000000000000000000000000000000000000000000000000000000000000000000000000000000000000000000000000000000000000000000000000000000000000000000000000000000000000000000000000000000000000000000000008302000080830f4240808203b642a056e81f171bcc55a6ff8345e692c0f86e5b48e01b996cadc001622fb5e363b421880102030405060708c0c0\",\r\n        \"lastblockhash\" : \"0x758938e476972612fd1756c62b54ffb18f8c30b51c37d7ab25b94869e0f76e66\",\r\n        \"network\" : \"Byzantium\",\r\n        \"postState\" : {\r\n            \"0x095e7baea6a6c7c4c2dfeb977efac326af552d87\" : {\r\n                \"balance\" : \"0x0de0b6b3a76586a0\",\r\n                \"code\" : \"0x6001600101600055\",\r\n                \"nonce\" : \"0x00\",\r\n                \"storage\" : {\r\n                    \"0x00\" : \"0x02\"\r\n                }\r\n            },\r\n            \"0x2adc25665018aa1fe0e6bc666dac8fc2697ff9ba\" : {\r\n                \"balance\" : \"0x29a2241af62ca034\",\r\n                \"code\" : \"\",\r\n                \"nonce\" : \"0x00\",\r\n                \"storage\" : {\r\n                }\r\n            },\r\n            \"0xa94f5374fce5edbc8e2a8697c15331677e6ebf0b\" : {\r\n                \"balance\" : \"0x0de0b6b3a761d92c\",\r\n                \"code\" : \"\",\r\n                \"nonce\" : \"0x01\",\r\n                \"storage\" : {\r\n                }\r\n            }\r\n        },\r\n        \"pre\" : {\r\n            \"0x095e7baea6a6c7c4c2dfeb977efac326af552d87\" : {\r\n                \"balance\" : \"0x0de0b6b3a7640000\",\r\n                \"code\" : \"0x6001600101600055\",\r\n                \"nonce\" : \"0x00\",\r\n                \"storage\" : {\r\n                }\r\n            },\r\n            \"0xa94f5374fce5edbc8e2a8697c15331677e6ebf0b\" : {\r\n                \"balance\" : \"0x0de0b6b3a7640000\",\r\n                \"code\" : \"\",\r\n                \"nonce\" : \"0x00\",\r\n                \"storage\" : {\r\n                }\r\n            }\r\n        }\r\n    }\r\n}\r\n```\r\n\r\nI have found out that this genesis fields are the minimum of information that is required for chain initialization:\r\n\r\n```\r\n    data[\"author\"] = m_genesisHeader.getData().at(\"coinbase\");    // Miner reward address\r\n    data[\"difficulty\"] = m_genesisHeader.getData().at(\"difficulty\");   // Block difficulty\r\n    data[\"gasLimit\"] = m_genesisHeader.getData().at(\"gasLimit\");  // Block gasLimit\r\n    data[\"nonce\"] = m_genesisHeader.getData().at(\"nonce\");         // for current tests compatibility.  could be dropped.\r\n    data[\"extraData\"] = m_genesisHeader.getData().at(\"extraData\");    // for current tests compatibility. could be dropped.\r\n    data[\"timestamp\"] = m_genesisHeader.getData().at(\"timestamp\");  // Block timestamp for difficulty calc\r\n    data[\"mixHash\"] = m_genesisHeader.getData().at(\"mixHash\");       // for current tests compatibility. could be dropped.\r\n```\r\nWe don't really need rlp decoded fields;\r\nThe changed format could be like this:\r\n```\r\n{\r\n    \"add11_d0g0v0_Byzantium\" : {\r\n        \"_info\" : {\r\n            \"comment\" : \"\",\r\n            \"filledwith\" : \"cpp-1.3.0+commit.8fb57c56.Linux.g++\",\r\n            \"lllcversion\" : \"Version: 0.4.20-develop.2018.1.8+commit.2548228b.Linux.g++\",\r\n            \"source\" : \"src/BlockchainTestsFiller/GeneralStateTests/stExample/add11_d0g0v0Filler.json\",\r\n            \"sourceHash\" : \"9808cacd8f347355858cefd1d92ef14147e16909768505207c42e0340d4fb1b6\"\r\n        },\r\n        \"blocks\" : [\r\n            {\r\n                \"rlp\" : \"0xf90262f901f7a026f4cb1cb9685bad697c0c16ca0d27fe0a4b09364f83ed8418cef0d523783625a01dcc4de8dec75d7aab85b567b6ccd41ad312451b948a7413f0a142fd40d49347942adc25665018aa1fe0e6bc666dac8fc2697ff9baa0b15e96a28489e2cf9e6458dd731ba124fe6f472c11417227e934a3f40af1bbfda093ca2a18d52e7c1846f7b104e2fc1e5fdc71ebe38187248f9437d39e74f43aaba05a0b89fb1e5f44d02b5900c39683a1796c591b2c3b08e3b1bfc94f5aa4f3c44db90100000000000000000000000000000000000000000000000000000000000000000000000000000000000000000000000000000000000000000000000000000000000000000000000000000000000000000000000000000000000000000000000000000000000000000000000000000000000000000000000000000000000000000000000000000000000000000000000000000000000000000000000000000000000000000000000000000000000000000000000000000000000000000000000000000000000000000000000000000000000000000000000000000000000000000000000000000000000000000000000000000000000000000000000000000000008302000001830f424082a0348203e880a080fec5d1292bfe4fd831b54a7559389e5b98f13c2fce165cd3e246b228adc0c488f44b34eca2bf9916f865f863800183061a8094095e7baea6a6c7c4c2dfeb977efac326af552d87830186a0801ca0e94818d1f3b0c69eb37720145a5ead7fbf6f8d80139dd53953b4a782301050a3a01fcf46908c01576715411be0857e30027d6be3250a3653f049b3ff8d74d2540cc0\",\r\n                 \"exceptions\" : \"GasLimitReached\"\r\n            }\r\n        ],\r\n        \"genesisBlockHeader\" : {\r\n            \"coinbase\" : \"0x2adc25665018aa1fe0e6bc666dac8fc2697ff9ba\",\r\n            \"difficulty\" : \"0x020000\",\r\n            \"extraData\" : \"0x42\",\r\n            \"gasLimit\" : \"0x0f4240\",\r\n            \"mixHash\" : \"0x56e81f171bcc55a6ff8345e692c0f86e5b48e01b996cadc001622fb5e363b421\",\r\n            \"nonce\" : \"0x0102030405060708\",\r\n            \"timestamp\" : \"0x03b6\",\r\n        },\r\n        \"lastblockhash\" : \"0x758938e476972612fd1756c62b54ffb18f8c30b51c37d7ab25b94869e0f76e66\",\r\n        \"network\" : \"Byzantium\",\r\n        \"engine\" : \"NoProof\", \r\n        \"postState\" : {\r\n            \"0x095e7baea6a6c7c4c2dfeb977efac326af552d87\" : {\r\n                \"balance\" : \"0x0de0b6b3a76586a0\",\r\n                \"code\" : \"0x6001600101600055\",\r\n                \"nonce\" : \"0x00\",\r\n                \"storage\" : {\r\n                    \"0x00\" : \"0x02\"\r\n                }\r\n            },\r\n            \"0x2adc25665018aa1fe0e6bc666dac8fc2697ff9ba\" : {\r\n                \"balance\" : \"0x29a2241af62ca034\",\r\n                \"code\" : \"\",\r\n                \"nonce\" : \"0x00\",\r\n                \"storage\" : {\r\n                }\r\n            },\r\n            \"0xa94f5374fce5edbc8e2a8697c15331677e6ebf0b\" : {\r\n                \"balance\" : \"0x0de0b6b3a761d92c\",\r\n                \"code\" : \"\",\r\n                \"nonce\" : \"0x01\",\r\n                \"storage\" : {\r\n                }\r\n            }\r\n        },\r\n        \"pre\" : {\r\n            \"0x095e7baea6a6c7c4c2dfeb977efac326af552d87\" : {\r\n                \"balance\" : \"0x0de0b6b3a7640000\",\r\n                \"code\" : \"0x6001600101600055\",\r\n                \"nonce\" : \"0x00\",\r\n                \"storage\" : {\r\n                }\r\n            },\r\n            \"0xa94f5374fce5edbc8e2a8697c15331677e6ebf0b\" : {\r\n                \"balance\" : \"0x0de0b6b3a7640000\",\r\n                \"code\" : \"\",\r\n                \"nonce\" : \"0x00\",\r\n                \"storage\" : {\r\n                }\r\n            }\r\n        }\r\n    }\r\n}\r\n```\r\n\r\nThis is a small change. \r\n\r\nIf a block is invalid then there will be field `\"exceptions\" : \"exceptionName\"`. Clients have different exceptions so the exception name is just a comment. If there is no such field the block must be valid and imported without issues.   \r\n\r\nSections Transactions and Uncles are removed. The information about it is in RLP. \r\nNew field `\"engine\" : \"NoProof\"`,  - meaning that you dont have to check the block's  difficulty and nonce in this test. (should optimize the test generation time and test execution time) \r\n\r\nThis is a small change that should not be hard to change on other clients. \r\nHowever I would like to rise the question of developing ethereum tests to an even more general set of tests which could be used by other ethereum implementations. \r\n\r\nThe fields `\"genesisBlockHeader\"` , `\"engine\"`, `\"pre\"` and `\"network\"`  basically represent genesis.json configuration. If we come to a standart in such configuration we could encode in into blockchain tests as well. \r\n\r\nFathermore if in such configuration you would be able to configure EVM opcode gasPrices - the blockchain tests could be used for other client implementations. ",
  "closed_by": {
    "login": "winsvega",
    "id": 4492341,
    "node_id": "MDQ6VXNlcjQ0OTIzNDE=",
    "avatar_url": "https://avatars.githubusercontent.com/u/4492341?v=4",
    "gravatar_id": "",
    "url": "https://api.github.com/users/winsvega",
    "html_url": "https://github.com/winsvega",
    "followers_url": "https://api.github.com/users/winsvega/followers",
    "following_url": "https://api.github.com/users/winsvega/following{/other_user}",
    "gists_url": "https://api.github.com/users/winsvega/gists{/gist_id}",
    "starred_url": "https://api.github.com/users/winsvega/starred{/owner}{/repo}",
    "subscriptions_url": "https://api.github.com/users/winsvega/subscriptions",
    "organizations_url": "https://api.github.com/users/winsvega/orgs",
    "repos_url": "https://api.github.com/users/winsvega/repos",
    "events_url": "https://api.github.com/users/winsvega/events{/privacy}",
    "received_events_url": "https://api.github.com/users/winsvega/received_events",
    "type": "User",
    "site_admin": false
  },
  "reactions": {
    "url": "https://api.github.com/repos/ethereum/tests/issues/464/reactions",
    "total_count": 0,
    "+1": 0,
    "-1": 0,
    "laugh": 0,
    "hooray": 0,
    "confused": 0,
    "heart": 0,
    "rocket": 0,
    "eyes": 0
  },
  "timeline_url": "https://api.github.com/repos/ethereum/tests/issues/464/timeline",
  "performed_via_github_app": null,
  "state_reason": "completed"
}
[
  {
    "url": "https://api.github.com/repos/ethereum/tests/issues/comments/393156930",
    "html_url": "https://github.com/ethereum/tests/issues/464#issuecomment-393156930",
    "issue_url": "https://api.github.com/repos/ethereum/tests/issues/464",
    "id": 393156930,
    "node_id": "MDEyOklzc3VlQ29tbWVudDM5MzE1NjkzMA==",
    "user": {
      "login": "winsvega",
      "id": 4492341,
      "node_id": "MDQ6VXNlcjQ0OTIzNDE=",
      "avatar_url": "https://avatars.githubusercontent.com/u/4492341?v=4",
      "gravatar_id": "",
      "url": "https://api.github.com/users/winsvega",
      "html_url": "https://github.com/winsvega",
      "followers_url": "https://api.github.com/users/winsvega/followers",
      "following_url": "https://api.github.com/users/winsvega/following{/other_user}",
      "gists_url": "https://api.github.com/users/winsvega/gists{/gist_id}",
      "starred_url": "https://api.github.com/users/winsvega/starred{/owner}{/repo}",
      "subscriptions_url": "https://api.github.com/users/winsvega/subscriptions",
      "organizations_url": "https://api.github.com/users/winsvega/orgs",
      "repos_url": "https://api.github.com/users/winsvega/repos",
      "events_url": "https://api.github.com/users/winsvega/events{/privacy}",
      "received_events_url": "https://api.github.com/users/winsvega/received_events",
      "type": "User",
      "site_admin": false
    },
    "created_at": "2018-05-30T13:14:45Z",
    "updated_at": "2018-05-30T13:14:45Z",
    "author_association": "MEMBER",
    "body": "https://github.com/ethereum/EIPs/issues/1085",
    "reactions": {
      "url": "https://api.github.com/repos/ethereum/tests/issues/comments/393156930/reactions",
      "total_count": 0,
      "+1": 0,
      "-1": 0,
      "laugh": 0,
      "hooray": 0,
      "confused": 0,
      "heart": 0,
      "rocket": 0,
      "eyes": 0
    },
    "performed_via_github_app": null
  },
  {
    "url": "https://api.github.com/repos/ethereum/tests/issues/comments/552023273",
    "html_url": "https://github.com/ethereum/tests/issues/464#issuecomment-552023273",
    "issue_url": "https://api.github.com/repos/ethereum/tests/issues/464",
    "id": 552023273,
    "node_id": "MDEyOklzc3VlQ29tbWVudDU1MjAyMzI3Mw==",
    "user": {
      "login": "winsvega",
      "id": 4492341,
      "node_id": "MDQ6VXNlcjQ0OTIzNDE=",
      "avatar_url": "https://avatars.githubusercontent.com/u/4492341?v=4",
      "gravatar_id": "",
      "url": "https://api.github.com/users/winsvega",
      "html_url": "https://github.com/winsvega",
      "followers_url": "https://api.github.com/users/winsvega/followers",
      "following_url": "https://api.github.com/users/winsvega/following{/other_user}",
      "gists_url": "https://api.github.com/users/winsvega/gists{/gist_id}",
      "starred_url": "https://api.github.com/users/winsvega/starred{/owner}{/repo}",
      "subscriptions_url": "https://api.github.com/users/winsvega/subscriptions",
      "organizations_url": "https://api.github.com/users/winsvega/orgs",
      "repos_url": "https://api.github.com/users/winsvega/repos",
      "events_url": "https://api.github.com/users/winsvega/events{/privacy}",
      "received_events_url": "https://api.github.com/users/winsvega/received_events",
      "type": "User",
      "site_admin": false
    },
    "created_at": "2019-11-08T22:58:37Z",
    "updated_at": "2019-11-08T22:58:37Z",
    "author_association": "MEMBER",
    "body": "of this changes implemented is \"NoProof\" seal engine",
    "reactions": {
      "url": "https://api.github.com/repos/ethereum/tests/issues/comments/552023273/reactions",
      "total_count": 0,
      "+1": 0,
      "-1": 0,
      "laugh": 0,
      "hooray": 0,
      "confused": 0,
      "heart": 0,
      "rocket": 0,
      "eyes": 0
    },
    "performed_via_github_app": null
  }
]
