{
  "url": "https://api.github.com/repos/ethereum/execution-specs/issues/840",
  "repository_url": "https://api.github.com/repos/ethereum/execution-specs",
  "labels_url": "https://api.github.com/repos/ethereum/execution-specs/issues/840/labels{/name}",
  "comments_url": "https://api.github.com/repos/ethereum/execution-specs/issues/840/comments",
  "events_url": "https://api.github.com/repos/ethereum/execution-specs/issues/840/events",
  "html_url": "https://github.com/ethereum/execution-specs/issues/840",
  "id": 1911296940,
  "node_id": "I_kwDOERgWss5x7BOs",
  "number": 840,
  "title": "pyt8n issue",
  "user": {
    "login": "winsvega",
    "id": 4492341,
    "node_id": "MDQ6VXNlcjQ0OTIzNDE=",
    "avatar_url": "https://avatars.githubusercontent.com/u/4492341?v=4",
    "gravatar_id": "",
    "url": "https://api.github.com/users/winsvega",
    "html_url": "https://github.com/winsvega",
    "followers_url": "https://api.github.com/users/winsvega/followers",
    "following_url": "https://api.github.com/users/winsvega/following{/other_user}",
    "gists_url": "https://api.github.com/users/winsvega/gists{/gist_id}",
    "starred_url": "https://api.github.com/users/winsvega/starred{/owner}{/repo}",
    "subscriptions_url": "https://api.github.com/users/winsvega/subscriptions",
    "organizations_url": "https://api.github.com/users/winsvega/orgs",
    "repos_url": "https://api.github.com/users/winsvega/repos",
    "events_url": "https://api.github.com/users/winsvega/events{/privacy}",
    "received_events_url": "https://api.github.com/users/winsvega/received_events",
    "type": "User",
    "site_admin": false
  },
  "labels": [
    {
      "id": 3146425036,
      "node_id": "MDU6TGFiZWwzMTQ2NDI1MDM2",
      "url": "https://api.github.com/repos/ethereum/execution-specs/labels/A-tool",
      "name": "A-tool",
      "color": "FBCA04",
      "default": false,
      "description": "Area: tooling"
    },
    {
      "id": 3146433936,
      "node_id": "MDU6TGFiZWwzMTQ2NDMzOTM2",
      "url": "https://api.github.com/repos/ethereum/execution-specs/labels/C-bug",
      "name": "C-bug",
      "color": "C5DEF5",
      "default": false,
      "description": "Category: this is a bug, deviation, or other problem."
    }
  ],
  "state": "closed",
  "locked": false,
  "assignee": null,
  "assignees": [

  ],
  "milestone": null,
  "comments": 1,
  "created_at": "2023-09-25T11:41:23Z",
  "updated_at": "2023-09-26T05:39:37Z",
  "closed_at": "2023-09-26T05:39:37Z",
  "author_association": "MEMBER",
  "active_lock_reason": null,
  "body": "```\r\nRequest: test_mineBlocks\r\nAlloc:\r\n{\r\n    \"0x095e7baea6a6c7c4c2dfeb977efac326af552d87\" : {\r\n        \"balance\" : \"0x0de0b6b3a7640000\",\r\n        \"code\" : \"0x600160010160005500\",\r\n        \"nonce\" : \"0x00\",\r\n        \"storage\" : {\r\n        }\r\n    },\r\n    \"0x2adc25665018aa1fe0e6bc666dac8fc2697ff9ba\" : {\r\n        \"balance\" : \"0x00\",\r\n        \"code\" : \"0x\",\r\n        \"nonce\" : \"0x01\",\r\n        \"storage\" : {\r\n        }\r\n    },\r\n    \"0xa94f5374fce5edbc8e2a8697c15331677e6ebf0b\" : {\r\n        \"balance\" : \"0x0de0b6b3a7640000\",\r\n        \"code\" : \"0x\",\r\n        \"nonce\" : \"0x00\",\r\n        \"storage\" : {\r\n        }\r\n    }\r\n}\r\nTxs:\r\n\"0xf865f863800a83061a8094095e7baea6a6c7c4c2dfeb977efac326af552d87830186a0801ba0ffb600e63115a7362e7811894a91d8ba4330e526f22121c994c4692035dfdfd5a06198379fcac8de3dbfac48b165df4bf88e2088f294b61efb9a65fe2281c76e16\"\r\n{\r\n    \"data\" : \"0x\",\r\n    \"gasLimit\" : \"0x061a80\",\r\n    \"gasPrice\" : \"0x0a\",\r\n    \"nonce\" : \"0x00\",\r\n    \"to\" : \"0x095e7baea6a6c7c4c2dfeb977efac326af552d87\",\r\n    \"value\" : \"0x0186a0\",\r\n    \"v\" : \"0x1b\",\r\n    \"r\" : \"0xffb600e63115a7362e7811894a91d8ba4330e526f22121c994c4692035dfdfd5\",\r\n    \"s\" : \"0x6198379fcac8de3dbfac48b165df4bf88e2088f294b61efb9a65fe2281c76e16\"\r\n}\r\nEnv:\r\n{\r\n    \"currentCoinbase\" : \"0x2adc25665018aa1fe0e6bc666dac8fc2697ff9ba\",\r\n    \"currentNumber\" : \"0x01\",\r\n    \"currentTimestamp\" : \"0x03e8\",\r\n    \"currentGasLimit\" : \"0xff112233445566\",\r\n    \"previousHash\" : \"0x7d46f90648e1c009b83cdec706549090f3676e92fb0ca3cb85de687b73148e13\",\r\n    \"parentTimestamp\" : \"0x00\",\r\n    \"parentDifficulty\" : \"0x020000\",\r\n    \"parentUncleHash\" : \"0x1dcc4de8dec75d7aab85b567b6ccd41ad312451b948a7413f0a142fd40d49347\",\r\n    \"blockHashes\" : {\r\n        \"0\" : \"0x7d46f90648e1c009b83cdec706549090f3676e92fb0ca3cb85de687b73148e13\"\r\n    }\r\n}\r\n```\r\n\r\npyt8n log:\r\n```\r\nTraceback (most recent call last):\r\n  File \"/usr/lib/python3.10/runpy.py\", line 187, in _run_module_as_main\r\n    mod_name, mod_spec, code = _get_module_details(mod_name, _Error)\r\n  File \"/usr/lib/python3.10/runpy.py\", line 146, in _get_module_details\r\n    return _get_module_details(pkg_main_name, error)\r\n  File \"/usr/lib/python3.10/runpy.py\", line 110, in _get_module_details\r\n    __import__(pkg_name)\r\n  File \"/home/wins/Ethereum/execution-specs/src/ethereum_spec_tools/evm_tools/__init__.py\", line 7, in <module>\r\n    from .b11r import B11R, b11r_arguments\r\n  File \"/home/wins/Ethereum/execution-specs/src/ethereum_spec_tools/evm_tools/b11r/__init__.py\", line 13, in <module>\r\n    from ..utils import get_stream_logger\r\n  File \"/home/wins/Ethereum/execution-specs/src/ethereum_spec_tools/evm_tools/utils.py\", line 15, in <module>\r\n    from ..forks import Hardfork\r\nImportError: attempted relative import beyond top-level package\r\n/home/wins/.retesteth/pyt8n/start.sh --state.fork Berlin --state.reward 0 --state.chainid 1 --input.alloc /dev/shm/487d1405-ed11-4434-b9d2-55c791606edf/alloc.json --input.txs /dev/shm/487d1405-ed11-4434-b9d2-55c791606edf/txs.rlp --input.env /dev/shm/487d1405-ed11-4434-b9d2-55c791606edf/env.json --output.basedir /dev/shm/487d1405-ed11-4434-b9d2-55c791606edf --output.result out.json --output.alloc outAlloc.json --output.errorlog /dev/shm/487d1405-ed11-4434-b9d2-55c791606edf/error.json\r\nTool Error:\r\n```\r\n\r\n```\r\nResponse test_mineBlocks: The command '/home/wins/.retesteth/pyt8n/start.sh --state.fork Berlin --state.reward 0 --state.chainid 1 --input.alloc /dev/shm/487d1405-ed11-4434-b9d2-55c791606edf/alloc.json --input.txs /dev/shm/487d1405-ed11-4434-b9d2-55c791606edf/txs.rlp --input.env /dev/shm/487d1405-ed11-4434-b9d2-55c791606edf/env.json --output.basedir /dev/shm/487d1405-ed11-4434-b9d2-55c791606edf --output.result out.json --output.alloc outAlloc.json --output.errorlog /dev/shm/487d1405-ed11-4434-b9d2-55c791606edf/error.json' exited with 256 code.\r\n```",
  "closed_by": {
    "login": "winsvega",
    "id": 4492341,
    "node_id": "MDQ6VXNlcjQ0OTIzNDE=",
    "avatar_url": "https://avatars.githubusercontent.com/u/4492341?v=4",
    "gravatar_id": "",
    "url": "https://api.github.com/users/winsvega",
    "html_url": "https://github.com/winsvega",
    "followers_url": "https://api.github.com/users/winsvega/followers",
    "following_url": "https://api.github.com/users/winsvega/following{/other_user}",
    "gists_url": "https://api.github.com/users/winsvega/gists{/gist_id}",
    "starred_url": "https://api.github.com/users/winsvega/starred{/owner}{/repo}",
    "subscriptions_url": "https://api.github.com/users/winsvega/subscriptions",
    "organizations_url": "https://api.github.com/users/winsvega/orgs",
    "repos_url": "https://api.github.com/users/winsvega/repos",
    "events_url": "https://api.github.com/users/winsvega/events{/privacy}",
    "received_events_url": "https://api.github.com/users/winsvega/received_events",
    "type": "User",
    "site_admin": false
  },
  "reactions": {
    "url": "https://api.github.com/repos/ethereum/execution-specs/issues/840/reactions",
    "total_count": 0,
    "+1": 0,
    "-1": 0,
    "laugh": 0,
    "hooray": 0,
    "confused": 0,
    "heart": 0,
    "rocket": 0,
    "eyes": 0
  },
  "timeline_url": "https://api.github.com/repos/ethereum/execution-specs/issues/840/timeline",
  "performed_via_github_app": null,
  "state_reason": "completed"
}
[
  {
    "url": "https://api.github.com/repos/ethereum/execution-specs/issues/comments/1733521160",
    "html_url": "https://github.com/ethereum/execution-specs/issues/840#issuecomment-1733521160",
    "issue_url": "https://api.github.com/repos/ethereum/execution-specs/issues/840",
    "id": 1733521160,
    "node_id": "IC_kwDOERgWss5nU28I",
    "user": {
      "login": "winsvega",
      "id": 4492341,
      "node_id": "MDQ6VXNlcjQ0OTIzNDE=",
      "avatar_url": "https://avatars.githubusercontent.com/u/4492341?v=4",
      "gravatar_id": "",
      "url": "https://api.github.com/users/winsvega",
      "html_url": "https://github.com/winsvega",
      "followers_url": "https://api.github.com/users/winsvega/followers",
      "following_url": "https://api.github.com/users/winsvega/following{/other_user}",
      "gists_url": "https://api.github.com/users/winsvega/gists{/gist_id}",
      "starred_url": "https://api.github.com/users/winsvega/starred{/owner}{/repo}",
      "subscriptions_url": "https://api.github.com/users/winsvega/subscriptions",
      "organizations_url": "https://api.github.com/users/winsvega/orgs",
      "repos_url": "https://api.github.com/users/winsvega/repos",
      "events_url": "https://api.github.com/users/winsvega/events{/privacy}",
      "received_events_url": "https://api.github.com/users/winsvega/received_events",
      "type": "User",
      "site_admin": false
    },
    "created_at": "2023-09-25T11:58:09Z",
    "updated_at": "2023-09-25T11:58:09Z",
    "author_association": "MEMBER",
    "body": "seems to work now\r\nhttps://github.com/ethereum/execution-specs/pull/841",
    "reactions": {
      "url": "https://api.github.com/repos/ethereum/execution-specs/issues/comments/1733521160/reactions",
      "total_count": 0,
      "+1": 0,
      "-1": 0,
      "laugh": 0,
      "hooray": 0,
      "confused": 0,
      "heart": 0,
      "rocket": 0,
      "eyes": 0
    },
    "performed_via_github_app": null
  }
]
