{
  "url": "https://api.github.com/repos/ethereum/go-ethereum/issues/27785",
  "repository_url": "https://api.github.com/repos/ethereum/go-ethereum",
  "labels_url": "https://api.github.com/repos/ethereum/go-ethereum/issues/27785/labels{/name}",
  "comments_url": "https://api.github.com/repos/ethereum/go-ethereum/issues/27785/comments",
  "events_url": "https://api.github.com/repos/ethereum/go-ethereum/issues/27785/events",
  "html_url": "https://github.com/ethereum/go-ethereum/issues/27785",
  "id": 1822604702,
  "node_id": "I_kwDOAOvK985sor2e",
  "number": 27785,
  "title": "geth t8n crash on cancun input",
  "user": {
    "login": "winsvega",
    "id": 4492341,
    "node_id": "MDQ6VXNlcjQ0OTIzNDE=",
    "avatar_url": "https://avatars.githubusercontent.com/u/4492341?v=4",
    "gravatar_id": "",
    "url": "https://api.github.com/users/winsvega",
    "html_url": "https://github.com/winsvega",
    "followers_url": "https://api.github.com/users/winsvega/followers",
    "following_url": "https://api.github.com/users/winsvega/following{/other_user}",
    "gists_url": "https://api.github.com/users/winsvega/gists{/gist_id}",
    "starred_url": "https://api.github.com/users/winsvega/starred{/owner}{/repo}",
    "subscriptions_url": "https://api.github.com/users/winsvega/subscriptions",
    "organizations_url": "https://api.github.com/users/winsvega/orgs",
    "repos_url": "https://api.github.com/users/winsvega/repos",
    "events_url": "https://api.github.com/users/winsvega/events{/privacy}",
    "received_events_url": "https://api.github.com/users/winsvega/received_events",
    "type": "User",
    "site_admin": false
  },
  "labels": [
    {
      "id": 72233650,
      "node_id": "MDU6TGFiZWw3MjIzMzY1MA==",
      "url": "https://api.github.com/repos/ethereum/go-ethereum/labels/type:bug",
      "name": "type:bug",
      "color": "FF5E5E",
      "default": false,
      "description": ""
    }
  ],
  "state": "open",
  "locked": false,
  "assignee": null,
  "assignees": [

  ],
  "milestone": null,
  "comments": 5,
  "created_at": "2023-07-26T14:56:32Z",
  "updated_at": "2023-07-28T07:59:34Z",
  "closed_at": null,
  "author_association": "MEMBER",
  "active_lock_reason": null,
  "body": "```\r\nError: panic: runtime error: invalid memory address or nil pointer dereference\r\n[signal SIGSEGV: segmentation violation code=0x1 addr=0x0 pc=0xc1f273]\r\n\r\ngoroutine 1 [running]:\r\ngithub.com/ethereum/go-ethereum/core.(*StateTransition).preCheck(0xc00043c990)\r\n\tgithub.com/ethereum/go-ethereum/core/state_transition.go:336 +0xc73\r\ngithub.com/ethereum/go-ethereum/core.(*StateTransition).TransitionDb(0xc00043c990)\r\n\tgithub.com/ethereum/go-ethereum/core/state_transition.go:367 +0x65\r\ngithub.com/ethereum/go-ethereum/core.ApplyMessage(0x1284258?, 0x1284260?, 0xc00012b260?)\r\n\tgithub.com/ethereum/go-ethereum/core/state_transition.go:182 +0x5d\r\ngithub.com/ethereum/go-ethereum/cmd/evm/internal/t8ntool.(*Prestate).Apply(0xc0001caf70, {{0x0, 0x0}, 0x0, 0x0, {0x0, 0x0, 0x0}}, 0xc0000f60d0, {0xc000014fe8, ...}, ...)\r\n\tgithub.com/ethereum/go-ethereum/cmd/evm/internal/t8ntool/execution.go:186 +0xf3a\r\ngithub.com/ethereum/go-ethereum/cmd/evm/internal/t8ntool.Transition(0xc0002b2dc0?)\r\n\tgithub.com/ethereum/go-ethereum/cmd/evm/internal/t8ntool/transition.go:296 +0x1f5f\r\ngithub.com/ethereum/go-ethereum/internal/flags.MigrateGlobalFlags.func2.1(0x1bafd00?)\r\n\tgithub.com/ethereum/go-ethereum/internal/flags/helpers.go:91 +0x36\r\ngithub.com/urfave/cli/v2.(*Command).Run(0x1bafd00, 0xc0002b2880)\r\n\tgithub.com/urfave/cli/v2@v2.17.2-0.20221006022127-8f469abc00aa/command.go:177 +0x746\r\ngithub.com/urfave/cli/v2.(*App).RunContext(0xc000378000, {0x13b4410?, 0xc000138038}, {0xc000136000, 0x16, 0x16})\r\n\tgithub.com/urfave/cli/v2@v2.17.2-0.20221006022127-8f469abc00aa/app.go:387 +0x105e\r\ngithub.com/urfave/cli/v2.(*App).Run(...)\r\n\tgithub.com/urfave/cli/v2@v2.17.2-0.20221006022127-8f469abc00aa/app.go:252\r\nmain.main()\r\n\tgithub.com/ethereum/go-ethereum/cmd/evm/main.go:227 +0x47\r\n (StateTests/stEIP4844-blobtransactions/opcodeBlobhashOutOfRange, fork: Cancun, TrInfo: d: 0, g: 0, v: 0, TrData: ` 0x00..`)\r\n\r\n```\r\n\r\nI think it is the same as in nimbus:\r\nhttps://github.com/status-im/nimbus-eth1/issues/1587\r\n\r\nI execute a code that has blobhash opcode with insane huge input.",
  "closed_by": null,
  "reactions": {
    "url": "https://api.github.com/repos/ethereum/go-ethereum/issues/27785/reactions",
    "total_count": 0,
    "+1": 0,
    "-1": 0,
    "laugh": 0,
    "hooray": 0,
    "confused": 0,
    "heart": 0,
    "rocket": 0,
    "eyes": 0
  },
  "timeline_url": "https://api.github.com/repos/ethereum/go-ethereum/issues/27785/timeline",
  "performed_via_github_app": null,
  "state_reason": null
}
[
  {
    "url": "https://api.github.com/repos/ethereum/go-ethereum/issues/comments/1652491819",
    "html_url": "https://github.com/ethereum/go-ethereum/issues/27785#issuecomment-1652491819",
    "issue_url": "https://api.github.com/repos/ethereum/go-ethereum/issues/27785",
    "id": 1652491819,
    "node_id": "IC_kwDOAOvK985ifwYr",
    "user": {
      "login": "karalabe",
      "id": 129561,
      "node_id": "MDQ6VXNlcjEyOTU2MQ==",
      "avatar_url": "https://avatars.githubusercontent.com/u/129561?v=4",
      "gravatar_id": "",
      "url": "https://api.github.com/users/karalabe",
      "html_url": "https://github.com/karalabe",
      "followers_url": "https://api.github.com/users/karalabe/followers",
      "following_url": "https://api.github.com/users/karalabe/following{/other_user}",
      "gists_url": "https://api.github.com/users/karalabe/gists{/gist_id}",
      "starred_url": "https://api.github.com/users/karalabe/starred{/owner}{/repo}",
      "subscriptions_url": "https://api.github.com/users/karalabe/subscriptions",
      "organizations_url": "https://api.github.com/users/karalabe/orgs",
      "repos_url": "https://api.github.com/users/karalabe/repos",
      "events_url": "https://api.github.com/users/karalabe/events{/privacy}",
      "received_events_url": "https://api.github.com/users/karalabe/received_events",
      "type": "User",
      "site_admin": false
    },
    "created_at": "2023-07-26T21:03:40Z",
    "updated_at": "2023-07-26T21:03:40Z",
    "author_association": "MEMBER",
    "body": "This is probably because https://github.com/ethereum/go-ethereum/pull/27721/files#diff-64508d317d86e7a4a5294d76455a5e74148e26883da9e8b4ffc9bbfa3cc8550eR80 added the ExcessDataGas field but it wans't added to t8n. CC @holiman ",
    "reactions": {
      "url": "https://api.github.com/repos/ethereum/go-ethereum/issues/comments/1652491819/reactions",
      "total_count": 0,
      "+1": 0,
      "-1": 0,
      "laugh": 0,
      "hooray": 0,
      "confused": 0,
      "heart": 0,
      "rocket": 0,
      "eyes": 0
    },
    "performed_via_github_app": null
  },
  {
    "url": "https://api.github.com/repos/ethereum/go-ethereum/issues/comments/1653929255",
    "html_url": "https://github.com/ethereum/go-ethereum/issues/27785#issuecomment-1653929255",
    "issue_url": "https://api.github.com/repos/ethereum/go-ethereum/issues/27785",
    "id": 1653929255,
    "node_id": "IC_kwDOAOvK985ilPUn",
    "user": {
      "login": "winsvega",
      "id": 4492341,
      "node_id": "MDQ6VXNlcjQ0OTIzNDE=",
      "avatar_url": "https://avatars.githubusercontent.com/u/4492341?v=4",
      "gravatar_id": "",
      "url": "https://api.github.com/users/winsvega",
      "html_url": "https://github.com/winsvega",
      "followers_url": "https://api.github.com/users/winsvega/followers",
      "following_url": "https://api.github.com/users/winsvega/following{/other_user}",
      "gists_url": "https://api.github.com/users/winsvega/gists{/gist_id}",
      "starred_url": "https://api.github.com/users/winsvega/starred{/owner}{/repo}",
      "subscriptions_url": "https://api.github.com/users/winsvega/subscriptions",
      "organizations_url": "https://api.github.com/users/winsvega/orgs",
      "repos_url": "https://api.github.com/users/winsvega/repos",
      "events_url": "https://api.github.com/users/winsvega/events{/privacy}",
      "received_events_url": "https://api.github.com/users/winsvega/received_events",
      "type": "User",
      "site_admin": false
    },
    "created_at": "2023-07-27T16:12:48Z",
    "updated_at": "2023-07-27T17:18:31Z",
    "author_association": "MEMBER",
    "body": "confirm, this is not just that test. it happens on all cancun transaction inputs",
    "reactions": {
      "url": "https://api.github.com/repos/ethereum/go-ethereum/issues/comments/1653929255/reactions",
      "total_count": 0,
      "+1": 0,
      "-1": 0,
      "laugh": 0,
      "hooray": 0,
      "confused": 0,
      "heart": 0,
      "rocket": 0,
      "eyes": 0
    },
    "performed_via_github_app": null
  },
  {
    "url": "https://api.github.com/repos/ethereum/go-ethereum/issues/comments/1655105528",
    "html_url": "https://github.com/ethereum/go-ethereum/issues/27785#issuecomment-1655105528",
    "issue_url": "https://api.github.com/repos/ethereum/go-ethereum/issues/27785",
    "id": 1655105528,
    "node_id": "IC_kwDOAOvK985ipuf4",
    "user": {
      "login": "jsvisa",
      "id": 3627395,
      "node_id": "MDQ6VXNlcjM2MjczOTU=",
      "avatar_url": "https://avatars.githubusercontent.com/u/3627395?v=4",
      "gravatar_id": "",
      "url": "https://api.github.com/users/jsvisa",
      "html_url": "https://github.com/jsvisa",
      "followers_url": "https://api.github.com/users/jsvisa/followers",
      "following_url": "https://api.github.com/users/jsvisa/following{/other_user}",
      "gists_url": "https://api.github.com/users/jsvisa/gists{/gist_id}",
      "starred_url": "https://api.github.com/users/jsvisa/starred{/owner}{/repo}",
      "subscriptions_url": "https://api.github.com/users/jsvisa/subscriptions",
      "organizations_url": "https://api.github.com/users/jsvisa/orgs",
      "repos_url": "https://api.github.com/users/jsvisa/repos",
      "events_url": "https://api.github.com/users/jsvisa/events{/privacy}",
      "received_events_url": "https://api.github.com/users/jsvisa/received_events",
      "type": "User",
      "site_admin": false
    },
    "created_at": "2023-07-28T06:29:01Z",
    "updated_at": "2023-07-28T06:29:01Z",
    "author_association": "CONTRIBUTOR",
    "body": "@winsvega I'm trying to fix this, could you please provide a reproduce step?",
    "reactions": {
      "url": "https://api.github.com/repos/ethereum/go-ethereum/issues/comments/1655105528/reactions",
      "total_count": 0,
      "+1": 0,
      "-1": 0,
      "laugh": 0,
      "hooray": 0,
      "confused": 0,
      "heart": 0,
      "rocket": 0,
      "eyes": 0
    },
    "performed_via_github_app": null
  },
  {
    "url": "https://api.github.com/repos/ethereum/go-ethereum/issues/comments/1655160293",
    "html_url": "https://github.com/ethereum/go-ethereum/issues/27785#issuecomment-1655160293",
    "issue_url": "https://api.github.com/repos/ethereum/go-ethereum/issues/27785",
    "id": 1655160293,
    "node_id": "IC_kwDOAOvK985ip73l",
    "user": {
      "login": "winsvega",
      "id": 4492341,
      "node_id": "MDQ6VXNlcjQ0OTIzNDE=",
      "avatar_url": "https://avatars.githubusercontent.com/u/4492341?v=4",
      "gravatar_id": "",
      "url": "https://api.github.com/users/winsvega",
      "html_url": "https://github.com/winsvega",
      "followers_url": "https://api.github.com/users/winsvega/followers",
      "following_url": "https://api.github.com/users/winsvega/following{/other_user}",
      "gists_url": "https://api.github.com/users/winsvega/gists{/gist_id}",
      "starred_url": "https://api.github.com/users/winsvega/starred{/owner}{/repo}",
      "subscriptions_url": "https://api.github.com/users/winsvega/subscriptions",
      "organizations_url": "https://api.github.com/users/winsvega/orgs",
      "repos_url": "https://api.github.com/users/winsvega/repos",
      "events_url": "https://api.github.com/users/winsvega/events{/privacy}",
      "received_events_url": "https://api.github.com/users/winsvega/received_events",
      "type": "User",
      "site_admin": false
    },
    "created_at": "2023-07-28T07:11:30Z",
    "updated_at": "2023-07-28T07:11:30Z",
    "author_association": "MEMBER",
    "body": "```\r\nAlloc:\r\n{\r\n    \"0xa94f5374fce5edbc8e2a8697c15331677e6ebf0b\" : {\r\n        \"balance\" : \"0x016345785d8a0000\",\r\n        \"code\" : \"0x\",\r\n        \"nonce\" : \"0x00\",\r\n        \"storage\" : {\r\n        }\r\n    },\r\n    \"0xb94f5374fce5edbc8e2a8697c15331677e6ebf0b\" : {\r\n        \"balance\" : \"0x016345785d8a0000\",\r\n        \"code\" : \"0x60004960015500\",\r\n        \"nonce\" : \"0x00\",\r\n        \"storage\" : {\r\n        }\r\n    }\r\n}\r\nTxs:\r\n\"0xf88bb88903f8860180026483061a8094b94f5374fce5edbc8e2a8697c15331677e6ebf0b8080c00ae1a001a915e4d060149eb4365960e6a7a45f334393093061116b197e3240065ff2d801a025e16bb498552165016751911c3608d79000ab89dc3100776e729e6ea13091c7a03acacff7fc0cff6eda8a927dec93ca17765e1ee6cbc06c5954ce102e097c01d2\"\r\n{\r\n    \"data\" : \"0x\",\r\n    \"gasLimit\" : \"0x061a80\",\r\n    \"nonce\" : \"0x00\",\r\n    \"to\" : \"0xb94f5374fce5edbc8e2a8697c15331677e6ebf0b\",\r\n    \"value\" : \"0x00\",\r\n    \"v\" : \"0x01\",\r\n    \"r\" : \"0x25e16bb498552165016751911c3608d79000ab89dc3100776e729e6ea13091c7\",\r\n    \"s\" : \"0x3acacff7fc0cff6eda8a927dec93ca17765e1ee6cbc06c5954ce102e097c01d2\",\r\n    \"chainId\" : \"0x01\",\r\n    \"type\" : \"0x03\",\r\n    \"maxFeePerGas\" : \"0x64\",\r\n    \"maxPriorityFeePerGas\" : \"0x02\",\r\n    \"accessList\" : [\r\n    ],\r\n    \"maxFeePerBlobGas\" : \"0x0a\",\r\n    \"blobVersionedHashes\" : [\r\n        \"0x01a915e4d060149eb4365960e6a7a45f334393093061116b197e3240065ff2d8\"\r\n    ]\r\n}\r\nEnv:\r\n{\r\n    \"currentCoinbase\" : \"0x2adc25665018aa1fe0e6bc666dac8fc2697ff9ba\",\r\n    \"currentNumber\" : \"0x01\",\r\n    \"currentTimestamp\" : \"0x079e\",\r\n    \"currentGasLimit\" : \"0x7fffffffffffffff\",\r\n    \"previousHash\" : \"0x3a9b485972e7353edd9152712492f0c58d89ef80623686b6bf947a4a6dce6cb6\",\r\n    \"currentBlobGasUsed\" : \"0x00\",\r\n    \"parentTimestamp\" : \"0x03b6\",\r\n    \"parentDifficulty\" : \"0x00\",\r\n    \"parentUncleHash\" : \"0x1dcc4de8dec75d7aab85b567b6ccd41ad312451b948a7413f0a142fd40d49347\",\r\n    \"currentRandom\" : \"0x56e81f171bcc55a6ff8345e692c0f86e5b48e01b996cadc001622fb5e363b421\",\r\n    \"withdrawals\" : [\r\n    ],\r\n    \"parentBaseFee\" : \"0x0a\",\r\n    \"parentGasUsed\" : \"0x00\",\r\n    \"parentGasLimit\" : \"0x7fffffffffffffff\",\r\n    \"parentExcessBlobGas\" : \"0x00\",\r\n    \"parentBlobGasUsed\" : \"0x00\",\r\n    \"blockHashes\" : {\r\n        \"0\" : \"0x3a9b485972e7353edd9152712492f0c58d89ef80623686b6bf947a4a6dce6cb6\"\r\n    }\r\n}\r\n/home/wins/.retesteth/default/start.sh --state.fork Cancun --state.reward 0 --state.chainid 1 --input.alloc /dev/shm/5e02c71a-cf53-4b0d-842a-84982a8b2b8e/alloc.json --input.txs /dev/shm/5e02c71a-cf53-4b0d-842a-84982a8b2b8e/txs.rlp --input.env /dev/shm/5e02c71a-cf53-4b0d-842a-84982a8b2b8e/env.json --output.basedir /dev/shm/5e02c71a-cf53-4b0d-842a-84982a8b2b8e --output.result out.json --output.alloc outAlloc.json --output.errorlog /dev/shm/5e02c71a-cf53-4b0d-842a-84982a8b2b8e/error.json\r\nTool Error:\r\npanic: runtime error: invalid memory address or nil pointer dereference\r\n[signal SIGSEGV: segmentation violation code=0x1 addr=0x0 pc=0xc1e9b3]\r\n```",
    "reactions": {
      "url": "https://api.github.com/repos/ethereum/go-ethereum/issues/comments/1655160293/reactions",
      "total_count": 1,
      "+1": 0,
      "-1": 0,
      "laugh": 0,
      "hooray": 0,
      "confused": 0,
      "heart": 0,
      "rocket": 0,
      "eyes": 1
    },
    "performed_via_github_app": null
  },
  {
    "url": "https://api.github.com/repos/ethereum/go-ethereum/issues/comments/1655228631",
    "html_url": "https://github.com/ethereum/go-ethereum/issues/27785#issuecomment-1655228631",
    "issue_url": "https://api.github.com/repos/ethereum/go-ethereum/issues/27785",
    "id": 1655228631,
    "node_id": "IC_kwDOAOvK985iqMjX",
    "user": {
      "login": "winsvega",
      "id": 4492341,
      "node_id": "MDQ6VXNlcjQ0OTIzNDE=",
      "avatar_url": "https://avatars.githubusercontent.com/u/4492341?v=4",
      "gravatar_id": "",
      "url": "https://api.github.com/users/winsvega",
      "html_url": "https://github.com/winsvega",
      "followers_url": "https://api.github.com/users/winsvega/followers",
      "following_url": "https://api.github.com/users/winsvega/following{/other_user}",
      "gists_url": "https://api.github.com/users/winsvega/gists{/gist_id}",
      "starred_url": "https://api.github.com/users/winsvega/starred{/owner}{/repo}",
      "subscriptions_url": "https://api.github.com/users/winsvega/subscriptions",
      "organizations_url": "https://api.github.com/users/winsvega/orgs",
      "repos_url": "https://api.github.com/users/winsvega/repos",
      "events_url": "https://api.github.com/users/winsvega/events{/privacy}",
      "received_events_url": "https://api.github.com/users/winsvega/received_events",
      "type": "User",
      "site_admin": false
    },
    "created_at": "2023-07-28T07:59:33Z",
    "updated_at": "2023-07-28T07:59:33Z",
    "author_association": "MEMBER",
    "body": "Txs is comming in .rlp file\nThe json print is for debug",
    "reactions": {
      "url": "https://api.github.com/repos/ethereum/go-ethereum/issues/comments/1655228631/reactions",
      "total_count": 0,
      "+1": 0,
      "-1": 0,
      "laugh": 0,
      "hooray": 0,
      "confused": 0,
      "heart": 0,
      "rocket": 0,
      "eyes": 0
    },
    "performed_via_github_app": null
  }
]
