{
  "url": "https://api.github.com/repos/foundry-rs/foundry/issues/4348",
  "repository_url": "https://api.github.com/repos/foundry-rs/foundry",
  "labels_url": "https://api.github.com/repos/foundry-rs/foundry/issues/4348/labels{/name}",
  "comments_url": "https://api.github.com/repos/foundry-rs/foundry/issues/4348/comments",
  "events_url": "https://api.github.com/repos/foundry-rs/foundry/issues/4348/events",
  "html_url": "https://github.com/foundry-rs/foundry/issues/4348",
  "id": 1582832939,
  "node_id": "I_kwDOGBlvNc5eWB0r",
  "number": 4348,
  "title": "Behaviour of eth_call executor differs from behaviour of evm_mine executor",
  "user": {
    "login": "llacqie",
    "id": 46074473,
    "node_id": "MDQ6VXNlcjQ2MDc0NDcz",
    "avatar_url": "https://avatars.githubusercontent.com/u/46074473?v=4",
    "gravatar_id": "",
    "url": "https://api.github.com/users/llacqie",
    "html_url": "https://github.com/llacqie",
    "followers_url": "https://api.github.com/users/llacqie/followers",
    "following_url": "https://api.github.com/users/llacqie/following{/other_user}",
    "gists_url": "https://api.github.com/users/llacqie/gists{/gist_id}",
    "starred_url": "https://api.github.com/users/llacqie/starred{/owner}{/repo}",
    "subscriptions_url": "https://api.github.com/users/llacqie/subscriptions",
    "organizations_url": "https://api.github.com/users/llacqie/orgs",
    "repos_url": "https://api.github.com/users/llacqie/repos",
    "events_url": "https://api.github.com/users/llacqie/events{/privacy}",
    "received_events_url": "https://api.github.com/users/llacqie/received_events",
    "type": "User",
    "site_admin": false
  },
  "labels": [
    {
      "id": 3334394228,
      "node_id": "MDU6TGFiZWwzMzM0Mzk0MjI4",
      "url": "https://api.github.com/repos/foundry-rs/foundry/labels/T-bug",
      "name": "T-bug",
      "color": "d73a4a",
      "default": false,
      "description": "Type: bug"
    }
  ],
  "state": "closed",
  "locked": false,
  "assignee": null,
  "assignees": [

  ],
  "milestone": null,
  "comments": 5,
  "created_at": "2023-02-13T18:14:24Z",
  "updated_at": "2023-02-15T12:13:40Z",
  "closed_at": "2023-02-15T12:11:06Z",
  "author_association": "NONE",
  "active_lock_reason": null,
  "body": "### Component\n\nAnvil\n\n### Have you ensured that all of these are up to date?\n\n- [X] Foundry\n- [X] Foundryup\n\n### What version of Foundry are you on?\n\nforge 0.2.0 (b454567 2023-02-06T11:31:41.9805359Z)\n\n### What command(s) is the bug in?\n\n_No response_\n\n### Operating System\n\nWindows\n\n### Describe the bug\n\nSteps to reproduce:\r\n\r\n`anvil --no-mining --fork-block-number 16613975 --fork-url <URL>`\r\n\r\n```\r\ncast rpc eth_call --raw\r\n[{\"from\":\"0xa011e9df010b6b55cd7c1b688fd1d8931e6628ce\",\"to\":\"0x7a250d5630b4cf539739df2c5dacb4c659f2488d\",\"data\":\"0x7ff36ab5000000000000000000000000000000000000000000000000000647b2c43501a80000000000000000000000000000000000000000000000000000000000000080000000000000000000000000a011e9df010b6b55cd7c1b688fd1d8931e6628ce0000000000000000000000000000000000000000000000000000000063e91da50000000000000000000000000000000000000000000000000000000000000002000000000000000000000000c02aaa39b223fe8d0a0e5c4f27ead9083c756cc200000000000000000000000000b64cd592359b96989ad0b4bc3ac05cab883750\"}, \"latest\"]\r\n```\r\n// ^^^ This will fail\r\n```\r\ncast rpc eth_sendRawTransaction 0x02f9015a014685012a05f2008506ee9646cc8303989c947a250d5630b4cf539739df2c5dacb4c659f2488d88016345785d8a0000b8e47ff36ab5000000000000000000000000000000000000000000000000000647b2c43501a80000000000000000000000000000000000000000000000000000000000000080000000000000000000000000a011e9df010b6b55cd7c1b688fd1d8931e6628ce0000000000000000000000000000000000000000000000000000000063e91da50000000000000000000000000000000000000000000000000000000000000002000000000000000000000000c02aaa39b223fe8d0a0e5c4f27ead9083c756cc200000000000000000000000000b64cd592359b96989ad0b4bc3ac05cab883750c080a0b7c81bd027675dfa9e7d8a805d4d63762d9bfa7864e421f92a3c6dc67dd6531fa07fdc315d5fda046dd31d5842a3bc8065379b7935085d90eecee9e7e48f7bfde4\r\n```\r\n// ^^^ Send RawTx with the same data as previous one\r\n```\r\ncast rpc evm_mine\r\n```\r\n// ^^^ Try to mine it and it will success\r\n\r\n### Expected behavior: success in case of eth_call",
  "closed_by": {
    "login": "llacqie",
    "id": 46074473,
    "node_id": "MDQ6VXNlcjQ2MDc0NDcz",
    "avatar_url": "https://avatars.githubusercontent.com/u/46074473?v=4",
    "gravatar_id": "",
    "url": "https://api.github.com/users/llacqie",
    "html_url": "https://github.com/llacqie",
    "followers_url": "https://api.github.com/users/llacqie/followers",
    "following_url": "https://api.github.com/users/llacqie/following{/other_user}",
    "gists_url": "https://api.github.com/users/llacqie/gists{/gist_id}",
    "starred_url": "https://api.github.com/users/llacqie/starred{/owner}{/repo}",
    "subscriptions_url": "https://api.github.com/users/llacqie/subscriptions",
    "organizations_url": "https://api.github.com/users/llacqie/orgs",
    "repos_url": "https://api.github.com/users/llacqie/repos",
    "events_url": "https://api.github.com/users/llacqie/events{/privacy}",
    "received_events_url": "https://api.github.com/users/llacqie/received_events",
    "type": "User",
    "site_admin": false
  },
  "reactions": {
    "url": "https://api.github.com/repos/foundry-rs/foundry/issues/4348/reactions",
    "total_count": 0,
    "+1": 0,
    "-1": 0,
    "laugh": 0,
    "hooray": 0,
    "confused": 0,
    "heart": 0,
    "rocket": 0,
    "eyes": 0
  },
  "timeline_url": "https://api.github.com/repos/foundry-rs/foundry/issues/4348/timeline",
  "performed_via_github_app": null,
  "state_reason": "not_planned"
}
[
  {
    "url": "https://api.github.com/repos/foundry-rs/foundry/issues/comments/1428440420",
    "html_url": "https://github.com/foundry-rs/foundry/issues/4348#issuecomment-1428440420",
    "issue_url": "https://api.github.com/repos/foundry-rs/foundry/issues/4348",
    "id": 1428440420,
    "node_id": "IC_kwDOGBlvNc5VJEVk",
    "user": {
      "login": "mattsse",
      "id": 19890894,
      "node_id": "MDQ6VXNlcjE5ODkwODk0",
      "avatar_url": "https://avatars.githubusercontent.com/u/19890894?v=4",
      "gravatar_id": "",
      "url": "https://api.github.com/users/mattsse",
      "html_url": "https://github.com/mattsse",
      "followers_url": "https://api.github.com/users/mattsse/followers",
      "following_url": "https://api.github.com/users/mattsse/following{/other_user}",
      "gists_url": "https://api.github.com/users/mattsse/gists{/gist_id}",
      "starred_url": "https://api.github.com/users/mattsse/starred{/owner}{/repo}",
      "subscriptions_url": "https://api.github.com/users/mattsse/subscriptions",
      "organizations_url": "https://api.github.com/users/mattsse/orgs",
      "repos_url": "https://api.github.com/users/mattsse/repos",
      "events_url": "https://api.github.com/users/mattsse/events{/privacy}",
      "received_events_url": "https://api.github.com/users/mattsse/received_events",
      "type": "User",
      "site_admin": false
    },
    "created_at": "2023-02-13T18:21:15Z",
    "updated_at": "2023-02-13T18:21:15Z",
    "author_association": "MEMBER",
    "body": "sorry, I'd need more context here.\r\n\r\ncan you post the full transaction please.\r\n\r\ndoes it revert or does the rpc call get rejected?",
    "reactions": {
      "url": "https://api.github.com/repos/foundry-rs/foundry/issues/comments/1428440420/reactions",
      "total_count": 0,
      "+1": 0,
      "-1": 0,
      "laugh": 0,
      "hooray": 0,
      "confused": 0,
      "heart": 0,
      "rocket": 0,
      "eyes": 0
    },
    "performed_via_github_app": null
  },
  {
    "url": "https://api.github.com/repos/foundry-rs/foundry/issues/comments/1428453958",
    "html_url": "https://github.com/foundry-rs/foundry/issues/4348#issuecomment-1428453958",
    "issue_url": "https://api.github.com/repos/foundry-rs/foundry/issues/4348",
    "id": 1428453958,
    "node_id": "IC_kwDOGBlvNc5VJHpG",
    "user": {
      "login": "llacqie",
      "id": 46074473,
      "node_id": "MDQ6VXNlcjQ2MDc0NDcz",
      "avatar_url": "https://avatars.githubusercontent.com/u/46074473?v=4",
      "gravatar_id": "",
      "url": "https://api.github.com/users/llacqie",
      "html_url": "https://github.com/llacqie",
      "followers_url": "https://api.github.com/users/llacqie/followers",
      "following_url": "https://api.github.com/users/llacqie/following{/other_user}",
      "gists_url": "https://api.github.com/users/llacqie/gists{/gist_id}",
      "starred_url": "https://api.github.com/users/llacqie/starred{/owner}{/repo}",
      "subscriptions_url": "https://api.github.com/users/llacqie/subscriptions",
      "organizations_url": "https://api.github.com/users/llacqie/orgs",
      "repos_url": "https://api.github.com/users/llacqie/repos",
      "events_url": "https://api.github.com/users/llacqie/events{/privacy}",
      "received_events_url": "https://api.github.com/users/llacqie/received_events",
      "type": "User",
      "site_admin": false
    },
    "created_at": "2023-02-13T18:31:26Z",
    "updated_at": "2023-02-13T18:31:26Z",
    "author_association": "NONE",
    "body": "Original tx:\r\n```\r\n{\"accessList\":[],\"chainId\":\"0x1\",\"from\":\"0xa011e9df010b6b55cd7c1b688fd1d8931e6628ce\",\"gas\":\"0x3989c\",\"gasPrice\":null,\"hash\":\"0xa83124dcf83b46596b8b1f4ea2a56b9ee9360d8c532573ac89ad3948b28f8839\",\"input\":\"0x7ff36ab5000000000000000000000000000000000000000000000000000647b2c43501a80000000000000000000000000000000000000000000000000000000000000080000000000000000000000000a011e9df010b6b55cd7c1b688fd1d8931e6628ce0000000000000000000000000000000000000000000000000000000063e91da50000000000000000000000000000000000000000000000000000000000000002000000000000000000000000c02aaa39b223fe8d0a0e5c4f27ead9083c756cc200000000000000000000000000b64cd592359b96989ad0b4bc3ac05cab883750\",\"maxFeePerGas\":\"0x6ee9646cc\",\"maxPriorityFeePerGas\":\"0x12a05f200\",\"nonce\":\"0x46\",\"r\":\"0xb7c81bd027675dfa9e7d8a805d4d63762d9bfa7864e421f92a3c6dc67dd6531f\",\"s\":\"0x7fdc315d5fda046dd31d5842a3bc8065379b7935085d90eecee9e7e48f7bfde4\",\"to\":\"0x7a250d5630b4cf539739df2c5dacb4c659f2488d\",\"type\":\"0x2\",\"v\":\"0x0\",\"value\":\"0x16345785d8a0000\"}\r\n```\r\nhttps://etherscan.io/tx/0xa83124dcf83b46596b8b1f4ea2a56b9ee9360d8c532573ac89ad3948b28f8839\r\n\r\nInputs and results:\r\n```\r\ncast rpc eth_call --raw\r\n[{\"from\":\"0xa011e9df010b6b55cd7c1b688fd1d8931e6628ce\",\"to\":\"0x7a250d5630b4cf539739df2c5dacb4c659f2488d\",\"data\":\"0x7ff36ab5000000000000000000000000000000000000000000000000000647b2c43501a80000000000000000000000000000000000000000000000000000000000000080000000000000000000000000a011e9df010b6b55cd7c1b688fd1d8931e6628ce0000000000000000000000000000000000000000000000000000000063e91da50000000000000000000000000000000000000000000000000000000000000002000000000000000000000000c02aaa39b223fe8d0a0e5c4f27ead9083c756cc200000000000000000000000000b64cd592359b96989ad0b4bc3ac05cab883750\"}, \"latest\"]\r\nError: \r\n(code: 3, message: execution reverted: UniswapV2Library: INSUFFICIENT_INPUT_AMOUNT, data: Some(String(\"0x08c379a00000000000000000000000000000000000000000000000000000000000000020000000000000000000000000000000000000000000000000000000000000002b556e697377617056324c6962726172793a20494e53554646494349454e545f494e5055545f414d4f554e54000000000000000000000000000000000000000000\")))\r\n```\r\n\r\n```\r\ncast rpc eth_sendRawTransaction 0x02f9015a014685012a05f2008506ee9646cc8303989c947a250d5630b4cf539739df2c5dacb4c659f2488d88016345785d8a0000b8e47ff36ab5000000000000000000000000000000000000000000000000000647b2c43501a80000000000000000000000000000000000000000000000000000000000000080000000000000000000000000a011e9df010b6b55cd7c1b688fd1d8931e6628ce0000000000000000000000000000000000000000000000000000000063e91da50000000000000000000000000000000000000000000000000000000000000002000000000000000000000000c02aaa39b223fe8d0a0e5c4f27ead9083c756cc200000000000000000000000000b64cd592359b96989ad0b4bc3ac05cab883750c080a0b7c81bd027675dfa9e7d8a805d4d63762d9bfa7864e421f92a3c6dc67dd6531fa07fdc315d5fda046dd31d5842a3bc8065379b7935085d90eecee9e7e48f7bfde4\r\n\"0xa83124dcf83b46596b8b1f4ea2a56b9ee9360d8c532573ac89ad3948b28f8839\"\r\n```\r\n\r\n```\r\ncast rpc evm_mine\r\n\"0x0\"\r\n```\r\n\r\nAnvil output:\r\n```\r\neth_call\r\neth_sendRawTransaction\r\nevm_mine\r\n\r\n    Transaction: 0xa83124dcf83b46596b8b1f4ea2a56b9ee9360d8c532573ac89ad3948b28f8839\r\n    Gas used: 170100\r\n\r\n    Block Number: 16613976\r\n    Block Hash: 0xfd7891d7b265190df4e48a46ca7b80639288b34c29a5270953a937634289b046\r\n    Block Time: \"Sun, 12 Feb 2023 16:49:35 +0000\"\r\n```\r\n",
    "reactions": {
      "url": "https://api.github.com/repos/foundry-rs/foundry/issues/comments/1428453958/reactions",
      "total_count": 0,
      "+1": 0,
      "-1": 0,
      "laugh": 0,
      "hooray": 0,
      "confused": 0,
      "heart": 0,
      "rocket": 0,
      "eyes": 0
    },
    "performed_via_github_app": null
  },
  {
    "url": "https://api.github.com/repos/foundry-rs/foundry/issues/comments/1428562602",
    "html_url": "https://github.com/foundry-rs/foundry/issues/4348#issuecomment-1428562602",
    "issue_url": "https://api.github.com/repos/foundry-rs/foundry/issues/4348",
    "id": 1428562602,
    "node_id": "IC_kwDOGBlvNc5VJiKq",
    "user": {
      "login": "mattsse",
      "id": 19890894,
      "node_id": "MDQ6VXNlcjE5ODkwODk0",
      "avatar_url": "https://avatars.githubusercontent.com/u/19890894?v=4",
      "gravatar_id": "",
      "url": "https://api.github.com/users/mattsse",
      "html_url": "https://github.com/mattsse",
      "followers_url": "https://api.github.com/users/mattsse/followers",
      "following_url": "https://api.github.com/users/mattsse/following{/other_user}",
      "gists_url": "https://api.github.com/users/mattsse/gists{/gist_id}",
      "starred_url": "https://api.github.com/users/mattsse/starred{/owner}{/repo}",
      "subscriptions_url": "https://api.github.com/users/mattsse/subscriptions",
      "organizations_url": "https://api.github.com/users/mattsse/orgs",
      "repos_url": "https://api.github.com/users/mattsse/repos",
      "events_url": "https://api.github.com/users/mattsse/events{/privacy}",
      "received_events_url": "https://api.github.com/users/mattsse/received_events",
      "type": "User",
      "site_admin": false
    },
    "created_at": "2023-02-13T19:51:06Z",
    "updated_at": "2023-02-13T19:51:06Z",
    "author_association": "MEMBER",
    "body": "what's the status of the mined transaction?\r\nit should be `0`?",
    "reactions": {
      "url": "https://api.github.com/repos/foundry-rs/foundry/issues/comments/1428562602/reactions",
      "total_count": 0,
      "+1": 0,
      "-1": 0,
      "laugh": 0,
      "hooray": 0,
      "confused": 0,
      "heart": 0,
      "rocket": 0,
      "eyes": 0
    },
    "performed_via_github_app": null
  },
  {
    "url": "https://api.github.com/repos/foundry-rs/foundry/issues/comments/1429150838",
    "html_url": "https://github.com/foundry-rs/foundry/issues/4348#issuecomment-1429150838",
    "issue_url": "https://api.github.com/repos/foundry-rs/foundry/issues/4348",
    "id": 1429150838,
    "node_id": "IC_kwDOGBlvNc5VLxx2",
    "user": {
      "login": "llacqie",
      "id": 46074473,
      "node_id": "MDQ6VXNlcjQ2MDc0NDcz",
      "avatar_url": "https://avatars.githubusercontent.com/u/46074473?v=4",
      "gravatar_id": "",
      "url": "https://api.github.com/users/llacqie",
      "html_url": "https://github.com/llacqie",
      "followers_url": "https://api.github.com/users/llacqie/followers",
      "following_url": "https://api.github.com/users/llacqie/following{/other_user}",
      "gists_url": "https://api.github.com/users/llacqie/gists{/gist_id}",
      "starred_url": "https://api.github.com/users/llacqie/starred{/owner}{/repo}",
      "subscriptions_url": "https://api.github.com/users/llacqie/subscriptions",
      "organizations_url": "https://api.github.com/users/llacqie/orgs",
      "repos_url": "https://api.github.com/users/llacqie/repos",
      "events_url": "https://api.github.com/users/llacqie/events{/privacy}",
      "received_events_url": "https://api.github.com/users/llacqie/received_events",
      "type": "User",
      "site_admin": false
    },
    "created_at": "2023-02-14T05:39:28Z",
    "updated_at": "2023-02-14T05:39:28Z",
    "author_association": "NONE",
    "body": "```\r\ncast rpc eth_getTransactionReceipt 0xa83124dcf83b46596b8b1f4ea2a56b9ee9360d8c532573ac89ad3948b28f8839\r\n{\"transactionHash\":\"0xa83124dcf83b46596b8b1f4ea2a56b9ee9360d8c532573ac89ad3948b28f8839\",\"transactionIndex\":\"0x0\",\"blockHash\":\"0xab80467e42a22d7554f5540e9135789ba4a1817b64f0c99ef47ae5ba56e6f189\",\"blockNumber\":\"0xfd8258\",\"from\":\"0xa011e9df010b6b55cd7c1b688fd1d8931e6628ce\",\"to\":\"0x7a250d5630b4cf539739df2c5dacb4c659f2488d\",\"cumulativeGasUsed\":\"0x29874\",\"gasUsed\":\"0x29874\",\"contractAddress\":null,\"logs\":[{\"address\":\"0xc02aaa39b223fe8d0a0e5c4f27ead9083c756cc2\",\"topics\":[\"0xe1fffcc4923d04b559f4d29a8bfc6cda04eb5b0d3c460751c2402c5c5cc9109c\",\"0x0000000000000000000000007a250d5630b4cf539739df2c5dacb4c659f2488d\"],\"data\":\"0x000000000000000000000000000000000000000000000000016345785d8a0000\",\"blockHash\":\"0xab80467e42a22d7554f5540e9135789ba4a1817b64f0c99ef47ae5ba56e6f189\",\"blockNumber\":\"0xfd8258\",\"transactionHash\":\"0xa83124dcf83b46596b8b1f4ea2a56b9ee9360d8c532573ac89ad3948b28f8839\",\"transactionIndex\":\"0x0\",\"logIndex\":\"0x0\",\"transactionLogIndex\":\"0x0\",\"removed\":false},{\"address\":\"0xc02aaa39b223fe8d0a0e5c4f27ead9083c756cc2\",\"topics\":[\"0xddf252ad1be2c89b69c2b068fc378daa952ba7f163c4a11628f55a4df523b3ef\",\"0x0000000000000000000000007a250d5630b4cf539739df2c5dacb4c659f2488d\",\"0x000000000000000000000000988b66b4dd368cb8575d5ac5f80c273e8bb65bc9\"],\"data\":\"0x000000000000000000000000000000000000000000000000016345785d8a0000\",\"blockHash\":\"0xab80467e42a22d7554f5540e9135789ba4a1817b64f0c99ef47ae5ba56e6f189\",\"blockNumber\":\"0xfd8258\",\"transactionHash\":\"0xa83124dcf83b46596b8b1f4ea2a56b9ee9360d8c532573ac89ad3948b28f8839\",\"transactionIndex\":\"0x0\",\"logIndex\":\"0x1\",\"transactionLogIndex\":\"0x1\",\"removed\":false},{\"address\":\"0x00b64cd592359b96989ad0b4bc3ac05cab883750\",\"topics\":[\"0xddf252ad1be2c89b69c2b068fc378daa952ba7f163c4a11628f55a4df523b3ef\",\"0x000000000000000000000000988b66b4dd368cb8575d5ac5f80c273e8bb65bc9\",\"0x000000000000000000000000a011e9df010b6b55cd7c1b688fd1d8931e6628ce\"],\"data\":\"0x00000000000000000000000000000000000000000000000000070c7c46935429\",\"blockHash\":\"0xab80467e42a22d7554f5540e9135789ba4a1817b64f0c99ef47ae5ba56e6f189\",\"blockNumber\":\"0xfd8258\",\"transactionHash\":\"0xa83124dcf83b46596b8b1f4ea2a56b9ee9360d8c532573ac89ad3948b28f8839\",\"transactionIndex\":\"0x0\",\"logIndex\":\"0x2\",\"transactionLogIndex\":\"0x2\",\"removed\":false},{\"address\":\"0x988b66b4dd368cb8575d5ac5f80c273e8bb65bc9\",\"topics\":[\"0x1c411e9a96e071241c2f21f7726b17ae89e3cab4c78be50e062b03a9fffbbad1\"],\"data\":\"0x00000000000000000000000000000000000000000000000000d862789a8402ae0000000000000000000000000000000000000000000000002a29cef0b6b4e0b6\",\"blockHash\":\"0xab80467e42a22d7554f5540e9135789ba4a1817b64f0c99ef47ae5ba56e6f189\",\"blockNumber\":\"0xfd8258\",\"transactionHash\":\"0xa83124dcf83b46596b8b1f4ea2a56b9ee9360d8c532573ac89ad3948b28f8839\",\"transactionIndex\":\"0x0\",\"logIndex\":\"0x3\",\"transactionLogIndex\":\"0x3\",\"removed\":false},{\"address\":\"0x988b66b4dd368cb8575d5ac5f80c273e8bb65bc9\",\"topics\":[\"0xd78ad95fa46c994b6551d0da85fc275fe613ce37657fb8d5e3d130840159d822\",\"0x0000000000000000000000007a250d5630b4cf539739df2c5dacb4c659f2488d\",\"0x000000000000000000000000a011e9df010b6b55cd7c1b688fd1d8931e6628ce\"],\"data\":\"0x0000000000000000000000000000000000000000000000000000000000000000000000000000000000000000000000000000000000000000016345785d8a0000000000000000000000000000000000000000000000000000000757ac1ed977aa0000000000000000000000000000000000000000000000000000000000000000\",\"blockHash\":\"0xab80467e42a22d7554f5540e9135789ba4a1817b64f0c99ef47ae5ba56e6f189\",\"blockNumber\":\"0xfd8258\",\"transactionHash\":\"0xa83124dcf83b46596b8b1f4ea2a56b9ee9360d8c532573ac89ad3948b28f8839\",\"transactionIndex\":\"0x0\",\"logIndex\":\"0x4\",\"transactionLogIndex\":\"0x4\",\"removed\":false}],\"status\":\"0x1\",\"logsBloom\":\"0x00200000000000000000000080004000000000000000000000010000000000000000000040000000000800000000000002000000090000000000000000000000000000000000000000000008000000200000000020020000200000008000000000000000000000000000000000000000000000000000000000010210000000000000000000000000004000000000000000000001000000080000004000000000000000000000000000000000000000000000000000000000000000000000000000000002000000000000000000000000000400000000001000000000000020000000200000000000000000000000000000000010000800400000000000000000\",\"effectiveGasPrice\":\"0x4efed2f84\"}\r\n```",
    "reactions": {
      "url": "https://api.github.com/repos/foundry-rs/foundry/issues/comments/1429150838/reactions",
      "total_count": 0,
      "+1": 0,
      "-1": 0,
      "laugh": 0,
      "hooray": 0,
      "confused": 0,
      "heart": 0,
      "rocket": 0,
      "eyes": 0
    },
    "performed_via_github_app": null
  },
  {
    "url": "https://api.github.com/repos/foundry-rs/foundry/issues/comments/1431275877",
    "html_url": "https://github.com/foundry-rs/foundry/issues/4348#issuecomment-1431275877",
    "issue_url": "https://api.github.com/repos/foundry-rs/foundry/issues/4348",
    "id": 1431275877,
    "node_id": "IC_kwDOGBlvNc5VT4ll",
    "user": {
      "login": "llacqie",
      "id": 46074473,
      "node_id": "MDQ6VXNlcjQ2MDc0NDcz",
      "avatar_url": "https://avatars.githubusercontent.com/u/46074473?v=4",
      "gravatar_id": "",
      "url": "https://api.github.com/users/llacqie",
      "html_url": "https://github.com/llacqie",
      "followers_url": "https://api.github.com/users/llacqie/followers",
      "following_url": "https://api.github.com/users/llacqie/following{/other_user}",
      "gists_url": "https://api.github.com/users/llacqie/gists{/gist_id}",
      "starred_url": "https://api.github.com/users/llacqie/starred{/owner}{/repo}",
      "subscriptions_url": "https://api.github.com/users/llacqie/subscriptions",
      "organizations_url": "https://api.github.com/users/llacqie/orgs",
      "repos_url": "https://api.github.com/users/llacqie/repos",
      "events_url": "https://api.github.com/users/llacqie/events{/privacy}",
      "received_events_url": "https://api.github.com/users/llacqie/received_events",
      "type": "User",
      "site_admin": false
    },
    "created_at": "2023-02-15T12:13:39Z",
    "updated_at": "2023-02-15T12:13:39Z",
    "author_association": "NONE",
    "body": "Contract needs \"value\" field. I didn't specify it, so it didn't work.",
    "reactions": {
      "url": "https://api.github.com/repos/foundry-rs/foundry/issues/comments/1431275877/reactions",
      "total_count": 0,
      "+1": 0,
      "-1": 0,
      "laugh": 0,
      "hooray": 0,
      "confused": 0,
      "heart": 0,
      "rocket": 0,
      "eyes": 0
    },
    "performed_via_github_app": null
  }
]
