{
  "url": "https://api.github.com/repos/foundry-rs/foundry/issues/4752",
  "repository_url": "https://api.github.com/repos/foundry-rs/foundry",
  "labels_url": "https://api.github.com/repos/foundry-rs/foundry/issues/4752/labels{/name}",
  "comments_url": "https://api.github.com/repos/foundry-rs/foundry/issues/4752/comments",
  "events_url": "https://api.github.com/repos/foundry-rs/foundry/issues/4752/events",
  "html_url": "https://github.com/foundry-rs/foundry/issues/4752",
  "id": 1670868601,
  "node_id": "I_kwDOGBlvNc5jl255",
  "number": 4752,
  "title": "Decode raw signed txs",
  "user": {
    "login": "halo3mic",
    "id": 46010359,
    "node_id": "MDQ6VXNlcjQ2MDEwMzU5",
    "avatar_url": "https://avatars.githubusercontent.com/u/46010359?v=4",
    "gravatar_id": "",
    "url": "https://api.github.com/users/halo3mic",
    "html_url": "https://github.com/halo3mic",
    "followers_url": "https://api.github.com/users/halo3mic/followers",
    "following_url": "https://api.github.com/users/halo3mic/following{/other_user}",
    "gists_url": "https://api.github.com/users/halo3mic/gists{/gist_id}",
    "starred_url": "https://api.github.com/users/halo3mic/starred{/owner}{/repo}",
    "subscriptions_url": "https://api.github.com/users/halo3mic/subscriptions",
    "organizations_url": "https://api.github.com/users/halo3mic/orgs",
    "repos_url": "https://api.github.com/users/halo3mic/repos",
    "events_url": "https://api.github.com/users/halo3mic/events{/privacy}",
    "received_events_url": "https://api.github.com/users/halo3mic/received_events",
    "type": "User",
    "site_admin": false
  },
  "labels": [
    {
      "id": 3593644820,
      "node_id": "LA_kwDOGBlvNc7WMqsU",
      "url": "https://api.github.com/repos/foundry-rs/foundry/labels/T-feature",
      "name": "T-feature",
      "color": "BFD4F2",
      "default": false,
      "description": "Type: feature"
    },
    {
      "id": 3703752609,
      "node_id": "LA_kwDOGBlvNc7cwseh",
      "url": "https://api.github.com/repos/foundry-rs/foundry/labels/C-cast",
      "name": "C-cast",
      "color": "5319E7",
      "default": false,
      "description": "Command: cast"
    }
  ],
  "state": "open",
  "locked": false,
  "assignee": {
    "login": "ruvaag",
    "id": 81832128,
    "node_id": "MDQ6VXNlcjgxODMyMTI4",
    "avatar_url": "https://avatars.githubusercontent.com/u/81832128?v=4",
    "gravatar_id": "",
    "url": "https://api.github.com/users/ruvaag",
    "html_url": "https://github.com/ruvaag",
    "followers_url": "https://api.github.com/users/ruvaag/followers",
    "following_url": "https://api.github.com/users/ruvaag/following{/other_user}",
    "gists_url": "https://api.github.com/users/ruvaag/gists{/gist_id}",
    "starred_url": "https://api.github.com/users/ruvaag/starred{/owner}{/repo}",
    "subscriptions_url": "https://api.github.com/users/ruvaag/subscriptions",
    "organizations_url": "https://api.github.com/users/ruvaag/orgs",
    "repos_url": "https://api.github.com/users/ruvaag/repos",
    "events_url": "https://api.github.com/users/ruvaag/events{/privacy}",
    "received_events_url": "https://api.github.com/users/ruvaag/received_events",
    "type": "User",
    "site_admin": false
  },
  "assignees": [
    {
      "login": "ruvaag",
      "id": 81832128,
      "node_id": "MDQ6VXNlcjgxODMyMTI4",
      "avatar_url": "https://avatars.githubusercontent.com/u/81832128?v=4",
      "gravatar_id": "",
      "url": "https://api.github.com/users/ruvaag",
      "html_url": "https://github.com/ruvaag",
      "followers_url": "https://api.github.com/users/ruvaag/followers",
      "following_url": "https://api.github.com/users/ruvaag/following{/other_user}",
      "gists_url": "https://api.github.com/users/ruvaag/gists{/gist_id}",
      "starred_url": "https://api.github.com/users/ruvaag/starred{/owner}{/repo}",
      "subscriptions_url": "https://api.github.com/users/ruvaag/subscriptions",
      "organizations_url": "https://api.github.com/users/ruvaag/orgs",
      "repos_url": "https://api.github.com/users/ruvaag/repos",
      "events_url": "https://api.github.com/users/ruvaag/events{/privacy}",
      "received_events_url": "https://api.github.com/users/ruvaag/received_events",
      "type": "User",
      "site_admin": false
    }
  ],
  "milestone": null,
  "comments": 2,
  "created_at": "2023-04-17T10:24:17Z",
  "updated_at": "2023-09-05T01:22:31Z",
  "closed_at": null,
  "author_association": "NONE",
  "active_lock_reason": null,
  "body": "### Component\n\nCast\n\n### Describe the feature you would like\n\n## Feature\r\n\r\nMake it possible for cast to decode raw signed transactions according to eip2718. \r\n\r\n## Example\r\n#### Input\r\n```\r\ncast --decode-signed 0x02f8f582a86a82058d8459682f008508351050808303fd84948e42f2f4101563bf679975178e880fd87d3efd4e80b884659ac74b00000000000000000000000080f0c1c49891dcfdd40b6e0f960f84e6042bcb6f000000000000000000000000b97ef9ef8734c71904d8002f8b6bc66dd9c48a6e00000000000000000000000000000000000000000000000000000000007ff4e20000000000000000000000000000000000000000000000000000000000000064c001a05d429597befe2835396206781b199122f2e8297327ed4a05483339e7a8b2022aa04c23a7f70fb29dda1b4ee342fb10a625e9b8ddc6a603fb4e170d4f6f37700cb8\r\n```\r\n\r\n#### Output \r\n```\r\nblockHash            0x0d66030b7ef021673c57d596e1ad922857552452437fef7f64b822729feea893\r\nblockNumber          28831034\r\nfrom                 0xdDbfD6C43d6412b61dbbe463934b69f8c17D9430\r\ngas                  261508\r\ngasPrice             26500000000\r\nhash                 0xd9bb8781c0717c6e69c4b7424e0a3b6fe63067b02a4ca1ee589f1cff67f2686c\r\ninput                0x659ac74b00000000000000000000000080f0c1c49891dcfdd40b6e0f960f84e6042bcb6f000000000000000000000000b97ef9ef8734c71904d8002f8b6bc66dd9c48a6e00000000000000000000000000000000000000000000000000000000007ff4e20000000000000000000000000000000000000000000000000000000000000064\r\nnonce                1421\r\nr                    0x5d429597befe2835396206781b199122f2e8297327ed4a05483339e7a8b2022a\r\ns                    0x4c23a7f70fb29dda1b4ee342fb10a625e9b8ddc6a603fb4e170d4f6f37700cb8\r\nto                   0x8e42f2F4101563bF679975178e880FD87d3eFd4e\r\ntransactionIndex     6\r\nv                    1\r\nvalue                0\r\n```\n\n### Additional context\n\n_No response_",
  "closed_by": null,
  "reactions": {
    "url": "https://api.github.com/repos/foundry-rs/foundry/issues/4752/reactions",
    "total_count": 1,
    "+1": 1,
    "-1": 0,
    "laugh": 0,
    "hooray": 0,
    "confused": 0,
    "heart": 0,
    "rocket": 0,
    "eyes": 0
  },
  "timeline_url": "https://api.github.com/repos/foundry-rs/foundry/issues/4752/timeline",
  "performed_via_github_app": null,
  "state_reason": null
}
[
  {
    "url": "https://api.github.com/repos/foundry-rs/foundry/issues/comments/1705813658",
    "html_url": "https://github.com/foundry-rs/foundry/issues/4752#issuecomment-1705813658",
    "issue_url": "https://api.github.com/repos/foundry-rs/foundry/issues/4752",
    "id": 1705813658,
    "node_id": "IC_kwDOGBlvNc5lrKaa",
    "user": {
      "login": "ruvaag",
      "id": 81832128,
      "node_id": "MDQ6VXNlcjgxODMyMTI4",
      "avatar_url": "https://avatars.githubusercontent.com/u/81832128?v=4",
      "gravatar_id": "",
      "url": "https://api.github.com/users/ruvaag",
      "html_url": "https://github.com/ruvaag",
      "followers_url": "https://api.github.com/users/ruvaag/followers",
      "following_url": "https://api.github.com/users/ruvaag/following{/other_user}",
      "gists_url": "https://api.github.com/users/ruvaag/gists{/gist_id}",
      "starred_url": "https://api.github.com/users/ruvaag/starred{/owner}{/repo}",
      "subscriptions_url": "https://api.github.com/users/ruvaag/subscriptions",
      "organizations_url": "https://api.github.com/users/ruvaag/orgs",
      "repos_url": "https://api.github.com/users/ruvaag/repos",
      "events_url": "https://api.github.com/users/ruvaag/events{/privacy}",
      "received_events_url": "https://api.github.com/users/ruvaag/received_events",
      "type": "User",
      "site_admin": false
    },
    "created_at": "2023-09-05T01:12:13Z",
    "updated_at": "2023-09-05T01:12:13Z",
    "author_association": "CONTRIBUTOR",
    "body": "I can pick up this one",
    "reactions": {
      "url": "https://api.github.com/repos/foundry-rs/foundry/issues/comments/1705813658/reactions",
      "total_count": 0,
      "+1": 0,
      "-1": 0,
      "laugh": 0,
      "hooray": 0,
      "confused": 0,
      "heart": 0,
      "rocket": 0,
      "eyes": 0
    },
    "performed_via_github_app": null
  },
  {
    "url": "https://api.github.com/repos/foundry-rs/foundry/issues/comments/1705818595",
    "html_url": "https://github.com/foundry-rs/foundry/issues/4752#issuecomment-1705818595",
    "issue_url": "https://api.github.com/repos/foundry-rs/foundry/issues/4752",
    "id": 1705818595,
    "node_id": "IC_kwDOGBlvNc5lrLnj",
    "user": {
      "login": "Evalir",
      "id": 26014927,
      "node_id": "MDQ6VXNlcjI2MDE0OTI3",
      "avatar_url": "https://avatars.githubusercontent.com/u/26014927?v=4",
      "gravatar_id": "",
      "url": "https://api.github.com/users/Evalir",
      "html_url": "https://github.com/Evalir",
      "followers_url": "https://api.github.com/users/Evalir/followers",
      "following_url": "https://api.github.com/users/Evalir/following{/other_user}",
      "gists_url": "https://api.github.com/users/Evalir/gists{/gist_id}",
      "starred_url": "https://api.github.com/users/Evalir/starred{/owner}{/repo}",
      "subscriptions_url": "https://api.github.com/users/Evalir/subscriptions",
      "organizations_url": "https://api.github.com/users/Evalir/orgs",
      "repos_url": "https://api.github.com/users/Evalir/repos",
      "events_url": "https://api.github.com/users/Evalir/events{/privacy}",
      "received_events_url": "https://api.github.com/users/Evalir/received_events",
      "type": "User",
      "site_admin": false
    },
    "created_at": "2023-09-05T01:22:24Z",
    "updated_at": "2023-09-05T01:22:24Z",
    "author_association": "MEMBER",
    "body": "assigning you!",
    "reactions": {
      "url": "https://api.github.com/repos/foundry-rs/foundry/issues/comments/1705818595/reactions",
      "total_count": 0,
      "+1": 0,
      "-1": 0,
      "laugh": 0,
      "hooray": 0,
      "confused": 0,
      "heart": 0,
      "rocket": 0,
      "eyes": 0
    },
    "performed_via_github_app": null
  }
]
