{
  "url": "https://api.github.com/repos/NethermindEth/nethermind/issues/608",
  "repository_url": "https://api.github.com/repos/NethermindEth/nethermind",
  "labels_url": "https://api.github.com/repos/NethermindEth/nethermind/issues/608/labels{/name}",
  "comments_url": "https://api.github.com/repos/NethermindEth/nethermind/issues/608/comments",
  "events_url": "https://api.github.com/repos/NethermindEth/nethermind/issues/608/events",
  "html_url": "https://github.com/NethermindEth/nethermind/issues/608",
  "id": 462664291,
  "node_id": "MDU6SXNzdWU0NjI2NjQyOTE=",
  "number": 608,
  "title": "parity_pendingTransactions",
  "user": {
    "login": "tkstanczak",
    "id": 498913,
    "node_id": "MDQ6VXNlcjQ5ODkxMw==",
    "avatar_url": "https://avatars.githubusercontent.com/u/498913?v=4",
    "gravatar_id": "",
    "url": "https://api.github.com/users/tkstanczak",
    "html_url": "https://github.com/tkstanczak",
    "followers_url": "https://api.github.com/users/tkstanczak/followers",
    "following_url": "https://api.github.com/users/tkstanczak/following{/other_user}",
    "gists_url": "https://api.github.com/users/tkstanczak/gists{/gist_id}",
    "starred_url": "https://api.github.com/users/tkstanczak/starred{/owner}{/repo}",
    "subscriptions_url": "https://api.github.com/users/tkstanczak/subscriptions",
    "organizations_url": "https://api.github.com/users/tkstanczak/orgs",
    "repos_url": "https://api.github.com/users/tkstanczak/repos",
    "events_url": "https://api.github.com/users/tkstanczak/events{/privacy}",
    "received_events_url": "https://api.github.com/users/tkstanczak/received_events",
    "type": "User",
    "site_admin": false
  },
  "labels": [
    {
      "id": 1124483401,
      "node_id": "MDU6TGFiZWwxMTI0NDgzNDAx",
      "url": "https://api.github.com/repos/NethermindEth/nethermind/labels/rpc",
      "name": "rpc",
      "color": "efe37a",
      "default": false,
      "description": ""
    }
  ],
  "state": "closed",
  "locked": false,
  "assignee": {
    "login": "spetz",
    "id": 2419600,
    "node_id": "MDQ6VXNlcjI0MTk2MDA=",
    "avatar_url": "https://avatars.githubusercontent.com/u/2419600?v=4",
    "gravatar_id": "",
    "url": "https://api.github.com/users/spetz",
    "html_url": "https://github.com/spetz",
    "followers_url": "https://api.github.com/users/spetz/followers",
    "following_url": "https://api.github.com/users/spetz/following{/other_user}",
    "gists_url": "https://api.github.com/users/spetz/gists{/gist_id}",
    "starred_url": "https://api.github.com/users/spetz/starred{/owner}{/repo}",
    "subscriptions_url": "https://api.github.com/users/spetz/subscriptions",
    "organizations_url": "https://api.github.com/users/spetz/orgs",
    "repos_url": "https://api.github.com/users/spetz/repos",
    "events_url": "https://api.github.com/users/spetz/events{/privacy}",
    "received_events_url": "https://api.github.com/users/spetz/received_events",
    "type": "User",
    "site_admin": false
  },
  "assignees": [
    {
      "login": "spetz",
      "id": 2419600,
      "node_id": "MDQ6VXNlcjI0MTk2MDA=",
      "avatar_url": "https://avatars.githubusercontent.com/u/2419600?v=4",
      "gravatar_id": "",
      "url": "https://api.github.com/users/spetz",
      "html_url": "https://github.com/spetz",
      "followers_url": "https://api.github.com/users/spetz/followers",
      "following_url": "https://api.github.com/users/spetz/following{/other_user}",
      "gists_url": "https://api.github.com/users/spetz/gists{/gist_id}",
      "starred_url": "https://api.github.com/users/spetz/starred{/owner}{/repo}",
      "subscriptions_url": "https://api.github.com/users/spetz/subscriptions",
      "organizations_url": "https://api.github.com/users/spetz/orgs",
      "repos_url": "https://api.github.com/users/spetz/repos",
      "events_url": "https://api.github.com/users/spetz/events{/privacy}",
      "received_events_url": "https://api.github.com/users/spetz/received_events",
      "type": "User",
      "site_admin": false
    }
  ],
  "milestone": null,
  "comments": 1,
  "created_at": "2019-07-01T11:37:21Z",
  "updated_at": "2019-07-03T10:43:19Z",
  "closed_at": "2019-07-02T15:35:34Z",
  "author_association": "MEMBER",
  "active_lock_reason": null,
  "body": "We would need it in:\r\n\r\nParityModule\r\nParityCliModule\r\n\r\nhttps://wiki.parity.io/JSONRPC-parity-module#parity_pendingtransactions",
  "closed_by": {
    "login": "tkstanczak",
    "id": 498913,
    "node_id": "MDQ6VXNlcjQ5ODkxMw==",
    "avatar_url": "https://avatars.githubusercontent.com/u/498913?v=4",
    "gravatar_id": "",
    "url": "https://api.github.com/users/tkstanczak",
    "html_url": "https://github.com/tkstanczak",
    "followers_url": "https://api.github.com/users/tkstanczak/followers",
    "following_url": "https://api.github.com/users/tkstanczak/following{/other_user}",
    "gists_url": "https://api.github.com/users/tkstanczak/gists{/gist_id}",
    "starred_url": "https://api.github.com/users/tkstanczak/starred{/owner}{/repo}",
    "subscriptions_url": "https://api.github.com/users/tkstanczak/subscriptions",
    "organizations_url": "https://api.github.com/users/tkstanczak/orgs",
    "repos_url": "https://api.github.com/users/tkstanczak/repos",
    "events_url": "https://api.github.com/users/tkstanczak/events{/privacy}",
    "received_events_url": "https://api.github.com/users/tkstanczak/received_events",
    "type": "User",
    "site_admin": false
  },
  "reactions": {
    "url": "https://api.github.com/repos/NethermindEth/nethermind/issues/608/reactions",
    "total_count": 0,
    "+1": 0,
    "-1": 0,
    "laugh": 0,
    "hooray": 0,
    "confused": 0,
    "heart": 0,
    "rocket": 0,
    "eyes": 0
  },
  "timeline_url": "https://api.github.com/repos/NethermindEth/nethermind/issues/608/timeline",
  "performed_via_github_app": null,
  "state_reason": "completed"
}
[
  {
    "url": "https://api.github.com/repos/NethermindEth/nethermind/issues/comments/508041396",
    "html_url": "https://github.com/NethermindEth/nethermind/issues/608#issuecomment-508041396",
    "issue_url": "https://api.github.com/repos/NethermindEth/nethermind/issues/608",
    "id": 508041396,
    "node_id": "MDEyOklzc3VlQ29tbWVudDUwODA0MTM5Ng==",
    "user": {
      "login": "vbaranov",
      "id": 4341812,
      "node_id": "MDQ6VXNlcjQzNDE4MTI=",
      "avatar_url": "https://avatars.githubusercontent.com/u/4341812?v=4",
      "gravatar_id": "",
      "url": "https://api.github.com/users/vbaranov",
      "html_url": "https://github.com/vbaranov",
      "followers_url": "https://api.github.com/users/vbaranov/followers",
      "following_url": "https://api.github.com/users/vbaranov/following{/other_user}",
      "gists_url": "https://api.github.com/users/vbaranov/gists{/gist_id}",
      "starred_url": "https://api.github.com/users/vbaranov/starred{/owner}{/repo}",
      "subscriptions_url": "https://api.github.com/users/vbaranov/subscriptions",
      "organizations_url": "https://api.github.com/users/vbaranov/orgs",
      "repos_url": "https://api.github.com/users/vbaranov/repos",
      "events_url": "https://api.github.com/users/vbaranov/events{/privacy}",
      "received_events_url": "https://api.github.com/users/vbaranov/received_events",
      "type": "User",
      "site_admin": false
    },
    "created_at": "2019-07-03T10:43:19Z",
    "updated_at": "2019-07-03T10:43:19Z",
    "author_association": "NONE",
    "body": "I would reopen this issue because `from` param is null. For example, one of the pending transactions from Rinkeby with Nethermind `1.0rc15`:\r\n```\r\n{\r\n      \"hash\": \"0x80002367dc23f0630e84a0f864940e4e81c65b23a67f4680e7bfd7ccad7b5fe9\",\r\n      \"nonce\": \"0x133\",\r\n      \"blockHash\": null,\r\n      \"blockNumber\": null,\r\n      \"transactionIndex\": null,\r\n      \"from\": null,\r\n      \"to\": \"0x0709566ed308e9641e5b2319003b7ca3e14a1fa6\",\r\n      \"value\": \"0x94fd7ab3f21000\",\r\n      \"gasPrice\": \"0xb2d05e00\",\r\n      \"gas\": \"0x5208\",\r\n      \"input\": \"0x\",\r\n      \"raw\": \"0xf86c82013384b2d05e00825208940709566ed308e9641e5b2319003b7ca3e14a1fa68794fd7ab3f21000802ca09689c886856aae69af2c00831590e7cd51bfcbe280498421707c5a200bf76039a067ce5f299887defd591e00b4c13fbaa50e0f271d00e574295870b34ff6423a42\",\r\n      \"creates\": null,\r\n      \"publicKey\": \"0x3a448e7ad41f24af7aa4e347f783d191819382d6ed05d9f86cd1c21135252b998eb1e921d1745ba64645c9f7cfc53beb609a960be6710a1b607dc205e4cb3e4b\",\r\n      \"chainId\": 4,\r\n      \"condition\": null,\r\n      \"r\": \"0x9689c886856aae69af2c00831590e7cd51bfcbe280498421707c5a200bf76039\",\r\n      \"s\": \"0x67ce5f299887defd591e00b4c13fbaa50e0f271d00e574295870b34ff6423a42\",\r\n      \"v\": \"0x2c\",\r\n      \"standardV\": \"0x1\"\r\n    }\r\n```",
    "reactions": {
      "url": "https://api.github.com/repos/NethermindEth/nethermind/issues/comments/508041396/reactions",
      "total_count": 0,
      "+1": 0,
      "-1": 0,
      "laugh": 0,
      "hooray": 0,
      "confused": 0,
      "heart": 0,
      "rocket": 0,
      "eyes": 0
    },
    "performed_via_github_app": null
  }
]
